{
  "_format": "hh-sol-artifact-1",
  "contractName": "VideoPlatform",
  "sourceName": "contracts/Vidverse.sol",
  "abi": [
    {
      "inputs": [],
      "stateMutability": "nonpayable",
      "type": "constructor"
    },
    {
      "anonymous": false,
      "inputs": [
        {
          "indexed": false,
          "internalType": "uint256",
          "name": "id",
          "type": "uint256"
        },
        {
          "indexed": false,
          "internalType": "address",
          "name": "owner",
          "type": "address"
        },
        {
          "indexed": false,
          "internalType": "string",
          "name": "title",
          "type": "string"
        },
        {
          "indexed": false,
          "internalType": "string",
          "name": "description",
          "type": "string"
        },
        {
          "indexed": false,
          "internalType": "string",
          "name": "ipfsHash",
          "type": "string"
        }
      ],
      "name": "VideoUploaded",
      "type": "event"
    },
    {
      "inputs": [],
      "name": "getAllVideos",
      "outputs": [
        {
          "components": [
            {
              "internalType": "uint256",
              "name": "id",
              "type": "uint256"
            },
            {
              "internalType": "address",
              "name": "owner",
              "type": "address"
            },
            {
              "internalType": "string",
              "name": "title",
              "type": "string"
            },
            {
              "internalType": "string",
              "name": "description",
              "type": "string"
            },
            {
              "internalType": "string",
              "name": "ipfsHash",
              "type": "string"
            },
            {
              "internalType": "uint256",
              "name": "tipAmount",
              "type": "uint256"
            }
          ],
          "internalType": "struct VideoPlatform.Video[]",
          "name": "",
          "type": "tuple[]"
        }
      ],
      "stateMutability": "view",
      "type": "function"
    },
    {
      "inputs": [
        {
          "internalType": "address",
          "name": "addr",
          "type": "address"
        }
      ],
      "name": "getBalance",
      "outputs": [
        {
          "internalType": "uint256",
          "name": "",
          "type": "uint256"
        }
      ],
      "stateMutability": "view",
      "type": "function"
    },
    {
      "inputs": [],
      "name": "myToken",
      "outputs": [
        {
          "internalType": "contract ERC20",
          "name": "",
          "type": "address"
        }
      ],
      "stateMutability": "view",
      "type": "function"
    },
    {
      "inputs": [
        {
          "internalType": "address",
          "name": "useAddre",
          "type": "address"
        },
        {
          "internalType": "uint256",
          "name": "_videoId",
          "type": "uint256"
        },
        {
          "internalType": "uint256",
          "name": "_amount",
          "type": "uint256"
        }
      ],
      "name": "tipVideoOwner",
      "outputs": [],
      "stateMutability": "payable",
      "type": "function"
    },
    {
      "inputs": [
        {
          "internalType": "address",
          "name": "userAddr",
          "type": "address"
        },
        {
          "internalType": "string",
          "name": "_title",
          "type": "string"
        },
        {
          "internalType": "string",
          "name": "_description",
          "type": "string"
        },
        {
          "internalType": "string",
          "name": "_ipfsHash",
          "type": "string"
        }
      ],
      "name": "uploadVideo",
      "outputs": [],
      "stateMutability": "nonpayable",
      "type": "function"
    },
    {
      "inputs": [
        {
          "internalType": "uint256",
          "name": "",
          "type": "uint256"
        }
      ],
      "name": "videos",
      "outputs": [
        {
          "internalType": "uint256",
          "name": "id",
          "type": "uint256"
        },
        {
          "internalType": "address",
          "name": "owner",
          "type": "address"
        },
        {
          "internalType": "string",
          "name": "title",
          "type": "string"
        },
        {
          "internalType": "string",
          "name": "description",
          "type": "string"
        },
        {
          "internalType": "string",
          "name": "ipfsHash",
          "type": "string"
        },
        {
          "internalType": "uint256",
          "name": "tipAmount",
          "type": "uint256"
        }
      ],
      "stateMutability": "view",
      "type": "function"
    }
  ],
  "bytecode": "0x608060405234801561001057600080fd5b50600060405161001f90610085565b604051809103906000f08015801561003b573d6000803e3d6000fd5b50905080600160006101000a81548173ffffffffffffffffffffffffffffffffffffffff021916908373ffffffffffffffffffffffffffffffffffffffff16021790555050610093565b6116828062001f4a83390190565b611ea780620000a36000396000f3fe6080604052600436106100555760003560e01c80632cc9d4ab1461005a5780635b3c8d0314610076578063b8fcf9371461009f578063c38e3434146100ca578063e6821bf5146100f5578063f8b2cb4f14610137575b600080fd5b610074600480360381019061006f9190610e68565b610174565b005b34801561008257600080fd5b5061009d60048036038101906100989190611001565b61059b565b005b3480156100ab57600080fd5b506100b4610872565b6040516100c1919061111b565b60405180910390f35b3480156100d657600080fd5b506100df610898565b6040516100ec919061132c565b60405180910390f35b34801561010157600080fd5b5061011c6004803603810190610117919061134e565b610b17565b60405161012e969594939291906113e3565b60405180910390f35b34801561014357600080fd5b5061015e60048036038101906101599190611459565b610d1b565b60405161016b9190611486565b60405180910390f35b60008054905082106101bb576040517f08c379a00000000000000000000000000000000000000000000000000000000081526004016101b2906114ed565b60405180910390fd5b600081116101fe576040517f08c379a00000000000000000000000000000000000000000000000000000000081526004016101f590611559565b60405180910390fd5b600080838154811061021357610212611579565b5b90600052602060002090600602019050600073ffffffffffffffffffffffffffffffffffffffff168160010160009054906101000a900473ffffffffffffffffffffffffffffffffffffffff1673ffffffffffffffffffffffffffffffffffffffff16036102b6576040517f08c379a00000000000000000000000000000000000000000000000000000000081526004016102ad906115f4565b60405180910390fd5b81600160009054906101000a900473ffffffffffffffffffffffffffffffffffffffff1673ffffffffffffffffffffffffffffffffffffffff1663dd62ed3e86306040518363ffffffff1660e01b8152600401610314929190611614565b602060405180830381865afa158015610331573d6000803e3d6000fd5b505050506040513d601f19601f820116820180604052508101906103559190611652565b1015610396576040517f08c379a000000000000000000000000000000000000000000000000000000000815260040161038d906116cb565b60405180910390fd5b600160009054906101000a900473ffffffffffffffffffffffffffffffffffffffff1673ffffffffffffffffffffffffffffffffffffffff166323b872dd8530856040518463ffffffff1660e01b81526004016103f5939291906116eb565b6020604051808303816000875af1158015610414573d6000803e3d6000fd5b505050506040513d601f19601f82011682018060405250810190610438919061175a565b610477576040517f08c379a000000000000000000000000000000000000000000000000000000000815260040161046e906117f9565b60405180910390fd5b600160009054906101000a900473ffffffffffffffffffffffffffffffffffffffff1673ffffffffffffffffffffffffffffffffffffffff1663a9059cbb8260010160009054906101000a900473ffffffffffffffffffffffffffffffffffffffff16846040518363ffffffff1660e01b81526004016104f8929190611819565b6020604051808303816000875af1158015610517573d6000803e3d6000fd5b505050506040513d601f19601f8201168201806040525081019061053b919061175a565b61057a576040517f08c379a0000000000000000000000000000000000000000000000000000000008152600401610571906118b4565b60405180910390fd5b8181600501600082825461058e9190611903565b9250508190555050505050565b60005b60008054905081101561066a57816040516020016105bc9190611973565b60405160208183030381529060405280519060200120600082815481106105e6576105e5611579565b5b90600052602060002090600602016004016040516020016106079190611a82565b604051602081830303815290604052805190602001200361065d576040517f08c379a000000000000000000000000000000000000000000000000000000000815260040161065490611b0b565b60405180910390fd5b808060010191505061059e565b5060008080549050905060006040518060c001604052808381526020018773ffffffffffffffffffffffffffffffffffffffff168152602001868152602001858152602001848152602001600081525090806001815401808255809150506001900390600052602060002090600602016000909190919091506000820151816000015560208201518160010160006101000a81548173ffffffffffffffffffffffffffffffffffffffff021916908373ffffffffffffffffffffffffffffffffffffffff16021790555060408201518160020190816107499190611cb8565b50606082015181600301908161075f9190611cb8565b5060808201518160040190816107759190611cb8565b5060a082015181600501555050600160009054906101000a900473ffffffffffffffffffffffffffffffffffffffff1673ffffffffffffffffffffffffffffffffffffffff1663a9059cbb86683635c9adc5dea000006040518363ffffffff1660e01b81526004016107e8929190611dc5565b6020604051808303816000875af1158015610807573d6000803e3d6000fd5b505050506040513d601f19601f8201168201806040525081019061082b919061175a565b507f21e2cbd789bc9c3e71f61317f6c319f27a2f7953bf693b48c579ae6a3a1194568186868686604051610863959493929190611dee565b60405180910390a15050505050565b600160009054906101000a900473ffffffffffffffffffffffffffffffffffffffff1681565b60606000805480602002602001604051908101604052809291908181526020016000905b82821015610b0e57838290600052602060002090600602016040518060c0016040529081600082015481526020016001820160009054906101000a900473ffffffffffffffffffffffffffffffffffffffff1673ffffffffffffffffffffffffffffffffffffffff1673ffffffffffffffffffffffffffffffffffffffff16815260200160028201805461094f906119b9565b80601f016020809104026020016040519081016040528092919081815260200182805461097b906119b9565b80156109c85780601f1061099d576101008083540402835291602001916109c8565b820191906000526020600020905b8154815290600101906020018083116109ab57829003601f168201915b505050505081526020016003820180546109e1906119b9565b80601f0160208091040260200160405190810160405280929190818152602001828054610a0d906119b9565b8015610a5a5780601f10610a2f57610100808354040283529160200191610a5a565b820191906000526020600020905b815481529060010190602001808311610a3d57829003601f168201915b50505050508152602001600482018054610a73906119b9565b80601f0160208091040260200160405190810160405280929190818152602001828054610a9f906119b9565b8015610aec5780601f10610ac157610100808354040283529160200191610aec565b820191906000526020600020905b815481529060010190602001808311610acf57829003601f168201915b50505050508152602001600582015481525050815260200190600101906108bc565b50505050905090565b60008181548110610b2757600080fd5b90600052602060002090600602016000915090508060000154908060010160009054906101000a900473ffffffffffffffffffffffffffffffffffffffff1690806002018054610b76906119b9565b80601f0160208091040260200160405190810160405280929190818152602001828054610ba2906119b9565b8015610bef5780601f10610bc457610100808354040283529160200191610bef565b820191906000526020600020905b815481529060010190602001808311610bd257829003601f168201915b505050505090806003018054610c04906119b9565b80601f0160208091040260200160405190810160405280929190818152602001828054610c30906119b9565b8015610c7d5780601f10610c5257610100808354040283529160200191610c7d565b820191906000526020600020905b815481529060010190602001808311610c6057829003601f168201915b505050505090806004018054610c92906119b9565b80601f0160208091040260200160405190810160405280929190818152602001828054610cbe906119b9565b8015610d0b5780601f10610ce057610100808354040283529160200191610d0b565b820191906000526020600020905b815481529060010190602001808311610cee57829003601f168201915b5050505050908060050154905086565b6000600160009054906101000a900473ffffffffffffffffffffffffffffffffffffffff1673ffffffffffffffffffffffffffffffffffffffff166370a08231836040518263ffffffff1660e01b8152600401610d789190611e56565b602060405180830381865afa158015610d95573d6000803e3d6000fd5b505050506040513d601f19601f82011682018060405250810190610db99190611652565b9050919050565b6000604051905090565b600080fd5b600080fd5b600073ffffffffffffffffffffffffffffffffffffffff82169050919050565b6000610dff82610dd4565b9050919050565b610e0f81610df4565b8114610e1a57600080fd5b50565b600081359050610e2c81610e06565b92915050565b6000819050919050565b610e4581610e32565b8114610e5057600080fd5b50565b600081359050610e6281610e3c565b92915050565b600080600060608486031215610e8157610e80610dca565b5b6000610e8f86828701610e1d565b9350506020610ea086828701610e53565b9250506040610eb186828701610e53565b9150509250925092565b600080fd5b600080fd5b6000601f19601f8301169050919050565b7f4e487b7100000000000000000000000000000000000000000000000000000000600052604160045260246000fd5b610f0e82610ec5565b810181811067ffffffffffffffff82111715610f2d57610f2c610ed6565b5b80604052505050565b6000610f40610dc0565b9050610f4c8282610f05565b919050565b600067ffffffffffffffff821115610f6c57610f6b610ed6565b5b610f7582610ec5565b9050602081019050919050565b82818337600083830152505050565b6000610fa4610f9f84610f51565b610f36565b905082815260208101848484011115610fc057610fbf610ec0565b5b610fcb848285610f82565b509392505050565b600082601f830112610fe857610fe7610ebb565b5b8135610ff8848260208601610f91565b91505092915050565b6000806000806080858703121561101b5761101a610dca565b5b600061102987828801610e1d565b945050602085013567ffffffffffffffff81111561104a57611049610dcf565b5b61105687828801610fd3565b935050604085013567ffffffffffffffff81111561107757611076610dcf565b5b61108387828801610fd3565b925050606085013567ffffffffffffffff8111156110a4576110a3610dcf565b5b6110b087828801610fd3565b91505092959194509250565b6000819050919050565b60006110e16110dc6110d784610dd4565b6110bc565b610dd4565b9050919050565b60006110f3826110c6565b9050919050565b6000611105826110e8565b9050919050565b611115816110fa565b82525050565b6000602082019050611130600083018461110c565b92915050565b600081519050919050565b600082825260208201905092915050565b6000819050602082019050919050565b61116b81610e32565b82525050565b61117a81610df4565b82525050565b600081519050919050565b600082825260208201905092915050565b60005b838110156111ba57808201518184015260208101905061119f565b60008484015250505050565b60006111d182611180565b6111db818561118b565b93506111eb81856020860161119c565b6111f481610ec5565b840191505092915050565b600060c0830160008301516112176000860182611162565b50602083015161122a6020860182611171565b506040830151848203604086015261124282826111c6565b9150506060830151848203606086015261125c82826111c6565b9150506080830151848203608086015261127682826111c6565b91505060a083015161128b60a0860182611162565b508091505092915050565b60006112a283836111ff565b905092915050565b6000602082019050919050565b60006112c282611136565b6112cc8185611141565b9350836020820285016112de85611152565b8060005b8581101561131a57848403895281516112fb8582611296565b9450611306836112aa565b925060208a019950506001810190506112e2565b50829750879550505050505092915050565b6000602082019050818103600083015261134681846112b7565b905092915050565b60006020828403121561136457611363610dca565b5b600061137284828501610e53565b91505092915050565b61138481610e32565b82525050565b61139381610df4565b82525050565b600082825260208201905092915050565b60006113b582611180565b6113bf8185611399565b93506113cf81856020860161119c565b6113d881610ec5565b840191505092915050565b600060c0820190506113f8600083018961137b565b611405602083018861138a565b818103604083015261141781876113aa565b9050818103606083015261142b81866113aa565b9050818103608083015261143f81856113aa565b905061144e60a083018461137b565b979650505050505050565b60006020828403121561146f5761146e610dca565b5b600061147d84828501610e1d565b91505092915050565b600060208201905061149b600083018461137b565b92915050565b7f496e76616c696420766964656f20494400000000000000000000000000000000600082015250565b60006114d7601083611399565b91506114e2826114a1565b602082019050919050565b60006020820190508181036000830152611506816114ca565b9050919050565b7f416d6f756e74206d7573742062652067726561746572207468616e2030000000600082015250565b6000611543601d83611399565b915061154e8261150d565b602082019050919050565b6000602082019050818103600083015261157281611536565b9050919050565b7f4e487b7100000000000000000000000000000000000000000000000000000000600052603260045260246000fd5b7f566964656f206e6f7420666f756e640000000000000000000000000000000000600082015250565b60006115de600f83611399565b91506115e9826115a8565b602082019050919050565b6000602082019050818103600083015261160d816115d1565b9050919050565b6000604082019050611629600083018561138a565b611636602083018461138a565b9392505050565b60008151905061164c81610e3c565b92915050565b60006020828403121561166857611667610dca565b5b60006116768482850161163d565b91505092915050565b7f496e73756666696369656e7420616c6c6f77616e636500000000000000000000600082015250565b60006116b5601683611399565b91506116c08261167f565b602082019050919050565b600060208201905081810360008301526116e4816116a8565b9050919050565b6000606082019050611700600083018661138a565b61170d602083018561138a565b61171a604083018461137b565b949350505050565b60008115159050919050565b61173781611722565b811461174257600080fd5b50565b6000815190506117548161172e565b92915050565b6000602082840312156117705761176f610dca565b5b600061177e84828501611745565b91505092915050565b7f4661696c20746f207472616e7366657220746f6b656e20696e2061646472657360008201527f7300000000000000000000000000000000000000000000000000000000000000602082015250565b60006117e3602183611399565b91506117ee82611787565b604082019050919050565b60006020820190508181036000830152611812816117d6565b9050919050565b600060408201905061182e600083018561138a565b61183b602083018461137b565b9392505050565b7f4661696c20746f207472616e7366657220746f6b656e20746f20766964656f7360008201527f206f776e65720000000000000000000000000000000000000000000000000000602082015250565b600061189e602683611399565b91506118a982611842565b604082019050919050565b600060208201905081810360008301526118cd81611891565b9050919050565b7f4e487b7100000000000000000000000000000000000000000000000000000000600052601160045260246000fd5b600061190e82610e32565b915061191983610e32565b9250828201905080821115611931576119306118d4565b5b92915050565b600081905092915050565b600061194d82611180565b6119578185611937565b935061196781856020860161119c565b80840191505092915050565b600061197f8284611942565b915081905092915050565b7f4e487b7100000000000000000000000000000000000000000000000000000000600052602260045260246000fd5b600060028204905060018216806119d157607f821691505b6020821081036119e4576119e361198a565b5b50919050565b60008190508160005260206000209050919050565b60008154611a0c816119b9565b611a168186611937565b94506001821660008114611a315760018114611a4657611a79565b60ff1983168652811515820286019350611a79565b611a4f856119ea565b60005b83811015611a7157815481890152600182019150602081019050611a52565b838801955050505b50505092915050565b6000611a8e82846119ff565b915081905092915050565b7f566964656f2077697468207468652073616d652049504653206861736820616c60008201527f7265616479206578697374730000000000000000000000000000000000000000602082015250565b6000611af5602c83611399565b9150611b0082611a99565b604082019050919050565b60006020820190508181036000830152611b2481611ae8565b9050919050565b60006020601f8301049050919050565b600082821b905092915050565b600060088302611b787fffffffffffffffffffffffffffffffffffffffffffffffffffffffffffffffff82611b3b565b611b828683611b3b565b95508019841693508086168417925050509392505050565b6000611bb5611bb0611bab84610e32565b6110bc565b610e32565b9050919050565b6000819050919050565b611bcf83611b9a565b611be3611bdb82611bbc565b848454611b48565b825550505050565b600090565b611bf8611beb565b611c03818484611bc6565b505050565b5b81811015611c2757611c1c600082611bf0565b600181019050611c09565b5050565b601f821115611c6c57611c3d816119ea565b611c4684611b2b565b81016020851015611c55578190505b611c69611c6185611b2b565b830182611c08565b50505b505050565b600082821c905092915050565b6000611c8f60001984600802611c71565b1980831691505092915050565b6000611ca88383611c7e565b9150826002028217905092915050565b611cc182611180565b67ffffffffffffffff811115611cda57611cd9610ed6565b5b611ce482546119b9565b611cef828285611c2b565b600060209050601f831160018114611d225760008415611d10578287015190505b611d1a8582611c9c565b865550611d82565b601f198416611d30866119ea565b60005b82811015611d5857848901518255600182019150602085019450602081019050611d33565b86831015611d755784890151611d71601f891682611c7e565b8355505b6001600288020188555050505b505050505050565b6000819050919050565b6000611daf611daa611da584611d8a565b6110bc565b610e32565b9050919050565b611dbf81611d94565b82525050565b6000604082019050611dda600083018561138a565b611de76020830184611db6565b9392505050565b600060a082019050611e03600083018861137b565b611e10602083018761138a565b8181036040830152611e2281866113aa565b90508181036060830152611e3681856113aa565b90508181036080830152611e4a81846113aa565b90509695505050505050565b6000602082019050611e6b600083018461138a565b9291505056fea2646970667358221220937070e48f0db8689cc4b38929c20403546fa4e30d2bc37c1b8572786682816864736f6c6343000818003360806040523480156200001157600080fd5b506040518060400160405280600881526020017f566964546f6b656e0000000000000000000000000000000000000000000000008152506040518060400160405280600381526020017f4e5654000000000000000000000000000000000000000000000000000000000081525081600390816200008f9190620005ff565b508060049081620000a19190620005ff565b505050620000c2336b033b2e3c9fd0803ce8000000620000c860201b60201c565b6200081d565b600073ffffffffffffffffffffffffffffffffffffffff168273ffffffffffffffffffffffffffffffffffffffff16036200013d5760006040517fec442f050000000000000000000000000000000000000000000000000000000081526004016200013491906200072b565b60405180910390fd5b62000151600083836200015560201b60201c565b5050565b600073ffffffffffffffffffffffffffffffffffffffff168373ffffffffffffffffffffffffffffffffffffffff1603620001ab5780600260008282546200019e919062000777565b9250508190555062000281565b60008060008573ffffffffffffffffffffffffffffffffffffffff1673ffffffffffffffffffffffffffffffffffffffff168152602001908152602001600020549050818110156200023a578381836040517fe450d38c0000000000000000000000000000000000000000000000000000000081526004016200023193929190620007c3565b60405180910390fd5b8181036000808673ffffffffffffffffffffffffffffffffffffffff1673ffffffffffffffffffffffffffffffffffffffff16815260200190815260200160002081905550505b600073ffffffffffffffffffffffffffffffffffffffff168273ffffffffffffffffffffffffffffffffffffffff1603620002cc578060026000828254039250508190555062000319565b806000808473ffffffffffffffffffffffffffffffffffffffff1673ffffffffffffffffffffffffffffffffffffffff168152602001908152602001600020600082825401925050819055505b8173ffffffffffffffffffffffffffffffffffffffff168373ffffffffffffffffffffffffffffffffffffffff167fddf252ad1be2c89b69c2b068fc378daa952ba7f163c4a11628f55a4df523b3ef8360405162000378919062000800565b60405180910390a3505050565b600081519050919050565b7f4e487b7100000000000000000000000000000000000000000000000000000000600052604160045260246000fd5b7f4e487b7100000000000000000000000000000000000000000000000000000000600052602260045260246000fd5b600060028204905060018216806200040757607f821691505b6020821081036200041d576200041c620003bf565b5b50919050565b60008190508160005260206000209050919050565b60006020601f8301049050919050565b600082821b905092915050565b600060088302620004877fffffffffffffffffffffffffffffffffffffffffffffffffffffffffffffffff8262000448565b62000493868362000448565b95508019841693508086168417925050509392505050565b6000819050919050565b6000819050919050565b6000620004e0620004da620004d484620004ab565b620004b5565b620004ab565b9050919050565b6000819050919050565b620004fc83620004bf565b620005146200050b82620004e7565b84845462000455565b825550505050565b600090565b6200052b6200051c565b62000538818484620004f1565b505050565b5b8181101562000560576200055460008262000521565b6001810190506200053e565b5050565b601f821115620005af57620005798162000423565b620005848462000438565b8101602085101562000594578190505b620005ac620005a38562000438565b8301826200053d565b50505b505050565b600082821c905092915050565b6000620005d460001984600802620005b4565b1980831691505092915050565b6000620005ef8383620005c1565b9150826002028217905092915050565b6200060a8262000385565b67ffffffffffffffff81111562000626576200062562000390565b5b620006328254620003ee565b6200063f82828562000564565b600060209050601f83116001811462000677576000841562000662578287015190505b6200066e8582620005e1565b865550620006de565b601f198416620006878662000423565b60005b82811015620006b1578489015182556001820191506020850194506020810190506200068a565b86831015620006d15784890151620006cd601f891682620005c1565b8355505b6001600288020188555050505b505050505050565b600073ffffffffffffffffffffffffffffffffffffffff82169050919050565b60006200071382620006e6565b9050919050565b620007258162000706565b82525050565b60006020820190506200074260008301846200071a565b92915050565b7f4e487b7100000000000000000000000000000000000000000000000000000000600052601160045260246000fd5b60006200078482620004ab565b91506200079183620004ab565b9250828201905080821115620007ac57620007ab62000748565b5b92915050565b620007bd81620004ab565b82525050565b6000606082019050620007da60008301866200071a565b620007e96020830185620007b2565b620007f86040830184620007b2565b949350505050565b6000602082019050620008176000830184620007b2565b92915050565b610e55806200082d6000396000f3fe608060405234801561001057600080fd5b50600436106100935760003560e01c8063313ce56711610066578063313ce5671461013457806370a082311461015257806395d89b4114610182578063a9059cbb146101a0578063dd62ed3e146101d057610093565b806306fdde0314610098578063095ea7b3146100b657806318160ddd146100e657806323b872dd14610104575b600080fd5b6100a0610200565b6040516100ad9190610aa9565b60405180910390f35b6100d060048036038101906100cb9190610b64565b610292565b6040516100dd9190610bbf565b60405180910390f35b6100ee6102b5565b6040516100fb9190610be9565b60405180910390f35b61011e60048036038101906101199190610c04565b6102bf565b60405161012b9190610bbf565b60405180910390f35b61013c6102ee565b6040516101499190610c73565b60405180910390f35b61016c60048036038101906101679190610c8e565b6102f7565b6040516101799190610be9565b60405180910390f35b61018a61033f565b6040516101979190610aa9565b60405180910390f35b6101ba60048036038101906101b59190610b64565b6103d1565b6040516101c79190610bbf565b60405180910390f35b6101ea60048036038101906101e59190610cbb565b6103f4565b6040516101f79190610be9565b60405180910390f35b60606003805461020f90610d2a565b80601f016020809104026020016040519081016040528092919081815260200182805461023b90610d2a565b80156102885780601f1061025d57610100808354040283529160200191610288565b820191906000526020600020905b81548152906001019060200180831161026b57829003601f168201915b5050505050905090565b60008061029d61047b565b90506102aa818585610483565b600191505092915050565b6000600254905090565b6000806102ca61047b565b90506102d7858285610495565b6102e2858585610529565b60019150509392505050565b60006012905090565b60008060008373ffffffffffffffffffffffffffffffffffffffff1673ffffffffffffffffffffffffffffffffffffffff168152602001908152602001600020549050919050565b60606004805461034e90610d2a565b80601f016020809104026020016040519081016040528092919081815260200182805461037a90610d2a565b80156103c75780601f1061039c576101008083540402835291602001916103c7565b820191906000526020600020905b8154815290600101906020018083116103aa57829003601f168201915b5050505050905090565b6000806103dc61047b565b90506103e9818585610529565b600191505092915050565b6000600160008473ffffffffffffffffffffffffffffffffffffffff1673ffffffffffffffffffffffffffffffffffffffff16815260200190815260200160002060008373ffffffffffffffffffffffffffffffffffffffff1673ffffffffffffffffffffffffffffffffffffffff16815260200190815260200160002054905092915050565b600033905090565b610490838383600161061d565b505050565b60006104a184846103f4565b90507fffffffffffffffffffffffffffffffffffffffffffffffffffffffffffffffff81146105235781811015610513578281836040517ffb8f41b200000000000000000000000000000000000000000000000000000000815260040161050a93929190610d6a565b60405180910390fd5b6105228484848403600061061d565b5b50505050565b600073ffffffffffffffffffffffffffffffffffffffff168373ffffffffffffffffffffffffffffffffffffffff160361059b5760006040517f96c6fd1e0000000000000000000000000000000000000000000000000000000081526004016105929190610da1565b60405180910390fd5b600073ffffffffffffffffffffffffffffffffffffffff168273ffffffffffffffffffffffffffffffffffffffff160361060d5760006040517fec442f050000000000000000000000000000000000000000000000000000000081526004016106049190610da1565b60405180910390fd5b6106188383836107f4565b505050565b600073ffffffffffffffffffffffffffffffffffffffff168473ffffffffffffffffffffffffffffffffffffffff160361068f5760006040517fe602df050000000000000000000000000000000000000000000000000000000081526004016106869190610da1565b60405180910390fd5b600073ffffffffffffffffffffffffffffffffffffffff168373ffffffffffffffffffffffffffffffffffffffff16036107015760006040517f94280d620000000000000000000000000000000000000000000000000000000081526004016106f89190610da1565b60405180910390fd5b81600160008673ffffffffffffffffffffffffffffffffffffffff1673ffffffffffffffffffffffffffffffffffffffff16815260200190815260200160002060008573ffffffffffffffffffffffffffffffffffffffff1673ffffffffffffffffffffffffffffffffffffffff1681526020019081526020016000208190555080156107ee578273ffffffffffffffffffffffffffffffffffffffff168473ffffffffffffffffffffffffffffffffffffffff167f8c5be1e5ebec7d5bd14f71427d1e84f3dd0314c0f7b2291e5b200ac8c7c3b925846040516107e59190610be9565b60405180910390a35b50505050565b600073ffffffffffffffffffffffffffffffffffffffff168373ffffffffffffffffffffffffffffffffffffffff160361084657806002600082825461083a9190610deb565b92505081905550610919565b60008060008573ffffffffffffffffffffffffffffffffffffffff1673ffffffffffffffffffffffffffffffffffffffff168152602001908152602001600020549050818110156108d2578381836040517fe450d38c0000000000000000000000000000000000000000000000000000000081526004016108c993929190610d6a565b60405180910390fd5b8181036000808673ffffffffffffffffffffffffffffffffffffffff1673ffffffffffffffffffffffffffffffffffffffff16815260200190815260200160002081905550505b600073ffffffffffffffffffffffffffffffffffffffff168273ffffffffffffffffffffffffffffffffffffffff160361096257806002600082825403925050819055506109af565b806000808473ffffffffffffffffffffffffffffffffffffffff1673ffffffffffffffffffffffffffffffffffffffff168152602001908152602001600020600082825401925050819055505b8173ffffffffffffffffffffffffffffffffffffffff168373ffffffffffffffffffffffffffffffffffffffff167fddf252ad1be2c89b69c2b068fc378daa952ba7f163c4a11628f55a4df523b3ef83604051610a0c9190610be9565b60405180910390a3505050565b600081519050919050565b600082825260208201905092915050565b60005b83811015610a53578082015181840152602081019050610a38565b60008484015250505050565b6000601f19601f8301169050919050565b6000610a7b82610a19565b610a858185610a24565b9350610a95818560208601610a35565b610a9e81610a5f565b840191505092915050565b60006020820190508181036000830152610ac38184610a70565b905092915050565b600080fd5b600073ffffffffffffffffffffffffffffffffffffffff82169050919050565b6000610afb82610ad0565b9050919050565b610b0b81610af0565b8114610b1657600080fd5b50565b600081359050610b2881610b02565b92915050565b6000819050919050565b610b4181610b2e565b8114610b4c57600080fd5b50565b600081359050610b5e81610b38565b92915050565b60008060408385031215610b7b57610b7a610acb565b5b6000610b8985828601610b19565b9250506020610b9a85828601610b4f565b9150509250929050565b60008115159050919050565b610bb981610ba4565b82525050565b6000602082019050610bd46000830184610bb0565b92915050565b610be381610b2e565b82525050565b6000602082019050610bfe6000830184610bda565b92915050565b600080600060608486031215610c1d57610c1c610acb565b5b6000610c2b86828701610b19565b9350506020610c3c86828701610b19565b9250506040610c4d86828701610b4f565b9150509250925092565b600060ff82169050919050565b610c6d81610c57565b82525050565b6000602082019050610c886000830184610c64565b92915050565b600060208284031215610ca457610ca3610acb565b5b6000610cb284828501610b19565b91505092915050565b60008060408385031215610cd257610cd1610acb565b5b6000610ce085828601610b19565b9250506020610cf185828601610b19565b9150509250929050565b7f4e487b7100000000000000000000000000000000000000000000000000000000600052602260045260246000fd5b60006002820490506001821680610d4257607f821691505b602082108103610d5557610d54610cfb565b5b50919050565b610d6481610af0565b82525050565b6000606082019050610d7f6000830186610d5b565b610d8c6020830185610bda565b610d996040830184610bda565b949350505050565b6000602082019050610db66000830184610d5b565b92915050565b7f4e487b7100000000000000000000000000000000000000000000000000000000600052601160045260246000fd5b6000610df682610b2e565b9150610e0183610b2e565b9250828201905080821115610e1957610e18610dbc565b5b9291505056fea2646970667358221220e2cb2c3e8acdb3cd9402fb9034df25af342731a2348762b44411d15f65157a5964736f6c63430008180033",
  "linkReferences": {},
  "deployedLinkReferences": {}
}