{
  "_format": "hh-sol-artifact-1",
  "contractName": "VideoPlatform",
  "sourceName": "contracts/Vidverse.sol",
  "abi": [
    {
      "inputs": [],
      "stateMutability": "nonpayable",
      "type": "constructor"
    },
    {
      "anonymous": false,
      "inputs": [
        {
          "indexed": false,
          "internalType": "uint256",
          "name": "id",
          "type": "uint256"
        },
        {
          "indexed": false,
          "internalType": "address",
          "name": "owner",
          "type": "address"
        },
        {
          "indexed": false,
          "internalType": "string",
          "name": "stramName",
          "type": "string"
        },
        {
          "indexed": false,
          "internalType": "string",
          "name": "description",
          "type": "string"
        },
        {
          "indexed": false,
          "internalType": "string",
          "name": "playBackId",
          "type": "string"
        },
        {
          "indexed": false,
          "internalType": "bool",
          "name": "status",
          "type": "bool"
        }
      ],
      "name": "CreatedStream",
      "type": "event"
    },
    {
      "anonymous": false,
      "inputs": [
        {
          "indexed": true,
          "internalType": "uint256",
          "name": "id",
          "type": "uint256"
        },
        {
          "indexed": false,
          "internalType": "address",
          "name": "owner",
          "type": "address"
        }
      ],
      "name": "StreamStopped",
      "type": "event"
    },
    {
      "anonymous": false,
      "inputs": [
        {
          "indexed": true,
          "internalType": "uint256",
          "name": "videoId",
          "type": "uint256"
        },
        {
          "indexed": true,
          "internalType": "address",
          "name": "owner",
          "type": "address"
        },
        {
          "indexed": false,
          "internalType": "address",
          "name": "tipper",
          "type": "address"
        },
        {
          "indexed": false,
          "internalType": "uint256",
          "name": "amount",
          "type": "uint256"
        },
        {
          "indexed": false,
          "internalType": "uint256",
          "name": "newTipAmount",
          "type": "uint256"
        }
      ],
      "name": "VideoTipped",
      "type": "event"
    },
    {
      "anonymous": false,
      "inputs": [
        {
          "indexed": false,
          "internalType": "uint256",
          "name": "id",
          "type": "uint256"
        },
        {
          "indexed": false,
          "internalType": "address",
          "name": "owner",
          "type": "address"
        },
        {
          "indexed": false,
          "internalType": "string",
          "name": "title",
          "type": "string"
        },
        {
          "indexed": false,
          "internalType": "string",
          "name": "description",
          "type": "string"
        },
        {
          "indexed": false,
          "internalType": "string",
          "name": "ipfsHash",
          "type": "string"
        },
        {
          "indexed": false,
          "internalType": "uint256",
          "name": "tipAmount",
          "type": "uint256"
        }
      ],
      "name": "VideoUploaded",
      "type": "event"
    },
    {
      "inputs": [
        {
          "internalType": "address",
          "name": "userAddr",
          "type": "address"
        },
        {
          "internalType": "string",
          "name": "_title",
          "type": "string"
        },
        {
          "internalType": "string",
          "name": "_description",
          "type": "string"
        },
        {
          "internalType": "string",
          "name": "_playbackId",
          "type": "string"
        },
        {
          "internalType": "string",
          "name": "streamKey",
          "type": "string"
        },
        {
          "internalType": "string",
          "name": "_streamID",
          "type": "string"
        }
      ],
      "name": "createStream",
      "outputs": [],
      "stateMutability": "nonpayable",
      "type": "function"
    },
    {
      "inputs": [],
      "name": "getAllActiveLiveStreams",
      "outputs": [
        {
          "components": [
            {
              "internalType": "uint256",
              "name": "id",
              "type": "uint256"
            },
            {
              "internalType": "address",
              "name": "owner",
              "type": "address"
            },
            {
              "internalType": "string",
              "name": "stramName",
              "type": "string"
            },
            {
              "internalType": "string",
              "name": "description",
              "type": "string"
            },
            {
              "internalType": "string",
              "name": "playBackId",
              "type": "string"
            },
            {
              "internalType": "uint256",
              "name": "tipAmount",
              "type": "uint256"
            },
            {
              "internalType": "bool",
              "name": "status",
              "type": "bool"
            },
            {
              "internalType": "string",
              "name": "streamKey",
              "type": "string"
            },
            {
              "internalType": "string",
              "name": "streamID",
              "type": "string"
            }
          ],
          "internalType": "struct VideoPlatform.LiveStream[]",
          "name": "",
          "type": "tuple[]"
        }
      ],
      "stateMutability": "view",
      "type": "function"
    },
    {
      "inputs": [
        {
          "internalType": "address",
          "name": "account",
          "type": "address"
        }
      ],
      "name": "getMyActiveLiveStreams",
      "outputs": [
        {
          "components": [
            {
              "internalType": "uint256",
              "name": "id",
              "type": "uint256"
            },
            {
              "internalType": "address",
              "name": "owner",
              "type": "address"
            },
            {
              "internalType": "string",
              "name": "stramName",
              "type": "string"
            },
            {
              "internalType": "string",
              "name": "description",
              "type": "string"
            },
            {
              "internalType": "string",
              "name": "playBackId",
              "type": "string"
            },
            {
              "internalType": "uint256",
              "name": "tipAmount",
              "type": "uint256"
            },
            {
              "internalType": "bool",
              "name": "status",
              "type": "bool"
            },
            {
              "internalType": "string",
              "name": "streamKey",
              "type": "string"
            },
            {
              "internalType": "string",
              "name": "streamID",
              "type": "string"
            }
          ],
          "internalType": "struct VideoPlatform.LiveStream[]",
          "name": "",
          "type": "tuple[]"
        }
      ],
      "stateMutability": "view",
      "type": "function"
    },
    {
      "inputs": [
        {
          "internalType": "uint256",
          "name": "",
          "type": "uint256"
        }
      ],
      "name": "liveStreams",
      "outputs": [
        {
          "internalType": "uint256",
          "name": "id",
          "type": "uint256"
        },
        {
          "internalType": "address",
          "name": "owner",
          "type": "address"
        },
        {
          "internalType": "string",
          "name": "stramName",
          "type": "string"
        },
        {
          "internalType": "string",
          "name": "description",
          "type": "string"
        },
        {
          "internalType": "string",
          "name": "playBackId",
          "type": "string"
        },
        {
          "internalType": "uint256",
          "name": "tipAmount",
          "type": "uint256"
        },
        {
          "internalType": "bool",
          "name": "status",
          "type": "bool"
        },
        {
          "internalType": "string",
          "name": "streamKey",
          "type": "string"
        },
        {
          "internalType": "string",
          "name": "streamID",
          "type": "string"
        }
      ],
      "stateMutability": "view",
      "type": "function"
    },
    {
      "inputs": [],
      "name": "myToken",
      "outputs": [
        {
          "internalType": "contract ERC20",
          "name": "",
          "type": "address"
        }
      ],
      "stateMutability": "view",
      "type": "function"
    },
    {
      "inputs": [
        {
          "internalType": "address",
          "name": "useAddress",
          "type": "address"
        },
        {
          "internalType": "string",
          "name": "_streamID",
          "type": "string"
        }
      ],
      "name": "stopStreamByStreamID",
      "outputs": [],
      "stateMutability": "nonpayable",
      "type": "function"
    },
    {
      "inputs": [
        {
          "internalType": "address",
          "name": "useAddre",
          "type": "address"
        },
        {
          "internalType": "uint256",
          "name": "_streamId",
          "type": "uint256"
        },
        {
          "internalType": "uint256",
          "name": "_amount",
          "type": "uint256"
        }
      ],
      "name": "tipStreamOwner",
      "outputs": [],
      "stateMutability": "payable",
      "type": "function"
    },
    {
      "inputs": [
        {
          "internalType": "address",
          "name": "userAddre",
          "type": "address"
        },
        {
          "internalType": "uint256",
          "name": "_videoId",
          "type": "uint256"
        },
        {
          "internalType": "uint256",
          "name": "_amount",
          "type": "uint256"
        }
      ],
      "name": "tipVideoOwner",
      "outputs": [],
      "stateMutability": "payable",
      "type": "function"
    },
    {
      "inputs": [
        {
          "internalType": "address",
          "name": "userAddr",
          "type": "address"
        },
        {
          "internalType": "string",
          "name": "_title",
          "type": "string"
        },
        {
          "internalType": "string",
          "name": "_description",
          "type": "string"
        },
        {
          "internalType": "string",
          "name": "_ipfsHash",
          "type": "string"
        }
      ],
      "name": "uploadVideo",
      "outputs": [],
      "stateMutability": "nonpayable",
      "type": "function"
    },
    {
      "inputs": [
        {
          "internalType": "uint256",
          "name": "",
          "type": "uint256"
        }
      ],
      "name": "videos",
      "outputs": [
        {
          "internalType": "uint256",
          "name": "id",
          "type": "uint256"
        },
        {
          "internalType": "address",
          "name": "owner",
          "type": "address"
        },
        {
          "internalType": "string",
          "name": "title",
          "type": "string"
        },
        {
          "internalType": "string",
          "name": "description",
          "type": "string"
        },
        {
          "internalType": "string",
          "name": "ipfsHash",
          "type": "string"
        },
        {
          "internalType": "uint256",
          "name": "tipAmount",
          "type": "uint256"
        }
      ],
      "stateMutability": "view",
      "type": "function"
    }
  ],
  "bytecode": "0x60806040523480156200001157600080fd5b50600060405162000022906200008a565b604051809103906000f0801580156200003f573d6000803e3d6000fd5b50905080600260006101000a81548173ffffffffffffffffffffffffffffffffffffffff021916908373ffffffffffffffffffffffffffffffffffffffff1602179055505062000098565b6116828062003dc283390190565b613d1a80620000a86000396000f3fe6080604052600436106100915760003560e01c8063a97d33b311610059578063a97d33b314610167578063b8fcf93714610190578063db4f0e1a146101bb578063e2fc2726146101e4578063e6821bf51461022157610091565b80630b64dab414610096578063295c83cc146100b25780632b074830146100dd5780632cc9d4ab146101225780635b3c8d031461013e575b600080fd5b6100b060048036038101906100ab919061250e565b610263565b005b3480156100be57600080fd5b506100c761068b565b6040516100d491906127cd565b60405180910390f35b3480156100e957600080fd5b5061010460048036038101906100ff91906127ef565b610b65565b60405161011999989796959493929190612893565b60405180910390f35b61013c6004803603810190610137919061250e565b610e98565b005b34801561014a57600080fd5b5061016560048036038101906101609190612a78565b6113b0565b005b34801561017357600080fd5b5061018e60048036038101906101899190612b33565b611692565b005b34801561019c57600080fd5b506101a56118c4565b6040516101b29190612bee565b60405180910390f35b3480156101c757600080fd5b506101e260048036038101906101dd9190612c09565b6118ea565b005b3480156101f057600080fd5b5061020b60048036038101906102069190612d22565b611c2a565b60405161021891906127cd565b60405180910390f35b34801561022d57600080fd5b50610248600480360381019061024391906127ef565b6121fe565b60405161025a96959493929190612d4f565b60405180910390f35b60018054905082106102aa576040517f08c379a00000000000000000000000000000000000000000000000000000000081526004016102a190612e11565b60405180910390fd5b600081116102ed576040517f08c379a00000000000000000000000000000000000000000000000000000000081526004016102e490612e7d565b60405180910390fd5b60006001838154811061030357610302612e9d565b5b90600052602060002090600902019050600073ffffffffffffffffffffffffffffffffffffffff168160010160009054906101000a900473ffffffffffffffffffffffffffffffffffffffff1673ffffffffffffffffffffffffffffffffffffffff16036103a6576040517f08c379a000000000000000000000000000000000000000000000000000000000815260040161039d90612f18565b60405180910390fd5b81600260009054906101000a900473ffffffffffffffffffffffffffffffffffffffff1673ffffffffffffffffffffffffffffffffffffffff1663dd62ed3e86306040518363ffffffff1660e01b8152600401610404929190612f38565b602060405180830381865afa158015610421573d6000803e3d6000fd5b505050506040513d601f19601f820116820180604052508101906104459190612f76565b1015610486576040517f08c379a000000000000000000000000000000000000000000000000000000000815260040161047d90612fef565b60405180910390fd5b600260009054906101000a900473ffffffffffffffffffffffffffffffffffffffff1673ffffffffffffffffffffffffffffffffffffffff166323b872dd8530856040518463ffffffff1660e01b81526004016104e59392919061300f565b6020604051808303816000875af1158015610504573d6000803e3d6000fd5b505050506040513d601f19601f820116820180604052508101906105289190613072565b610567576040517f08c379a000000000000000000000000000000000000000000000000000000000815260040161055e90613111565b60405180910390fd5b600260009054906101000a900473ffffffffffffffffffffffffffffffffffffffff1673ffffffffffffffffffffffffffffffffffffffff1663a9059cbb8260010160009054906101000a900473ffffffffffffffffffffffffffffffffffffffff16846040518363ffffffff1660e01b81526004016105e8929190613131565b6020604051808303816000875af1158015610607573d6000803e3d6000fd5b505050506040513d601f19601f8201168201806040525081019061062b9190613072565b61066a576040517f08c379a0000000000000000000000000000000000000000000000000000000008152600401610661906131cc565b60405180910390fd5b8181600501600082825461067e919061321b565b9250508190555050505050565b60606000805b6001805490508110156106f257600181815481106106b2576106b1612e9d565b5b906000526020600020906009020160060160009054906101000a900460ff16156106e55781806106e19061324f565b9250505b8080600101915050610691565b5060008167ffffffffffffffff81111561070f5761070e61294d565b5b60405190808252806020026020018201604052801561074857816020015b610735612402565b81526020019060019003908161072d5790505b5090506000805b600180549050811015610b5b57600181815481106107705761076f612e9d565b5b906000526020600020906009020160060160009054906101000a900460ff1615610b4e57600181815481106107a8576107a7612e9d565b5b906000526020600020906009020160405180610120016040529081600082015481526020016001820160009054906101000a900473ffffffffffffffffffffffffffffffffffffffff1673ffffffffffffffffffffffffffffffffffffffff1673ffffffffffffffffffffffffffffffffffffffff168152602001600282018054610832906132c6565b80601f016020809104026020016040519081016040528092919081815260200182805461085e906132c6565b80156108ab5780601f10610880576101008083540402835291602001916108ab565b820191906000526020600020905b81548152906001019060200180831161088e57829003601f168201915b505050505081526020016003820180546108c4906132c6565b80601f01602080910402602001604051908101604052809291908181526020018280546108f0906132c6565b801561093d5780601f106109125761010080835404028352916020019161093d565b820191906000526020600020905b81548152906001019060200180831161092057829003601f168201915b50505050508152602001600482018054610956906132c6565b80601f0160208091040260200160405190810160405280929190818152602001828054610982906132c6565b80156109cf5780601f106109a4576101008083540402835291602001916109cf565b820191906000526020600020905b8154815290600101906020018083116109b257829003601f168201915b50505050508152602001600582015481526020016006820160009054906101000a900460ff16151515158152602001600782018054610a0d906132c6565b80601f0160208091040260200160405190810160405280929190818152602001828054610a39906132c6565b8015610a865780601f10610a5b57610100808354040283529160200191610a86565b820191906000526020600020905b815481529060010190602001808311610a6957829003601f168201915b50505050508152602001600882018054610a9f906132c6565b80601f0160208091040260200160405190810160405280929190818152602001828054610acb906132c6565b8015610b185780601f10610aed57610100808354040283529160200191610b18565b820191906000526020600020905b815481529060010190602001808311610afb57829003601f168201915b505050505081525050838381518110610b3457610b33612e9d565b5b60200260200101819052508180610b4a9061324f565b9250505b808060010191505061074f565b5081935050505090565b60018181548110610b7557600080fd5b90600052602060002090600902016000915090508060000154908060010160009054906101000a900473ffffffffffffffffffffffffffffffffffffffff1690806002018054610bc4906132c6565b80601f0160208091040260200160405190810160405280929190818152602001828054610bf0906132c6565b8015610c3d5780601f10610c1257610100808354040283529160200191610c3d565b820191906000526020600020905b815481529060010190602001808311610c2057829003601f168201915b505050505090806003018054610c52906132c6565b80601f0160208091040260200160405190810160405280929190818152602001828054610c7e906132c6565b8015610ccb5780601f10610ca057610100808354040283529160200191610ccb565b820191906000526020600020905b815481529060010190602001808311610cae57829003601f168201915b505050505090806004018054610ce0906132c6565b80601f0160208091040260200160405190810160405280929190818152602001828054610d0c906132c6565b8015610d595780601f10610d2e57610100808354040283529160200191610d59565b820191906000526020600020905b815481529060010190602001808311610d3c57829003601f168201915b5050505050908060050154908060060160009054906101000a900460ff1690806007018054610d87906132c6565b80601f0160208091040260200160405190810160405280929190818152602001828054610db3906132c6565b8015610e005780601f10610dd557610100808354040283529160200191610e00565b820191906000526020600020905b815481529060010190602001808311610de357829003601f168201915b505050505090806008018054610e15906132c6565b80601f0160208091040260200160405190810160405280929190818152602001828054610e41906132c6565b8015610e8e5780601f10610e6357610100808354040283529160200191610e8e565b820191906000526020600020905b815481529060010190602001808311610e7157829003601f168201915b5050505050905089565b6000805490508210610edf576040517f08c379a0000000000000000000000000000000000000000000000000000000008152600401610ed690613343565b60405180910390fd5b60008111610f22576040517f08c379a0000000000000000000000000000000000000000000000000000000008152600401610f1990612e7d565b60405180910390fd5b6000808381548110610f3757610f36612e9d565b5b90600052602060002090600602019050600073ffffffffffffffffffffffffffffffffffffffff168160010160009054906101000a900473ffffffffffffffffffffffffffffffffffffffff1673ffffffffffffffffffffffffffffffffffffffff1603610fda576040517f08c379a0000000000000000000000000000000000000000000000000000000008152600401610fd1906133af565b60405180910390fd5b81600260009054906101000a900473ffffffffffffffffffffffffffffffffffffffff1673ffffffffffffffffffffffffffffffffffffffff1663dd62ed3e86306040518363ffffffff1660e01b8152600401611038929190612f38565b602060405180830381865afa158015611055573d6000803e3d6000fd5b505050506040513d601f19601f820116820180604052508101906110799190612f76565b10156110ba576040517f08c379a00000000000000000000000000000000000000000000000000000000081526004016110b190612fef565b60405180910390fd5b600260009054906101000a900473ffffffffffffffffffffffffffffffffffffffff1673ffffffffffffffffffffffffffffffffffffffff166323b872dd8530856040518463ffffffff1660e01b81526004016111199392919061300f565b6020604051808303816000875af1158015611138573d6000803e3d6000fd5b505050506040513d601f19601f8201168201806040525081019061115c9190613072565b61119b576040517f08c379a000000000000000000000000000000000000000000000000000000000815260040161119290613111565b60405180910390fd5b600260009054906101000a900473ffffffffffffffffffffffffffffffffffffffff1673ffffffffffffffffffffffffffffffffffffffff1663a9059cbb8260010160009054906101000a900473ffffffffffffffffffffffffffffffffffffffff16846040518363ffffffff1660e01b815260040161121c929190613131565b6020604051808303816000875af115801561123b573d6000803e3d6000fd5b505050506040513d601f19601f8201168201806040525081019061125f9190613072565b61129e576040517f08c379a000000000000000000000000000000000000000000000000000000000815260040161129590613441565b60405180910390fd5b818160050160008282546112b2919061321b565b925050819055507f6342a33babd39e3fbc90d4a1c137f4331cc4ca4ac910e24a0996d399e444a73181600001548260010160009054906101000a900473ffffffffffffffffffffffffffffffffffffffff168360020184600301856004018660050154604051611327969594939291906134fa565b60405180910390a18060010160009054906101000a900473ffffffffffffffffffffffffffffffffffffffff1673ffffffffffffffffffffffffffffffffffffffff16837f43f28d6f7c3838abd6cbdf493a5c63550740efc8071f5d0bc5b38769455414db868585600501546040516113a293929190613570565b60405180910390a350505050565b60005b60008054905081101561147f57816040516020016113d191906135e3565b60405160208183030381529060405280519060200120600082815481106113fb576113fa612e9d565b5b906000526020600020906006020160040160405160200161141c919061367d565b6040516020818303038152906040528051906020012003611472576040517f08c379a000000000000000000000000000000000000000000000000000000000815260040161146990613706565b60405180910390fd5b80806001019150506113b3565b5060008080549050905060006040518060c001604052808381526020018773ffffffffffffffffffffffffffffffffffffffff168152602001868152602001858152602001848152602001600081525090806001815401808255809150506001900390600052602060002090600602016000909190919091506000820151816000015560208201518160010160006101000a81548173ffffffffffffffffffffffffffffffffffffffff021916908373ffffffffffffffffffffffffffffffffffffffff160217905550604082015181600201908161155e91906138b3565b50606082015181600301908161157491906138b3565b50608082015181600401908161158a91906138b3565b5060a082015181600501555050600260009054906101000a900473ffffffffffffffffffffffffffffffffffffffff1673ffffffffffffffffffffffffffffffffffffffff1663a9059cbb8668056bc75e2d631000006040518363ffffffff1660e01b81526004016115fd9291906139c0565b6020604051808303816000875af115801561161c573d6000803e3d6000fd5b505050506040513d601f19601f820116820180604052508101906116409190613072565b507f6342a33babd39e3fbc90d4a1c137f4331cc4ca4ac910e24a0996d399e444a731818686868668056bc75e2d63100000604051611683969594939291906139e9565b60405180910390a15050505050565b6000805b60018054905081101561187e57826040516020016116b491906135e3565b60405160208183030381529060405280519060200120600182815481106116de576116dd612e9d565b5b90600052602060002090600902016008016040516020016116ff919061367d565b6040516020818303038152906040528051906020012003611871576001818154811061172e5761172d612e9d565b5b906000526020600020906009020160010160009054906101000a900473ffffffffffffffffffffffffffffffffffffffff1673ffffffffffffffffffffffffffffffffffffffff168473ffffffffffffffffffffffffffffffffffffffff16146117cd576040517f08c379a00000000000000000000000000000000000000000000000000000000081526004016117c490613aab565b60405180910390fd5b6000600182815481106117e3576117e2612e9d565b5b906000526020600020906009020160060160006101000a81548160ff0219169083151502179055506001818154811061181f5761181e612e9d565b5b9060005260206000209060090201600001547fd95eebb8ae85b521a4f98aff3b92d8cd7ecf3f002024835c0e9716cf2bdea208856040516118609190613acb565b60405180910390a26001915061187e565b8080600101915050611696565b50806118bf576040517f08c379a00000000000000000000000000000000000000000000000000000000081526004016118b690613b7e565b60405180910390fd5b505050565b600260009054906101000a900473ffffffffffffffffffffffffffffffffffffffff1681565b60005b6001805490508110156119b9578360405160200161190b91906135e3565b604051602081830303815290604052805190602001206001828154811061193557611934612e9d565b5b9060005260206000209060090201600401604051602001611956919061367d565b60405160208183030381529060405280519060200120036119ac576040517f08c379a00000000000000000000000000000000000000000000000000000000081526004016119a390613bea565b60405180910390fd5b80806001019150506118ed565b506000600180549050905060016040518061012001604052808381526020018973ffffffffffffffffffffffffffffffffffffffff168152602001888152602001878152602001868152602001600081526020016001151581526020018581526020018481525090806001815401808255809150506001900390600052602060002090600902016000909190919091506000820151816000015560208201518160010160006101000a81548173ffffffffffffffffffffffffffffffffffffffff021916908373ffffffffffffffffffffffffffffffffffffffff1602179055506040820151816002019081611aaf91906138b3565b506060820151816003019081611ac591906138b3565b506080820151816004019081611adb91906138b3565b5060a0820151816005015560c08201518160060160006101000a81548160ff02191690831515021790555060e0820151816007019081611b1b91906138b3565b50610100820151816008019081611b3291906138b3565b505050600260009054906101000a900473ffffffffffffffffffffffffffffffffffffffff1673ffffffffffffffffffffffffffffffffffffffff1663a9059cbb88683635c9adc5dea000006040518363ffffffff1660e01b8152600401611b9b929190613c45565b6020604051808303816000875af1158015611bba573d6000803e3d6000fd5b505050506040513d601f19601f82011682018060405250810190611bde9190613072565b507fed33210582150bc2dd8073dfe015bb10c34e807d1cc4d609857c3b2fe1fb1bfb81888888886001604051611c1996959493929190613c6e565b60405180910390a150505050505050565b60606000805b600180549050811015611d0d5760018181548110611c5157611c50612e9d565b5b906000526020600020906009020160060160009054906101000a900460ff168015611cec57508373ffffffffffffffffffffffffffffffffffffffff1660018281548110611ca257611ca1612e9d565b5b906000526020600020906009020160010160009054906101000a900473ffffffffffffffffffffffffffffffffffffffff1673ffffffffffffffffffffffffffffffffffffffff16145b15611d00578180611cfc9061324f565b9250505b8080600101915050611c30565b5060008167ffffffffffffffff811115611d2a57611d2961294d565b5b604051908082528060200260200182016040528015611d6357816020015b611d50612402565b815260200190600190039081611d485790505b5090506000805b6001805490508110156121f25760018181548110611d8b57611d8a612e9d565b5b906000526020600020906009020160060160009054906101000a900460ff168015611e2657508573ffffffffffffffffffffffffffffffffffffffff1660018281548110611ddc57611ddb612e9d565b5b906000526020600020906009020160010160009054906101000a900473ffffffffffffffffffffffffffffffffffffffff1673ffffffffffffffffffffffffffffffffffffffff16145b156121e55760018181548110611e3f57611e3e612e9d565b5b906000526020600020906009020160405180610120016040529081600082015481526020016001820160009054906101000a900473ffffffffffffffffffffffffffffffffffffffff1673ffffffffffffffffffffffffffffffffffffffff1673ffffffffffffffffffffffffffffffffffffffff168152602001600282018054611ec9906132c6565b80601f0160208091040260200160405190810160405280929190818152602001828054611ef5906132c6565b8015611f425780601f10611f1757610100808354040283529160200191611f42565b820191906000526020600020905b815481529060010190602001808311611f2557829003601f168201915b50505050508152602001600382018054611f5b906132c6565b80601f0160208091040260200160405190810160405280929190818152602001828054611f87906132c6565b8015611fd45780601f10611fa957610100808354040283529160200191611fd4565b820191906000526020600020905b815481529060010190602001808311611fb757829003601f168201915b50505050508152602001600482018054611fed906132c6565b80601f0160208091040260200160405190810160405280929190818152602001828054612019906132c6565b80156120665780601f1061203b57610100808354040283529160200191612066565b820191906000526020600020905b81548152906001019060200180831161204957829003601f168201915b50505050508152602001600582015481526020016006820160009054906101000a900460ff161515151581526020016007820180546120a4906132c6565b80601f01602080910402602001604051908101604052809291908181526020018280546120d0906132c6565b801561211d5780601f106120f25761010080835404028352916020019161211d565b820191906000526020600020905b81548152906001019060200180831161210057829003601f168201915b50505050508152602001600882018054612136906132c6565b80601f0160208091040260200160405190810160405280929190818152602001828054612162906132c6565b80156121af5780601f10612184576101008083540402835291602001916121af565b820191906000526020600020905b81548152906001019060200180831161219257829003601f168201915b5050505050815250508383815181106121cb576121ca612e9d565b5b602002602001018190525081806121e19061324f565b9250505b8080600101915050611d6a565b50819350505050919050565b6000818154811061220e57600080fd5b90600052602060002090600602016000915090508060000154908060010160009054906101000a900473ffffffffffffffffffffffffffffffffffffffff169080600201805461225d906132c6565b80601f0160208091040260200160405190810160405280929190818152602001828054612289906132c6565b80156122d65780601f106122ab576101008083540402835291602001916122d6565b820191906000526020600020905b8154815290600101906020018083116122b957829003601f168201915b5050505050908060030180546122eb906132c6565b80601f0160208091040260200160405190810160405280929190818152602001828054612317906132c6565b80156123645780601f1061233957610100808354040283529160200191612364565b820191906000526020600020905b81548152906001019060200180831161234757829003601f168201915b505050505090806004018054612379906132c6565b80601f01602080910402602001604051908101604052809291908181526020018280546123a5906132c6565b80156123f25780601f106123c7576101008083540402835291602001916123f2565b820191906000526020600020905b8154815290600101906020018083116123d557829003601f168201915b5050505050908060050154905086565b60405180610120016040528060008152602001600073ffffffffffffffffffffffffffffffffffffffff1681526020016060815260200160608152602001606081526020016000815260200160001515815260200160608152602001606081525090565b6000604051905090565b600080fd5b600080fd5b600073ffffffffffffffffffffffffffffffffffffffff82169050919050565b60006124a58261247a565b9050919050565b6124b58161249a565b81146124c057600080fd5b50565b6000813590506124d2816124ac565b92915050565b6000819050919050565b6124eb816124d8565b81146124f657600080fd5b50565b600081359050612508816124e2565b92915050565b60008060006060848603121561252757612526612470565b5b6000612535868287016124c3565b9350506020612546868287016124f9565b9250506040612557868287016124f9565b9150509250925092565b600081519050919050565b600082825260208201905092915050565b6000819050602082019050919050565b612596816124d8565b82525050565b6125a58161249a565b82525050565b600081519050919050565b600082825260208201905092915050565b60005b838110156125e55780820151818401526020810190506125ca565b60008484015250505050565b6000601f19601f8301169050919050565b600061260d826125ab565b61261781856125b6565b93506126278185602086016125c7565b612630816125f1565b840191505092915050565b60008115159050919050565b6126508161263b565b82525050565b60006101208301600083015161266f600086018261258d565b506020830151612682602086018261259c565b506040830151848203604086015261269a8282612602565b915050606083015184820360608601526126b48282612602565b915050608083015184820360808601526126ce8282612602565b91505060a08301516126e360a086018261258d565b5060c08301516126f660c0860182612647565b5060e083015184820360e086015261270e8282612602565b91505061010083015184820361010086015261272a8282612602565b9150508091505092915050565b60006127438383612656565b905092915050565b6000602082019050919050565b600061276382612561565b61276d818561256c565b93508360208202850161277f8561257d565b8060005b858110156127bb578484038952815161279c8582612737565b94506127a78361274b565b925060208a01995050600181019050612783565b50829750879550505050505092915050565b600060208201905081810360008301526127e78184612758565b905092915050565b60006020828403121561280557612804612470565b5b6000612813848285016124f9565b91505092915050565b612825816124d8565b82525050565b6128348161249a565b82525050565b600082825260208201905092915050565b6000612856826125ab565b612860818561283a565b93506128708185602086016125c7565b612879816125f1565b840191505092915050565b61288d8161263b565b82525050565b6000610120820190506128a9600083018c61281c565b6128b6602083018b61282b565b81810360408301526128c8818a61284b565b905081810360608301526128dc818961284b565b905081810360808301526128f0818861284b565b90506128ff60a083018761281c565b61290c60c0830186612884565b81810360e083015261291e818561284b565b9050818103610100830152612933818461284b565b90509a9950505050505050505050565b600080fd5b600080fd5b7f4e487b7100000000000000000000000000000000000000000000000000000000600052604160045260246000fd5b612985826125f1565b810181811067ffffffffffffffff821117156129a4576129a361294d565b5b80604052505050565b60006129b7612466565b90506129c3828261297c565b919050565b600067ffffffffffffffff8211156129e3576129e261294d565b5b6129ec826125f1565b9050602081019050919050565b82818337600083830152505050565b6000612a1b612a16846129c8565b6129ad565b905082815260208101848484011115612a3757612a36612948565b5b612a428482856129f9565b509392505050565b600082601f830112612a5f57612a5e612943565b5b8135612a6f848260208601612a08565b91505092915050565b60008060008060808587031215612a9257612a91612470565b5b6000612aa0878288016124c3565b945050602085013567ffffffffffffffff811115612ac157612ac0612475565b5b612acd87828801612a4a565b935050604085013567ffffffffffffffff811115612aee57612aed612475565b5b612afa87828801612a4a565b925050606085013567ffffffffffffffff811115612b1b57612b1a612475565b5b612b2787828801612a4a565b91505092959194509250565b60008060408385031215612b4a57612b49612470565b5b6000612b58858286016124c3565b925050602083013567ffffffffffffffff811115612b7957612b78612475565b5b612b8585828601612a4a565b9150509250929050565b6000819050919050565b6000612bb4612baf612baa8461247a565b612b8f565b61247a565b9050919050565b6000612bc682612b99565b9050919050565b6000612bd882612bbb565b9050919050565b612be881612bcd565b82525050565b6000602082019050612c036000830184612bdf565b92915050565b60008060008060008060c08789031215612c2657612c25612470565b5b6000612c3489828a016124c3565b965050602087013567ffffffffffffffff811115612c5557612c54612475565b5b612c6189828a01612a4a565b955050604087013567ffffffffffffffff811115612c8257612c81612475565b5b612c8e89828a01612a4a565b945050606087013567ffffffffffffffff811115612caf57612cae612475565b5b612cbb89828a01612a4a565b935050608087013567ffffffffffffffff811115612cdc57612cdb612475565b5b612ce889828a01612a4a565b92505060a087013567ffffffffffffffff811115612d0957612d08612475565b5b612d1589828a01612a4a565b9150509295509295509295565b600060208284031215612d3857612d37612470565b5b6000612d46848285016124c3565b91505092915050565b600060c082019050612d64600083018961281c565b612d71602083018861282b565b8181036040830152612d83818761284b565b90508181036060830152612d97818661284b565b90508181036080830152612dab818561284b565b9050612dba60a083018461281c565b979650505050505050565b7f496e76616c69642053747265616d204944000000000000000000000000000000600082015250565b6000612dfb60118361283a565b9150612e0682612dc5565b602082019050919050565b60006020820190508181036000830152612e2a81612dee565b9050919050565b7f416d6f756e74206d7573742062652067726561746572207468616e2030000000600082015250565b6000612e67601d8361283a565b9150612e7282612e31565b602082019050919050565b60006020820190508181036000830152612e9681612e5a565b9050919050565b7f4e487b7100000000000000000000000000000000000000000000000000000000600052603260045260246000fd5b7f53747265616d206e6f7420666f756e6400000000000000000000000000000000600082015250565b6000612f0260108361283a565b9150612f0d82612ecc565b602082019050919050565b60006020820190508181036000830152612f3181612ef5565b9050919050565b6000604082019050612f4d600083018561282b565b612f5a602083018461282b565b9392505050565b600081519050612f70816124e2565b92915050565b600060208284031215612f8c57612f8b612470565b5b6000612f9a84828501612f61565b91505092915050565b7f496e73756666696369656e7420616c6c6f77616e636500000000000000000000600082015250565b6000612fd960168361283a565b9150612fe482612fa3565b602082019050919050565b6000602082019050818103600083015261300881612fcc565b9050919050565b6000606082019050613024600083018661282b565b613031602083018561282b565b61303e604083018461281c565b949350505050565b61304f8161263b565b811461305a57600080fd5b50565b60008151905061306c81613046565b92915050565b60006020828403121561308857613087612470565b5b60006130968482850161305d565b91505092915050565b7f4661696c20746f207472616e7366657220746f6b656e20696e2061646472657360008201527f7300000000000000000000000000000000000000000000000000000000000000602082015250565b60006130fb60218361283a565b91506131068261309f565b604082019050919050565b6000602082019050818103600083015261312a816130ee565b9050919050565b6000604082019050613146600083018561282b565b613153602083018461281c565b9392505050565b7f4661696c20746f207472616e7366657220746f6b656e20746f2073747265616d60008201527f206f776e65720000000000000000000000000000000000000000000000000000602082015250565b60006131b660268361283a565b91506131c18261315a565b604082019050919050565b600060208201905081810360008301526131e5816131a9565b9050919050565b7f4e487b7100000000000000000000000000000000000000000000000000000000600052601160045260246000fd5b6000613226826124d8565b9150613231836124d8565b9250828201905080821115613249576132486131ec565b5b92915050565b600061325a826124d8565b91507fffffffffffffffffffffffffffffffffffffffffffffffffffffffffffffffff820361328c5761328b6131ec565b5b600182019050919050565b7f4e487b7100000000000000000000000000000000000000000000000000000000600052602260045260246000fd5b600060028204905060018216806132de57607f821691505b6020821081036132f1576132f0613297565b5b50919050565b7f496e76616c696420766964656f20494400000000000000000000000000000000600082015250565b600061332d60108361283a565b9150613338826132f7565b602082019050919050565b6000602082019050818103600083015261335c81613320565b9050919050565b7f566964656f206e6f7420666f756e640000000000000000000000000000000000600082015250565b6000613399600f8361283a565b91506133a482613363565b602082019050919050565b600060208201905081810360008301526133c88161338c565b9050919050565b7f4661696c20746f207472616e7366657220746f6b656e20746f20766964656f7360008201527f206f776e65720000000000000000000000000000000000000000000000000000602082015250565b600061342b60268361283a565b9150613436826133cf565b604082019050919050565b6000602082019050818103600083015261345a8161341e565b9050919050565b60008190508160005260206000209050919050565b60008154613483816132c6565b61348d818661283a565b945060018216600081146134a857600181146134be576134f1565b60ff1983168652811515602002860193506134f1565b6134c785613461565b60005b838110156134e9578154818901526001820191506020810190506134ca565b808801955050505b50505092915050565b600060c08201905061350f600083018961281c565b61351c602083018861282b565b818103604083015261352e8187613476565b905081810360608301526135428186613476565b905081810360808301526135568185613476565b905061356560a083018461281c565b979650505050505050565b6000606082019050613585600083018661282b565b613592602083018561281c565b61359f604083018461281c565b949350505050565b600081905092915050565b60006135bd826125ab565b6135c781856135a7565b93506135d78185602086016125c7565b80840191505092915050565b60006135ef82846135b2565b915081905092915050565b60008154613607816132c6565b61361181866135a7565b9450600182166000811461362c576001811461364157613674565b60ff1983168652811515820286019350613674565b61364a85613461565b60005b8381101561366c5781548189015260018201915060208101905061364d565b838801955050505b50505092915050565b600061368982846135fa565b915081905092915050565b7f566964656f2077697468207468652073616d652049504653206861736820616c60008201527f7265616479206578697374730000000000000000000000000000000000000000602082015250565b60006136f0602c8361283a565b91506136fb82613694565b604082019050919050565b6000602082019050818103600083015261371f816136e3565b9050919050565b60006020601f8301049050919050565b600082821b905092915050565b6000600883026137737fffffffffffffffffffffffffffffffffffffffffffffffffffffffffffffffff82613736565b61377d8683613736565b95508019841693508086168417925050509392505050565b60006137b06137ab6137a6846124d8565b612b8f565b6124d8565b9050919050565b6000819050919050565b6137ca83613795565b6137de6137d6826137b7565b848454613743565b825550505050565b600090565b6137f36137e6565b6137fe8184846137c1565b505050565b5b81811015613822576138176000826137eb565b600181019050613804565b5050565b601f8211156138675761383881613461565b61384184613726565b81016020851015613850578190505b61386461385c85613726565b830182613803565b50505b505050565b600082821c905092915050565b600061388a6000198460080261386c565b1980831691505092915050565b60006138a38383613879565b9150826002028217905092915050565b6138bc826125ab565b67ffffffffffffffff8111156138d5576138d461294d565b5b6138df82546132c6565b6138ea828285613826565b600060209050601f83116001811461391d576000841561390b578287015190505b6139158582613897565b86555061397d565b601f19841661392b86613461565b60005b828110156139535784890151825560018201915060208501945060208101905061392e565b86831015613970578489015161396c601f891682613879565b8355505b6001600288020188555050505b505050505050565b6000819050919050565b60006139aa6139a56139a084613985565b612b8f565b6124d8565b9050919050565b6139ba8161398f565b82525050565b60006040820190506139d5600083018561282b565b6139e260208301846139b1565b9392505050565b600060c0820190506139fe600083018961281c565b613a0b602083018861282b565b8181036040830152613a1d818761284b565b90508181036060830152613a31818661284b565b90508181036080830152613a45818561284b565b9050613a5460a08301846139b1565b979650505050505050565b7f43616c6c6572206973206e6f74207468652073747265616d206f776e65720000600082015250565b6000613a95601e8361283a565b9150613aa082613a5f565b602082019050919050565b60006020820190508181036000830152613ac481613a88565b9050919050565b6000602082019050613ae0600083018461282b565b92915050565b7f53747265616d20776974682074686520676976656e20494420646f6573206e6f60008201527f74206578697374206f722068617320616c7265616479206265656e2073746f7060208201527f7065642e00000000000000000000000000000000000000000000000000000000604082015250565b6000613b6860448361283a565b9150613b7382613ae6565b606082019050919050565b60006020820190508181036000830152613b9781613b5b565b9050919050565b7f4c69766553747265616d20616c72656164792065786973747300000000000000600082015250565b6000613bd460198361283a565b9150613bdf82613b9e565b602082019050919050565b60006020820190508181036000830152613c0381613bc7565b9050919050565b6000819050919050565b6000613c2f613c2a613c2584613c0a565b612b8f565b6124d8565b9050919050565b613c3f81613c14565b82525050565b6000604082019050613c5a600083018561282b565b613c676020830184613c36565b9392505050565b600060c082019050613c83600083018961281c565b613c90602083018861282b565b8181036040830152613ca2818761284b565b90508181036060830152613cb6818661284b565b90508181036080830152613cca818561284b565b9050613cd960a0830184612884565b97965050505050505056fea264697066735822122099a776f6fcea845e864e97a7526473f4f45893782233794ec4f1811b9b2c159764736f6c6343000818003360806040523480156200001157600080fd5b506040518060400160405280600881526020017f566964546f6b656e0000000000000000000000000000000000000000000000008152506040518060400160405280600381526020017f4e5654000000000000000000000000000000000000000000000000000000000081525081600390816200008f9190620005ff565b508060049081620000a19190620005ff565b505050620000c2336b033b2e3c9fd0803ce8000000620000c860201b60201c565b6200081d565b600073ffffffffffffffffffffffffffffffffffffffff168273ffffffffffffffffffffffffffffffffffffffff16036200013d5760006040517fec442f050000000000000000000000000000000000000000000000000000000081526004016200013491906200072b565b60405180910390fd5b62000151600083836200015560201b60201c565b5050565b600073ffffffffffffffffffffffffffffffffffffffff168373ffffffffffffffffffffffffffffffffffffffff1603620001ab5780600260008282546200019e919062000777565b9250508190555062000281565b60008060008573ffffffffffffffffffffffffffffffffffffffff1673ffffffffffffffffffffffffffffffffffffffff168152602001908152602001600020549050818110156200023a578381836040517fe450d38c0000000000000000000000000000000000000000000000000000000081526004016200023193929190620007c3565b60405180910390fd5b8181036000808673ffffffffffffffffffffffffffffffffffffffff1673ffffffffffffffffffffffffffffffffffffffff16815260200190815260200160002081905550505b600073ffffffffffffffffffffffffffffffffffffffff168273ffffffffffffffffffffffffffffffffffffffff1603620002cc578060026000828254039250508190555062000319565b806000808473ffffffffffffffffffffffffffffffffffffffff1673ffffffffffffffffffffffffffffffffffffffff168152602001908152602001600020600082825401925050819055505b8173ffffffffffffffffffffffffffffffffffffffff168373ffffffffffffffffffffffffffffffffffffffff167fddf252ad1be2c89b69c2b068fc378daa952ba7f163c4a11628f55a4df523b3ef8360405162000378919062000800565b60405180910390a3505050565b600081519050919050565b7f4e487b7100000000000000000000000000000000000000000000000000000000600052604160045260246000fd5b7f4e487b7100000000000000000000000000000000000000000000000000000000600052602260045260246000fd5b600060028204905060018216806200040757607f821691505b6020821081036200041d576200041c620003bf565b5b50919050565b60008190508160005260206000209050919050565b60006020601f8301049050919050565b600082821b905092915050565b600060088302620004877fffffffffffffffffffffffffffffffffffffffffffffffffffffffffffffffff8262000448565b62000493868362000448565b95508019841693508086168417925050509392505050565b6000819050919050565b6000819050919050565b6000620004e0620004da620004d484620004ab565b620004b5565b620004ab565b9050919050565b6000819050919050565b620004fc83620004bf565b620005146200050b82620004e7565b84845462000455565b825550505050565b600090565b6200052b6200051c565b62000538818484620004f1565b505050565b5b8181101562000560576200055460008262000521565b6001810190506200053e565b5050565b601f821115620005af57620005798162000423565b620005848462000438565b8101602085101562000594578190505b620005ac620005a38562000438565b8301826200053d565b50505b505050565b600082821c905092915050565b6000620005d460001984600802620005b4565b1980831691505092915050565b6000620005ef8383620005c1565b9150826002028217905092915050565b6200060a8262000385565b67ffffffffffffffff81111562000626576200062562000390565b5b620006328254620003ee565b6200063f82828562000564565b600060209050601f83116001811462000677576000841562000662578287015190505b6200066e8582620005e1565b865550620006de565b601f198416620006878662000423565b60005b82811015620006b1578489015182556001820191506020850194506020810190506200068a565b86831015620006d15784890151620006cd601f891682620005c1565b8355505b6001600288020188555050505b505050505050565b600073ffffffffffffffffffffffffffffffffffffffff82169050919050565b60006200071382620006e6565b9050919050565b620007258162000706565b82525050565b60006020820190506200074260008301846200071a565b92915050565b7f4e487b7100000000000000000000000000000000000000000000000000000000600052601160045260246000fd5b60006200078482620004ab565b91506200079183620004ab565b9250828201905080821115620007ac57620007ab62000748565b5b92915050565b620007bd81620004ab565b82525050565b6000606082019050620007da60008301866200071a565b620007e96020830185620007b2565b620007f86040830184620007b2565b949350505050565b6000602082019050620008176000830184620007b2565b92915050565b610e55806200082d6000396000f3fe608060405234801561001057600080fd5b50600436106100935760003560e01c8063313ce56711610066578063313ce5671461013457806370a082311461015257806395d89b4114610182578063a9059cbb146101a0578063dd62ed3e146101d057610093565b806306fdde0314610098578063095ea7b3146100b657806318160ddd146100e657806323b872dd14610104575b600080fd5b6100a0610200565b6040516100ad9190610aa9565b60405180910390f35b6100d060048036038101906100cb9190610b64565b610292565b6040516100dd9190610bbf565b60405180910390f35b6100ee6102b5565b6040516100fb9190610be9565b60405180910390f35b61011e60048036038101906101199190610c04565b6102bf565b60405161012b9190610bbf565b60405180910390f35b61013c6102ee565b6040516101499190610c73565b60405180910390f35b61016c60048036038101906101679190610c8e565b6102f7565b6040516101799190610be9565b60405180910390f35b61018a61033f565b6040516101979190610aa9565b60405180910390f35b6101ba60048036038101906101b59190610b64565b6103d1565b6040516101c79190610bbf565b60405180910390f35b6101ea60048036038101906101e59190610cbb565b6103f4565b6040516101f79190610be9565b60405180910390f35b60606003805461020f90610d2a565b80601f016020809104026020016040519081016040528092919081815260200182805461023b90610d2a565b80156102885780601f1061025d57610100808354040283529160200191610288565b820191906000526020600020905b81548152906001019060200180831161026b57829003601f168201915b5050505050905090565b60008061029d61047b565b90506102aa818585610483565b600191505092915050565b6000600254905090565b6000806102ca61047b565b90506102d7858285610495565b6102e2858585610529565b60019150509392505050565b60006012905090565b60008060008373ffffffffffffffffffffffffffffffffffffffff1673ffffffffffffffffffffffffffffffffffffffff168152602001908152602001600020549050919050565b60606004805461034e90610d2a565b80601f016020809104026020016040519081016040528092919081815260200182805461037a90610d2a565b80156103c75780601f1061039c576101008083540402835291602001916103c7565b820191906000526020600020905b8154815290600101906020018083116103aa57829003601f168201915b5050505050905090565b6000806103dc61047b565b90506103e9818585610529565b600191505092915050565b6000600160008473ffffffffffffffffffffffffffffffffffffffff1673ffffffffffffffffffffffffffffffffffffffff16815260200190815260200160002060008373ffffffffffffffffffffffffffffffffffffffff1673ffffffffffffffffffffffffffffffffffffffff16815260200190815260200160002054905092915050565b600033905090565b610490838383600161061d565b505050565b60006104a184846103f4565b90507fffffffffffffffffffffffffffffffffffffffffffffffffffffffffffffffff81146105235781811015610513578281836040517ffb8f41b200000000000000000000000000000000000000000000000000000000815260040161050a93929190610d6a565b60405180910390fd5b6105228484848403600061061d565b5b50505050565b600073ffffffffffffffffffffffffffffffffffffffff168373ffffffffffffffffffffffffffffffffffffffff160361059b5760006040517f96c6fd1e0000000000000000000000000000000000000000000000000000000081526004016105929190610da1565b60405180910390fd5b600073ffffffffffffffffffffffffffffffffffffffff168273ffffffffffffffffffffffffffffffffffffffff160361060d5760006040517fec442f050000000000000000000000000000000000000000000000000000000081526004016106049190610da1565b60405180910390fd5b6106188383836107f4565b505050565b600073ffffffffffffffffffffffffffffffffffffffff168473ffffffffffffffffffffffffffffffffffffffff160361068f5760006040517fe602df050000000000000000000000000000000000000000000000000000000081526004016106869190610da1565b60405180910390fd5b600073ffffffffffffffffffffffffffffffffffffffff168373ffffffffffffffffffffffffffffffffffffffff16036107015760006040517f94280d620000000000000000000000000000000000000000000000000000000081526004016106f89190610da1565b60405180910390fd5b81600160008673ffffffffffffffffffffffffffffffffffffffff1673ffffffffffffffffffffffffffffffffffffffff16815260200190815260200160002060008573ffffffffffffffffffffffffffffffffffffffff1673ffffffffffffffffffffffffffffffffffffffff1681526020019081526020016000208190555080156107ee578273ffffffffffffffffffffffffffffffffffffffff168473ffffffffffffffffffffffffffffffffffffffff167f8c5be1e5ebec7d5bd14f71427d1e84f3dd0314c0f7b2291e5b200ac8c7c3b925846040516107e59190610be9565b60405180910390a35b50505050565b600073ffffffffffffffffffffffffffffffffffffffff168373ffffffffffffffffffffffffffffffffffffffff160361084657806002600082825461083a9190610deb565b92505081905550610919565b60008060008573ffffffffffffffffffffffffffffffffffffffff1673ffffffffffffffffffffffffffffffffffffffff168152602001908152602001600020549050818110156108d2578381836040517fe450d38c0000000000000000000000000000000000000000000000000000000081526004016108c993929190610d6a565b60405180910390fd5b8181036000808673ffffffffffffffffffffffffffffffffffffffff1673ffffffffffffffffffffffffffffffffffffffff16815260200190815260200160002081905550505b600073ffffffffffffffffffffffffffffffffffffffff168273ffffffffffffffffffffffffffffffffffffffff160361096257806002600082825403925050819055506109af565b806000808473ffffffffffffffffffffffffffffffffffffffff1673ffffffffffffffffffffffffffffffffffffffff168152602001908152602001600020600082825401925050819055505b8173ffffffffffffffffffffffffffffffffffffffff168373ffffffffffffffffffffffffffffffffffffffff167fddf252ad1be2c89b69c2b068fc378daa952ba7f163c4a11628f55a4df523b3ef83604051610a0c9190610be9565b60405180910390a3505050565b600081519050919050565b600082825260208201905092915050565b60005b83811015610a53578082015181840152602081019050610a38565b60008484015250505050565b6000601f19601f8301169050919050565b6000610a7b82610a19565b610a858185610a24565b9350610a95818560208601610a35565b610a9e81610a5f565b840191505092915050565b60006020820190508181036000830152610ac38184610a70565b905092915050565b600080fd5b600073ffffffffffffffffffffffffffffffffffffffff82169050919050565b6000610afb82610ad0565b9050919050565b610b0b81610af0565b8114610b1657600080fd5b50565b600081359050610b2881610b02565b92915050565b6000819050919050565b610b4181610b2e565b8114610b4c57600080fd5b50565b600081359050610b5e81610b38565b92915050565b60008060408385031215610b7b57610b7a610acb565b5b6000610b8985828601610b19565b9250506020610b9a85828601610b4f565b9150509250929050565b60008115159050919050565b610bb981610ba4565b82525050565b6000602082019050610bd46000830184610bb0565b92915050565b610be381610b2e565b82525050565b6000602082019050610bfe6000830184610bda565b92915050565b600080600060608486031215610c1d57610c1c610acb565b5b6000610c2b86828701610b19565b9350506020610c3c86828701610b19565b9250506040610c4d86828701610b4f565b9150509250925092565b600060ff82169050919050565b610c6d81610c57565b82525050565b6000602082019050610c886000830184610c64565b92915050565b600060208284031215610ca457610ca3610acb565b5b6000610cb284828501610b19565b91505092915050565b60008060408385031215610cd257610cd1610acb565b5b6000610ce085828601610b19565b9250506020610cf185828601610b19565b9150509250929050565b7f4e487b7100000000000000000000000000000000000000000000000000000000600052602260045260246000fd5b60006002820490506001821680610d4257607f821691505b602082108103610d5557610d54610cfb565b5b50919050565b610d6481610af0565b82525050565b6000606082019050610d7f6000830186610d5b565b610d8c6020830185610bda565b610d996040830184610bda565b949350505050565b6000602082019050610db66000830184610d5b565b92915050565b7f4e487b7100000000000000000000000000000000000000000000000000000000600052601160045260246000fd5b6000610df682610b2e565b9150610e0183610b2e565b9250828201905080821115610e1957610e18610dbc565b5b9291505056fea26469706673582212204298b022040516c7750143c6cdcc603a75cd6c5374196336ccacedbf0404b4de64736f6c63430008180033",
  "linkReferences": {},
  "deployedLinkReferences": {}
}