{
  "_format": "hh-sol-artifact-1",
  "contractName": "VideoPlatform",
  "sourceName": "contracts/Vidverse.sol",
  "abi": [
    {
      "inputs": [],
      "stateMutability": "nonpayable",
      "type": "constructor"
    },
    {
      "anonymous": false,
      "inputs": [
        {
          "indexed": false,
          "internalType": "uint256",
          "name": "id",
          "type": "uint256"
        },
        {
          "indexed": false,
          "internalType": "address",
          "name": "owner",
          "type": "address"
        },
        {
          "indexed": false,
          "internalType": "string",
          "name": "stramName",
          "type": "string"
        },
        {
          "indexed": false,
          "internalType": "string",
          "name": "description",
          "type": "string"
        },
        {
          "indexed": false,
          "internalType": "string",
          "name": "playBackId",
          "type": "string"
        },
        {
          "indexed": false,
          "internalType": "bool",
          "name": "status",
          "type": "bool"
        }
      ],
      "name": "CreatedStream",
      "type": "event"
    },
    {
      "anonymous": false,
      "inputs": [
        {
          "indexed": true,
          "internalType": "uint256",
          "name": "id",
          "type": "uint256"
        },
        {
          "indexed": false,
          "internalType": "address",
          "name": "owner",
          "type": "address"
        }
      ],
      "name": "StreamStopped",
      "type": "event"
    },
    {
      "anonymous": false,
      "inputs": [
        {
          "indexed": true,
          "internalType": "uint256",
          "name": "videoId",
          "type": "uint256"
        },
        {
          "indexed": true,
          "internalType": "address",
          "name": "owner",
          "type": "address"
        },
        {
          "indexed": false,
          "internalType": "address",
          "name": "tipper",
          "type": "address"
        },
        {
          "indexed": false,
          "internalType": "uint256",
          "name": "amount",
          "type": "uint256"
        },
        {
          "indexed": false,
          "internalType": "uint256",
          "name": "newTipAmount",
          "type": "uint256"
        }
      ],
      "name": "VideoTipped",
      "type": "event"
    },
    {
      "anonymous": false,
      "inputs": [
        {
          "indexed": false,
          "internalType": "uint256",
          "name": "id",
          "type": "uint256"
        },
        {
          "indexed": false,
          "internalType": "address",
          "name": "owner",
          "type": "address"
        },
        {
          "indexed": false,
          "internalType": "string",
          "name": "title",
          "type": "string"
        },
        {
          "indexed": false,
          "internalType": "string",
          "name": "description",
          "type": "string"
        },
        {
          "indexed": false,
          "internalType": "string",
          "name": "ipfsHash",
          "type": "string"
        },
        {
          "indexed": false,
          "internalType": "uint256",
          "name": "tipAmount",
          "type": "uint256"
        }
      ],
      "name": "VideoUploaded",
      "type": "event"
    },
    {
      "inputs": [
        {
          "internalType": "address",
          "name": "userAddr",
          "type": "address"
        },
        {
          "internalType": "string",
          "name": "_title",
          "type": "string"
        },
        {
          "internalType": "string",
          "name": "_description",
          "type": "string"
        },
        {
          "internalType": "string",
          "name": "_playbackId",
          "type": "string"
        },
        {
          "internalType": "string",
          "name": "streamKey",
          "type": "string"
        },
        {
          "internalType": "string",
          "name": "_streamID",
          "type": "string"
        }
      ],
      "name": "createStream",
      "outputs": [],
      "stateMutability": "nonpayable",
      "type": "function"
    },
    {
      "inputs": [],
      "name": "getAllActiveLiveStreams",
      "outputs": [
        {
          "components": [
            {
              "internalType": "uint256",
              "name": "id",
              "type": "uint256"
            },
            {
              "internalType": "address",
              "name": "owner",
              "type": "address"
            },
            {
              "internalType": "string",
              "name": "stramName",
              "type": "string"
            },
            {
              "internalType": "string",
              "name": "description",
              "type": "string"
            },
            {
              "internalType": "string",
              "name": "playBackId",
              "type": "string"
            },
            {
              "internalType": "uint256",
              "name": "tipAmount",
              "type": "uint256"
            },
            {
              "internalType": "bool",
              "name": "status",
              "type": "bool"
            },
            {
              "internalType": "string",
              "name": "streamKey",
              "type": "string"
            },
            {
              "internalType": "string",
              "name": "streamID",
              "type": "string"
            }
          ],
          "internalType": "struct VideoPlatform.LiveStream[]",
          "name": "",
          "type": "tuple[]"
        }
      ],
      "stateMutability": "view",
      "type": "function"
    },
    {
      "inputs": [
        {
          "internalType": "address",
          "name": "account",
          "type": "address"
        }
      ],
      "name": "getMyActiveLiveStreams",
      "outputs": [
        {
          "components": [
            {
              "internalType": "uint256",
              "name": "id",
              "type": "uint256"
            },
            {
              "internalType": "address",
              "name": "owner",
              "type": "address"
            },
            {
              "internalType": "string",
              "name": "stramName",
              "type": "string"
            },
            {
              "internalType": "string",
              "name": "description",
              "type": "string"
            },
            {
              "internalType": "string",
              "name": "playBackId",
              "type": "string"
            },
            {
              "internalType": "uint256",
              "name": "tipAmount",
              "type": "uint256"
            },
            {
              "internalType": "bool",
              "name": "status",
              "type": "bool"
            },
            {
              "internalType": "string",
              "name": "streamKey",
              "type": "string"
            },
            {
              "internalType": "string",
              "name": "streamID",
              "type": "string"
            }
          ],
          "internalType": "struct VideoPlatform.LiveStream[]",
          "name": "",
          "type": "tuple[]"
        }
      ],
      "stateMutability": "view",
      "type": "function"
    },
    {
      "inputs": [
        {
          "internalType": "uint256",
          "name": "",
          "type": "uint256"
        }
      ],
      "name": "liveStreams",
      "outputs": [
        {
          "internalType": "uint256",
          "name": "id",
          "type": "uint256"
        },
        {
          "internalType": "address",
          "name": "owner",
          "type": "address"
        },
        {
          "internalType": "string",
          "name": "stramName",
          "type": "string"
        },
        {
          "internalType": "string",
          "name": "description",
          "type": "string"
        },
        {
          "internalType": "string",
          "name": "playBackId",
          "type": "string"
        },
        {
          "internalType": "uint256",
          "name": "tipAmount",
          "type": "uint256"
        },
        {
          "internalType": "bool",
          "name": "status",
          "type": "bool"
        },
        {
          "internalType": "string",
          "name": "streamKey",
          "type": "string"
        },
        {
          "internalType": "string",
          "name": "streamID",
          "type": "string"
        }
      ],
      "stateMutability": "view",
      "type": "function"
    },
    {
      "inputs": [],
      "name": "myToken",
      "outputs": [
        {
          "internalType": "contract ERC20",
          "name": "",
          "type": "address"
        }
      ],
      "stateMutability": "view",
      "type": "function"
    },
    {
      "inputs": [
        {
          "internalType": "address",
          "name": "useAddress",
          "type": "address"
        },
        {
          "internalType": "string",
          "name": "_streamID",
          "type": "string"
        }
      ],
      "name": "stopStreamByStreamID",
      "outputs": [],
      "stateMutability": "nonpayable",
      "type": "function"
    },
    {
      "inputs": [
        {
          "internalType": "address",
          "name": "useAddre",
          "type": "address"
        },
        {
          "internalType": "uint256",
          "name": "_streamId",
          "type": "uint256"
        },
        {
          "internalType": "uint256",
          "name": "_amount",
          "type": "uint256"
        }
      ],
      "name": "tipStreamOwner",
      "outputs": [],
      "stateMutability": "payable",
      "type": "function"
    },
    {
      "inputs": [
        {
          "internalType": "address",
          "name": "userAddre",
          "type": "address"
        },
        {
          "internalType": "uint256",
          "name": "_videoId",
          "type": "uint256"
        },
        {
          "internalType": "uint256",
          "name": "_amount",
          "type": "uint256"
        }
      ],
      "name": "tipVideoOwner",
      "outputs": [],
      "stateMutability": "payable",
      "type": "function"
    },
    {
      "inputs": [
        {
          "internalType": "address",
          "name": "userAddr",
          "type": "address"
        },
        {
          "internalType": "string",
          "name": "_title",
          "type": "string"
        },
        {
          "internalType": "string",
          "name": "_description",
          "type": "string"
        },
        {
          "internalType": "string",
          "name": "_ipfsHash",
          "type": "string"
        }
      ],
      "name": "uploadVideo",
      "outputs": [],
      "stateMutability": "nonpayable",
      "type": "function"
    },
    {
      "inputs": [
        {
          "internalType": "uint256",
          "name": "",
          "type": "uint256"
        }
      ],
      "name": "videos",
      "outputs": [
        {
          "internalType": "uint256",
          "name": "id",
          "type": "uint256"
        },
        {
          "internalType": "address",
          "name": "owner",
          "type": "address"
        },
        {
          "internalType": "string",
          "name": "title",
          "type": "string"
        },
        {
          "internalType": "string",
          "name": "description",
          "type": "string"
        },
        {
          "internalType": "string",
          "name": "ipfsHash",
          "type": "string"
        },
        {
          "internalType": "uint256",
          "name": "tipAmount",
          "type": "uint256"
        }
      ],
      "stateMutability": "view",
      "type": "function"
    }
  ],
  "bytecode": "0x60806040523480156200001157600080fd5b50600060405162000022906200008a565b604051809103906000f0801580156200003f573d6000803e3d6000fd5b50905080600260006101000a81548173ffffffffffffffffffffffffffffffffffffffff021916908373ffffffffffffffffffffffffffffffffffffffff1602179055505062000098565b6116828062003c5283390190565b613baa80620000a86000396000f3fe6080604052600436106100915760003560e01c8063a97d33b311610059578063a97d33b314610167578063b8fcf93714610190578063db4f0e1a146101bb578063e2fc2726146101e4578063e6821bf51461022157610091565b80630b64dab414610096578063295c83cc146100b25780632b074830146100dd5780632cc9d4ab146101225780635b3c8d031461013e575b600080fd5b6100b060048036038101906100ab9190612498565b610263565b005b3480156100be57600080fd5b506100c761068b565b6040516100d49190612757565b60405180910390f35b3480156100e957600080fd5b5061010460048036038101906100ff9190612779565b610b65565b6040516101199998979695949392919061281d565b60405180910390f35b61013c60048036038101906101379190612498565b610e98565b005b34801561014a57600080fd5b5061016560048036038101906101609190612a02565b61133a565b005b34801561017357600080fd5b5061018e60048036038101906101899190612abd565b61161c565b005b34801561019c57600080fd5b506101a561184e565b6040516101b29190612b78565b60405180910390f35b3480156101c757600080fd5b506101e260048036038101906101dd9190612b93565b611874565b005b3480156101f057600080fd5b5061020b60048036038101906102069190612cac565b611bb4565b6040516102189190612757565b60405180910390f35b34801561022d57600080fd5b5061024860048036038101906102439190612779565b612188565b60405161025a96959493929190612cd9565b60405180910390f35b60018054905082106102aa576040517f08c379a00000000000000000000000000000000000000000000000000000000081526004016102a190612d9b565b60405180910390fd5b600081116102ed576040517f08c379a00000000000000000000000000000000000000000000000000000000081526004016102e490612e07565b60405180910390fd5b60006001838154811061030357610302612e27565b5b90600052602060002090600902019050600073ffffffffffffffffffffffffffffffffffffffff168160010160009054906101000a900473ffffffffffffffffffffffffffffffffffffffff1673ffffffffffffffffffffffffffffffffffffffff16036103a6576040517f08c379a000000000000000000000000000000000000000000000000000000000815260040161039d90612ea2565b60405180910390fd5b81600260009054906101000a900473ffffffffffffffffffffffffffffffffffffffff1673ffffffffffffffffffffffffffffffffffffffff1663dd62ed3e86306040518363ffffffff1660e01b8152600401610404929190612ec2565b602060405180830381865afa158015610421573d6000803e3d6000fd5b505050506040513d601f19601f820116820180604052508101906104459190612f00565b1015610486576040517f08c379a000000000000000000000000000000000000000000000000000000000815260040161047d90612f79565b60405180910390fd5b600260009054906101000a900473ffffffffffffffffffffffffffffffffffffffff1673ffffffffffffffffffffffffffffffffffffffff166323b872dd8530856040518463ffffffff1660e01b81526004016104e593929190612f99565b6020604051808303816000875af1158015610504573d6000803e3d6000fd5b505050506040513d601f19601f820116820180604052508101906105289190612ffc565b610567576040517f08c379a000000000000000000000000000000000000000000000000000000000815260040161055e9061309b565b60405180910390fd5b600260009054906101000a900473ffffffffffffffffffffffffffffffffffffffff1673ffffffffffffffffffffffffffffffffffffffff1663a9059cbb8260010160009054906101000a900473ffffffffffffffffffffffffffffffffffffffff16846040518363ffffffff1660e01b81526004016105e89291906130bb565b6020604051808303816000875af1158015610607573d6000803e3d6000fd5b505050506040513d601f19601f8201168201806040525081019061062b9190612ffc565b61066a576040517f08c379a000000000000000000000000000000000000000000000000000000000815260040161066190613156565b60405180910390fd5b8181600501600082825461067e91906131a5565b9250508190555050505050565b60606000805b6001805490508110156106f257600181815481106106b2576106b1612e27565b5b906000526020600020906009020160060160009054906101000a900460ff16156106e55781806106e1906131d9565b9250505b8080600101915050610691565b5060008167ffffffffffffffff81111561070f5761070e6128d7565b5b60405190808252806020026020018201604052801561074857816020015b61073561238c565b81526020019060019003908161072d5790505b5090506000805b600180549050811015610b5b57600181815481106107705761076f612e27565b5b906000526020600020906009020160060160009054906101000a900460ff1615610b4e57600181815481106107a8576107a7612e27565b5b906000526020600020906009020160405180610120016040529081600082015481526020016001820160009054906101000a900473ffffffffffffffffffffffffffffffffffffffff1673ffffffffffffffffffffffffffffffffffffffff1673ffffffffffffffffffffffffffffffffffffffff16815260200160028201805461083290613250565b80601f016020809104026020016040519081016040528092919081815260200182805461085e90613250565b80156108ab5780601f10610880576101008083540402835291602001916108ab565b820191906000526020600020905b81548152906001019060200180831161088e57829003601f168201915b505050505081526020016003820180546108c490613250565b80601f01602080910402602001604051908101604052809291908181526020018280546108f090613250565b801561093d5780601f106109125761010080835404028352916020019161093d565b820191906000526020600020905b81548152906001019060200180831161092057829003601f168201915b5050505050815260200160048201805461095690613250565b80601f016020809104026020016040519081016040528092919081815260200182805461098290613250565b80156109cf5780601f106109a4576101008083540402835291602001916109cf565b820191906000526020600020905b8154815290600101906020018083116109b257829003601f168201915b50505050508152602001600582015481526020016006820160009054906101000a900460ff16151515158152602001600782018054610a0d90613250565b80601f0160208091040260200160405190810160405280929190818152602001828054610a3990613250565b8015610a865780601f10610a5b57610100808354040283529160200191610a86565b820191906000526020600020905b815481529060010190602001808311610a6957829003601f168201915b50505050508152602001600882018054610a9f90613250565b80601f0160208091040260200160405190810160405280929190818152602001828054610acb90613250565b8015610b185780601f10610aed57610100808354040283529160200191610b18565b820191906000526020600020905b815481529060010190602001808311610afb57829003601f168201915b505050505081525050838381518110610b3457610b33612e27565b5b60200260200101819052508180610b4a906131d9565b9250505b808060010191505061074f565b5081935050505090565b60018181548110610b7557600080fd5b90600052602060002090600902016000915090508060000154908060010160009054906101000a900473ffffffffffffffffffffffffffffffffffffffff1690806002018054610bc490613250565b80601f0160208091040260200160405190810160405280929190818152602001828054610bf090613250565b8015610c3d5780601f10610c1257610100808354040283529160200191610c3d565b820191906000526020600020905b815481529060010190602001808311610c2057829003601f168201915b505050505090806003018054610c5290613250565b80601f0160208091040260200160405190810160405280929190818152602001828054610c7e90613250565b8015610ccb5780601f10610ca057610100808354040283529160200191610ccb565b820191906000526020600020905b815481529060010190602001808311610cae57829003601f168201915b505050505090806004018054610ce090613250565b80601f0160208091040260200160405190810160405280929190818152602001828054610d0c90613250565b8015610d595780601f10610d2e57610100808354040283529160200191610d59565b820191906000526020600020905b815481529060010190602001808311610d3c57829003601f168201915b5050505050908060050154908060060160009054906101000a900460ff1690806007018054610d8790613250565b80601f0160208091040260200160405190810160405280929190818152602001828054610db390613250565b8015610e005780601f10610dd557610100808354040283529160200191610e00565b820191906000526020600020905b815481529060010190602001808311610de357829003601f168201915b505050505090806008018054610e1590613250565b80601f0160208091040260200160405190810160405280929190818152602001828054610e4190613250565b8015610e8e5780601f10610e6357610100808354040283529160200191610e8e565b820191906000526020600020905b815481529060010190602001808311610e7157829003601f168201915b5050505050905089565b6000805490508210610edf576040517f08c379a0000000000000000000000000000000000000000000000000000000008152600401610ed6906132cd565b60405180910390fd5b60008111610f22576040517f08c379a0000000000000000000000000000000000000000000000000000000008152600401610f1990612e07565b60405180910390fd5b6000808381548110610f3757610f36612e27565b5b90600052602060002090600602019050600073ffffffffffffffffffffffffffffffffffffffff168160010160009054906101000a900473ffffffffffffffffffffffffffffffffffffffff1673ffffffffffffffffffffffffffffffffffffffff1603610fda576040517f08c379a0000000000000000000000000000000000000000000000000000000008152600401610fd190613339565b60405180910390fd5b81600260009054906101000a900473ffffffffffffffffffffffffffffffffffffffff1673ffffffffffffffffffffffffffffffffffffffff1663dd62ed3e86306040518363ffffffff1660e01b8152600401611038929190612ec2565b602060405180830381865afa158015611055573d6000803e3d6000fd5b505050506040513d601f19601f820116820180604052508101906110799190612f00565b10156110ba576040517f08c379a00000000000000000000000000000000000000000000000000000000081526004016110b190612f79565b60405180910390fd5b600260009054906101000a900473ffffffffffffffffffffffffffffffffffffffff1673ffffffffffffffffffffffffffffffffffffffff166323b872dd8530856040518463ffffffff1660e01b815260040161111993929190612f99565b6020604051808303816000875af1158015611138573d6000803e3d6000fd5b505050506040513d601f19601f8201168201806040525081019061115c9190612ffc565b61119b576040517f08c379a00000000000000000000000000000000000000000000000000000000081526004016111929061309b565b60405180910390fd5b600260009054906101000a900473ffffffffffffffffffffffffffffffffffffffff1673ffffffffffffffffffffffffffffffffffffffff1663a9059cbb8260010160009054906101000a900473ffffffffffffffffffffffffffffffffffffffff16846040518363ffffffff1660e01b815260040161121c9291906130bb565b6020604051808303816000875af115801561123b573d6000803e3d6000fd5b505050506040513d601f19601f8201168201806040525081019061125f9190612ffc565b61129e576040517f08c379a0000000000000000000000000000000000000000000000000000000008152600401611295906133cb565b60405180910390fd5b818160050160008282546112b291906131a5565b925050819055508060010160009054906101000a900473ffffffffffffffffffffffffffffffffffffffff1673ffffffffffffffffffffffffffffffffffffffff16837f43f28d6f7c3838abd6cbdf493a5c63550740efc8071f5d0bc5b38769455414db8685856005015460405161132c939291906133eb565b60405180910390a350505050565b60005b600080549050811015611409578160405160200161135b919061345e565b604051602081830303815290604052805190602001206000828154811061138557611384612e27565b5b90600052602060002090600602016004016040516020016113a6919061350d565b60405160208183030381529060405280519060200120036113fc576040517f08c379a00000000000000000000000000000000000000000000000000000000081526004016113f390613596565b60405180910390fd5b808060010191505061133d565b5060008080549050905060006040518060c001604052808381526020018773ffffffffffffffffffffffffffffffffffffffff168152602001868152602001858152602001848152602001600081525090806001815401808255809150506001900390600052602060002090600602016000909190919091506000820151816000015560208201518160010160006101000a81548173ffffffffffffffffffffffffffffffffffffffff021916908373ffffffffffffffffffffffffffffffffffffffff16021790555060408201518160020190816114e89190613743565b5060608201518160030190816114fe9190613743565b5060808201518160040190816115149190613743565b5060a082015181600501555050600260009054906101000a900473ffffffffffffffffffffffffffffffffffffffff1673ffffffffffffffffffffffffffffffffffffffff1663a9059cbb8668056bc75e2d631000006040518363ffffffff1660e01b8152600401611587929190613850565b6020604051808303816000875af11580156115a6573d6000803e3d6000fd5b505050506040513d601f19601f820116820180604052508101906115ca9190612ffc565b507f6342a33babd39e3fbc90d4a1c137f4331cc4ca4ac910e24a0996d399e444a731818686868668056bc75e2d6310000060405161160d96959493929190613879565b60405180910390a15050505050565b6000805b600180549050811015611808578260405160200161163e919061345e565b604051602081830303815290604052805190602001206001828154811061166857611667612e27565b5b9060005260206000209060090201600801604051602001611689919061350d565b60405160208183030381529060405280519060200120036117fb57600181815481106116b8576116b7612e27565b5b906000526020600020906009020160010160009054906101000a900473ffffffffffffffffffffffffffffffffffffffff1673ffffffffffffffffffffffffffffffffffffffff168473ffffffffffffffffffffffffffffffffffffffff1614611757576040517f08c379a000000000000000000000000000000000000000000000000000000000815260040161174e9061393b565b60405180910390fd5b60006001828154811061176d5761176c612e27565b5b906000526020600020906009020160060160006101000a81548160ff021916908315150217905550600181815481106117a9576117a8612e27565b5b9060005260206000209060090201600001547fd95eebb8ae85b521a4f98aff3b92d8cd7ecf3f002024835c0e9716cf2bdea208856040516117ea919061395b565b60405180910390a260019150611808565b8080600101915050611620565b5080611849576040517f08c379a000000000000000000000000000000000000000000000000000000000815260040161184090613a0e565b60405180910390fd5b505050565b600260009054906101000a900473ffffffffffffffffffffffffffffffffffffffff1681565b60005b6001805490508110156119435783604051602001611895919061345e565b60405160208183030381529060405280519060200120600182815481106118bf576118be612e27565b5b90600052602060002090600902016004016040516020016118e0919061350d565b6040516020818303038152906040528051906020012003611936576040517f08c379a000000000000000000000000000000000000000000000000000000000815260040161192d90613a7a565b60405180910390fd5b8080600101915050611877565b506000600180549050905060016040518061012001604052808381526020018973ffffffffffffffffffffffffffffffffffffffff168152602001888152602001878152602001868152602001600081526020016001151581526020018581526020018481525090806001815401808255809150506001900390600052602060002090600902016000909190919091506000820151816000015560208201518160010160006101000a81548173ffffffffffffffffffffffffffffffffffffffff021916908373ffffffffffffffffffffffffffffffffffffffff1602179055506040820151816002019081611a399190613743565b506060820151816003019081611a4f9190613743565b506080820151816004019081611a659190613743565b5060a0820151816005015560c08201518160060160006101000a81548160ff02191690831515021790555060e0820151816007019081611aa59190613743565b50610100820151816008019081611abc9190613743565b505050600260009054906101000a900473ffffffffffffffffffffffffffffffffffffffff1673ffffffffffffffffffffffffffffffffffffffff1663a9059cbb88683635c9adc5dea000006040518363ffffffff1660e01b8152600401611b25929190613ad5565b6020604051808303816000875af1158015611b44573d6000803e3d6000fd5b505050506040513d601f19601f82011682018060405250810190611b689190612ffc565b507fed33210582150bc2dd8073dfe015bb10c34e807d1cc4d609857c3b2fe1fb1bfb81888888886001604051611ba396959493929190613afe565b60405180910390a150505050505050565b60606000805b600180549050811015611c975760018181548110611bdb57611bda612e27565b5b906000526020600020906009020160060160009054906101000a900460ff168015611c7657508373ffffffffffffffffffffffffffffffffffffffff1660018281548110611c2c57611c2b612e27565b5b906000526020600020906009020160010160009054906101000a900473ffffffffffffffffffffffffffffffffffffffff1673ffffffffffffffffffffffffffffffffffffffff16145b15611c8a578180611c86906131d9565b9250505b8080600101915050611bba565b5060008167ffffffffffffffff811115611cb457611cb36128d7565b5b604051908082528060200260200182016040528015611ced57816020015b611cda61238c565b815260200190600190039081611cd25790505b5090506000805b60018054905081101561217c5760018181548110611d1557611d14612e27565b5b906000526020600020906009020160060160009054906101000a900460ff168015611db057508573ffffffffffffffffffffffffffffffffffffffff1660018281548110611d6657611d65612e27565b5b906000526020600020906009020160010160009054906101000a900473ffffffffffffffffffffffffffffffffffffffff1673ffffffffffffffffffffffffffffffffffffffff16145b1561216f5760018181548110611dc957611dc8612e27565b5b906000526020600020906009020160405180610120016040529081600082015481526020016001820160009054906101000a900473ffffffffffffffffffffffffffffffffffffffff1673ffffffffffffffffffffffffffffffffffffffff1673ffffffffffffffffffffffffffffffffffffffff168152602001600282018054611e5390613250565b80601f0160208091040260200160405190810160405280929190818152602001828054611e7f90613250565b8015611ecc5780601f10611ea157610100808354040283529160200191611ecc565b820191906000526020600020905b815481529060010190602001808311611eaf57829003601f168201915b50505050508152602001600382018054611ee590613250565b80601f0160208091040260200160405190810160405280929190818152602001828054611f1190613250565b8015611f5e5780601f10611f3357610100808354040283529160200191611f5e565b820191906000526020600020905b815481529060010190602001808311611f4157829003601f168201915b50505050508152602001600482018054611f7790613250565b80601f0160208091040260200160405190810160405280929190818152602001828054611fa390613250565b8015611ff05780601f10611fc557610100808354040283529160200191611ff0565b820191906000526020600020905b815481529060010190602001808311611fd357829003601f168201915b50505050508152602001600582015481526020016006820160009054906101000a900460ff1615151515815260200160078201805461202e90613250565b80601f016020809104026020016040519081016040528092919081815260200182805461205a90613250565b80156120a75780601f1061207c576101008083540402835291602001916120a7565b820191906000526020600020905b81548152906001019060200180831161208a57829003601f168201915b505050505081526020016008820180546120c090613250565b80601f01602080910402602001604051908101604052809291908181526020018280546120ec90613250565b80156121395780601f1061210e57610100808354040283529160200191612139565b820191906000526020600020905b81548152906001019060200180831161211c57829003601f168201915b50505050508152505083838151811061215557612154612e27565b5b6020026020010181905250818061216b906131d9565b9250505b8080600101915050611cf4565b50819350505050919050565b6000818154811061219857600080fd5b90600052602060002090600602016000915090508060000154908060010160009054906101000a900473ffffffffffffffffffffffffffffffffffffffff16908060020180546121e790613250565b80601f016020809104026020016040519081016040528092919081815260200182805461221390613250565b80156122605780601f1061223557610100808354040283529160200191612260565b820191906000526020600020905b81548152906001019060200180831161224357829003601f168201915b50505050509080600301805461227590613250565b80601f01602080910402602001604051908101604052809291908181526020018280546122a190613250565b80156122ee5780601f106122c3576101008083540402835291602001916122ee565b820191906000526020600020905b8154815290600101906020018083116122d157829003601f168201915b50505050509080600401805461230390613250565b80601f016020809104026020016040519081016040528092919081815260200182805461232f90613250565b801561237c5780601f106123515761010080835404028352916020019161237c565b820191906000526020600020905b81548152906001019060200180831161235f57829003601f168201915b5050505050908060050154905086565b60405180610120016040528060008152602001600073ffffffffffffffffffffffffffffffffffffffff1681526020016060815260200160608152602001606081526020016000815260200160001515815260200160608152602001606081525090565b6000604051905090565b600080fd5b600080fd5b600073ffffffffffffffffffffffffffffffffffffffff82169050919050565b600061242f82612404565b9050919050565b61243f81612424565b811461244a57600080fd5b50565b60008135905061245c81612436565b92915050565b6000819050919050565b61247581612462565b811461248057600080fd5b50565b6000813590506124928161246c565b92915050565b6000806000606084860312156124b1576124b06123fa565b5b60006124bf8682870161244d565b93505060206124d086828701612483565b92505060406124e186828701612483565b9150509250925092565b600081519050919050565b600082825260208201905092915050565b6000819050602082019050919050565b61252081612462565b82525050565b61252f81612424565b82525050565b600081519050919050565b600082825260208201905092915050565b60005b8381101561256f578082015181840152602081019050612554565b60008484015250505050565b6000601f19601f8301169050919050565b600061259782612535565b6125a18185612540565b93506125b1818560208601612551565b6125ba8161257b565b840191505092915050565b60008115159050919050565b6125da816125c5565b82525050565b6000610120830160008301516125f96000860182612517565b50602083015161260c6020860182612526565b5060408301518482036040860152612624828261258c565b9150506060830151848203606086015261263e828261258c565b91505060808301518482036080860152612658828261258c565b91505060a083015161266d60a0860182612517565b5060c083015161268060c08601826125d1565b5060e083015184820360e0860152612698828261258c565b9150506101008301518482036101008601526126b4828261258c565b9150508091505092915050565b60006126cd83836125e0565b905092915050565b6000602082019050919050565b60006126ed826124eb565b6126f781856124f6565b93508360208202850161270985612507565b8060005b85811015612745578484038952815161272685826126c1565b9450612731836126d5565b925060208a0199505060018101905061270d565b50829750879550505050505092915050565b6000602082019050818103600083015261277181846126e2565b905092915050565b60006020828403121561278f5761278e6123fa565b5b600061279d84828501612483565b91505092915050565b6127af81612462565b82525050565b6127be81612424565b82525050565b600082825260208201905092915050565b60006127e082612535565b6127ea81856127c4565b93506127fa818560208601612551565b6128038161257b565b840191505092915050565b612817816125c5565b82525050565b600061012082019050612833600083018c6127a6565b612840602083018b6127b5565b8181036040830152612852818a6127d5565b9050818103606083015261286681896127d5565b9050818103608083015261287a81886127d5565b905061288960a08301876127a6565b61289660c083018661280e565b81810360e08301526128a881856127d5565b90508181036101008301526128bd81846127d5565b90509a9950505050505050505050565b600080fd5b600080fd5b7f4e487b7100000000000000000000000000000000000000000000000000000000600052604160045260246000fd5b61290f8261257b565b810181811067ffffffffffffffff8211171561292e5761292d6128d7565b5b80604052505050565b60006129416123f0565b905061294d8282612906565b919050565b600067ffffffffffffffff82111561296d5761296c6128d7565b5b6129768261257b565b9050602081019050919050565b82818337600083830152505050565b60006129a56129a084612952565b612937565b9050828152602081018484840111156129c1576129c06128d2565b5b6129cc848285612983565b509392505050565b600082601f8301126129e9576129e86128cd565b5b81356129f9848260208601612992565b91505092915050565b60008060008060808587031215612a1c57612a1b6123fa565b5b6000612a2a8782880161244d565b945050602085013567ffffffffffffffff811115612a4b57612a4a6123ff565b5b612a57878288016129d4565b935050604085013567ffffffffffffffff811115612a7857612a776123ff565b5b612a84878288016129d4565b925050606085013567ffffffffffffffff811115612aa557612aa46123ff565b5b612ab1878288016129d4565b91505092959194509250565b60008060408385031215612ad457612ad36123fa565b5b6000612ae28582860161244d565b925050602083013567ffffffffffffffff811115612b0357612b026123ff565b5b612b0f858286016129d4565b9150509250929050565b6000819050919050565b6000612b3e612b39612b3484612404565b612b19565b612404565b9050919050565b6000612b5082612b23565b9050919050565b6000612b6282612b45565b9050919050565b612b7281612b57565b82525050565b6000602082019050612b8d6000830184612b69565b92915050565b60008060008060008060c08789031215612bb057612baf6123fa565b5b6000612bbe89828a0161244d565b965050602087013567ffffffffffffffff811115612bdf57612bde6123ff565b5b612beb89828a016129d4565b955050604087013567ffffffffffffffff811115612c0c57612c0b6123ff565b5b612c1889828a016129d4565b945050606087013567ffffffffffffffff811115612c3957612c386123ff565b5b612c4589828a016129d4565b935050608087013567ffffffffffffffff811115612c6657612c656123ff565b5b612c7289828a016129d4565b92505060a087013567ffffffffffffffff811115612c9357612c926123ff565b5b612c9f89828a016129d4565b9150509295509295509295565b600060208284031215612cc257612cc16123fa565b5b6000612cd08482850161244d565b91505092915050565b600060c082019050612cee60008301896127a6565b612cfb60208301886127b5565b8181036040830152612d0d81876127d5565b90508181036060830152612d2181866127d5565b90508181036080830152612d3581856127d5565b9050612d4460a08301846127a6565b979650505050505050565b7f496e76616c69642053747265616d204944000000000000000000000000000000600082015250565b6000612d856011836127c4565b9150612d9082612d4f565b602082019050919050565b60006020820190508181036000830152612db481612d78565b9050919050565b7f416d6f756e74206d7573742062652067726561746572207468616e2030000000600082015250565b6000612df1601d836127c4565b9150612dfc82612dbb565b602082019050919050565b60006020820190508181036000830152612e2081612de4565b9050919050565b7f4e487b7100000000000000000000000000000000000000000000000000000000600052603260045260246000fd5b7f53747265616d206e6f7420666f756e6400000000000000000000000000000000600082015250565b6000612e8c6010836127c4565b9150612e9782612e56565b602082019050919050565b60006020820190508181036000830152612ebb81612e7f565b9050919050565b6000604082019050612ed760008301856127b5565b612ee460208301846127b5565b9392505050565b600081519050612efa8161246c565b92915050565b600060208284031215612f1657612f156123fa565b5b6000612f2484828501612eeb565b91505092915050565b7f496e73756666696369656e7420616c6c6f77616e636500000000000000000000600082015250565b6000612f636016836127c4565b9150612f6e82612f2d565b602082019050919050565b60006020820190508181036000830152612f9281612f56565b9050919050565b6000606082019050612fae60008301866127b5565b612fbb60208301856127b5565b612fc860408301846127a6565b949350505050565b612fd9816125c5565b8114612fe457600080fd5b50565b600081519050612ff681612fd0565b92915050565b600060208284031215613012576130116123fa565b5b600061302084828501612fe7565b91505092915050565b7f4661696c20746f207472616e7366657220746f6b656e20696e2061646472657360008201527f7300000000000000000000000000000000000000000000000000000000000000602082015250565b60006130856021836127c4565b915061309082613029565b604082019050919050565b600060208201905081810360008301526130b481613078565b9050919050565b60006040820190506130d060008301856127b5565b6130dd60208301846127a6565b9392505050565b7f4661696c20746f207472616e7366657220746f6b656e20746f2073747265616d60008201527f206f776e65720000000000000000000000000000000000000000000000000000602082015250565b60006131406026836127c4565b915061314b826130e4565b604082019050919050565b6000602082019050818103600083015261316f81613133565b9050919050565b7f4e487b7100000000000000000000000000000000000000000000000000000000600052601160045260246000fd5b60006131b082612462565b91506131bb83612462565b92508282019050808211156131d3576131d2613176565b5b92915050565b60006131e482612462565b91507fffffffffffffffffffffffffffffffffffffffffffffffffffffffffffffffff820361321657613215613176565b5b600182019050919050565b7f4e487b7100000000000000000000000000000000000000000000000000000000600052602260045260246000fd5b6000600282049050600182168061326857607f821691505b60208210810361327b5761327a613221565b5b50919050565b7f496e76616c696420766964656f20494400000000000000000000000000000000600082015250565b60006132b76010836127c4565b91506132c282613281565b602082019050919050565b600060208201905081810360008301526132e6816132aa565b9050919050565b7f566964656f206e6f7420666f756e640000000000000000000000000000000000600082015250565b6000613323600f836127c4565b915061332e826132ed565b602082019050919050565b6000602082019050818103600083015261335281613316565b9050919050565b7f4661696c20746f207472616e7366657220746f6b656e20746f20766964656f7360008201527f206f776e65720000000000000000000000000000000000000000000000000000602082015250565b60006133b56026836127c4565b91506133c082613359565b604082019050919050565b600060208201905081810360008301526133e4816133a8565b9050919050565b600060608201905061340060008301866127b5565b61340d60208301856127a6565b61341a60408301846127a6565b949350505050565b600081905092915050565b600061343882612535565b6134428185613422565b9350613452818560208601612551565b80840191505092915050565b600061346a828461342d565b915081905092915050565b60008190508160005260206000209050919050565b6000815461349781613250565b6134a18186613422565b945060018216600081146134bc57600181146134d157613504565b60ff1983168652811515820286019350613504565b6134da85613475565b60005b838110156134fc578154818901526001820191506020810190506134dd565b838801955050505b50505092915050565b6000613519828461348a565b915081905092915050565b7f566964656f2077697468207468652073616d652049504653206861736820616c60008201527f7265616479206578697374730000000000000000000000000000000000000000602082015250565b6000613580602c836127c4565b915061358b82613524565b604082019050919050565b600060208201905081810360008301526135af81613573565b9050919050565b60006020601f8301049050919050565b600082821b905092915050565b6000600883026136037fffffffffffffffffffffffffffffffffffffffffffffffffffffffffffffffff826135c6565b61360d86836135c6565b95508019841693508086168417925050509392505050565b600061364061363b61363684612462565b612b19565b612462565b9050919050565b6000819050919050565b61365a83613625565b61366e61366682613647565b8484546135d3565b825550505050565b600090565b613683613676565b61368e818484613651565b505050565b5b818110156136b2576136a760008261367b565b600181019050613694565b5050565b601f8211156136f7576136c881613475565b6136d1846135b6565b810160208510156136e0578190505b6136f46136ec856135b6565b830182613693565b50505b505050565b600082821c905092915050565b600061371a600019846008026136fc565b1980831691505092915050565b60006137338383613709565b9150826002028217905092915050565b61374c82612535565b67ffffffffffffffff811115613765576137646128d7565b5b61376f8254613250565b61377a8282856136b6565b600060209050601f8311600181146137ad576000841561379b578287015190505b6137a58582613727565b86555061380d565b601f1984166137bb86613475565b60005b828110156137e3578489015182556001820191506020850194506020810190506137be565b8683101561380057848901516137fc601f891682613709565b8355505b6001600288020188555050505b505050505050565b6000819050919050565b600061383a61383561383084613815565b612b19565b612462565b9050919050565b61384a8161381f565b82525050565b600060408201905061386560008301856127b5565b6138726020830184613841565b9392505050565b600060c08201905061388e60008301896127a6565b61389b60208301886127b5565b81810360408301526138ad81876127d5565b905081810360608301526138c181866127d5565b905081810360808301526138d581856127d5565b90506138e460a0830184613841565b979650505050505050565b7f43616c6c6572206973206e6f74207468652073747265616d206f776e65720000600082015250565b6000613925601e836127c4565b9150613930826138ef565b602082019050919050565b6000602082019050818103600083015261395481613918565b9050919050565b600060208201905061397060008301846127b5565b92915050565b7f53747265616d20776974682074686520676976656e20494420646f6573206e6f60008201527f74206578697374206f722068617320616c7265616479206265656e2073746f7060208201527f7065642e00000000000000000000000000000000000000000000000000000000604082015250565b60006139f86044836127c4565b9150613a0382613976565b606082019050919050565b60006020820190508181036000830152613a27816139eb565b9050919050565b7f4c69766553747265616d20616c72656164792065786973747300000000000000600082015250565b6000613a646019836127c4565b9150613a6f82613a2e565b602082019050919050565b60006020820190508181036000830152613a9381613a57565b9050919050565b6000819050919050565b6000613abf613aba613ab584613a9a565b612b19565b612462565b9050919050565b613acf81613aa4565b82525050565b6000604082019050613aea60008301856127b5565b613af76020830184613ac6565b9392505050565b600060c082019050613b1360008301896127a6565b613b2060208301886127b5565b8181036040830152613b3281876127d5565b90508181036060830152613b4681866127d5565b90508181036080830152613b5a81856127d5565b9050613b6960a083018461280e565b97965050505050505056fea2646970667358221220b0bc0f4f0daa0df3a5669c413e8984f9990cef2372239025ab99e28bf2f9cac264736f6c6343000818003360806040523480156200001157600080fd5b506040518060400160405280600881526020017f566964546f6b656e0000000000000000000000000000000000000000000000008152506040518060400160405280600381526020017f4e5654000000000000000000000000000000000000000000000000000000000081525081600390816200008f9190620005ff565b508060049081620000a19190620005ff565b505050620000c2336b033b2e3c9fd0803ce8000000620000c860201b60201c565b6200081d565b600073ffffffffffffffffffffffffffffffffffffffff168273ffffffffffffffffffffffffffffffffffffffff16036200013d5760006040517fec442f050000000000000000000000000000000000000000000000000000000081526004016200013491906200072b565b60405180910390fd5b62000151600083836200015560201b60201c565b5050565b600073ffffffffffffffffffffffffffffffffffffffff168373ffffffffffffffffffffffffffffffffffffffff1603620001ab5780600260008282546200019e919062000777565b9250508190555062000281565b60008060008573ffffffffffffffffffffffffffffffffffffffff1673ffffffffffffffffffffffffffffffffffffffff168152602001908152602001600020549050818110156200023a578381836040517fe450d38c0000000000000000000000000000000000000000000000000000000081526004016200023193929190620007c3565b60405180910390fd5b8181036000808673ffffffffffffffffffffffffffffffffffffffff1673ffffffffffffffffffffffffffffffffffffffff16815260200190815260200160002081905550505b600073ffffffffffffffffffffffffffffffffffffffff168273ffffffffffffffffffffffffffffffffffffffff1603620002cc578060026000828254039250508190555062000319565b806000808473ffffffffffffffffffffffffffffffffffffffff1673ffffffffffffffffffffffffffffffffffffffff168152602001908152602001600020600082825401925050819055505b8173ffffffffffffffffffffffffffffffffffffffff168373ffffffffffffffffffffffffffffffffffffffff167fddf252ad1be2c89b69c2b068fc378daa952ba7f163c4a11628f55a4df523b3ef8360405162000378919062000800565b60405180910390a3505050565b600081519050919050565b7f4e487b7100000000000000000000000000000000000000000000000000000000600052604160045260246000fd5b7f4e487b7100000000000000000000000000000000000000000000000000000000600052602260045260246000fd5b600060028204905060018216806200040757607f821691505b6020821081036200041d576200041c620003bf565b5b50919050565b60008190508160005260206000209050919050565b60006020601f8301049050919050565b600082821b905092915050565b600060088302620004877fffffffffffffffffffffffffffffffffffffffffffffffffffffffffffffffff8262000448565b62000493868362000448565b95508019841693508086168417925050509392505050565b6000819050919050565b6000819050919050565b6000620004e0620004da620004d484620004ab565b620004b5565b620004ab565b9050919050565b6000819050919050565b620004fc83620004bf565b620005146200050b82620004e7565b84845462000455565b825550505050565b600090565b6200052b6200051c565b62000538818484620004f1565b505050565b5b8181101562000560576200055460008262000521565b6001810190506200053e565b5050565b601f821115620005af57620005798162000423565b620005848462000438565b8101602085101562000594578190505b620005ac620005a38562000438565b8301826200053d565b50505b505050565b600082821c905092915050565b6000620005d460001984600802620005b4565b1980831691505092915050565b6000620005ef8383620005c1565b9150826002028217905092915050565b6200060a8262000385565b67ffffffffffffffff81111562000626576200062562000390565b5b620006328254620003ee565b6200063f82828562000564565b600060209050601f83116001811462000677576000841562000662578287015190505b6200066e8582620005e1565b865550620006de565b601f198416620006878662000423565b60005b82811015620006b1578489015182556001820191506020850194506020810190506200068a565b86831015620006d15784890151620006cd601f891682620005c1565b8355505b6001600288020188555050505b505050505050565b600073ffffffffffffffffffffffffffffffffffffffff82169050919050565b60006200071382620006e6565b9050919050565b620007258162000706565b82525050565b60006020820190506200074260008301846200071a565b92915050565b7f4e487b7100000000000000000000000000000000000000000000000000000000600052601160045260246000fd5b60006200078482620004ab565b91506200079183620004ab565b9250828201905080821115620007ac57620007ab62000748565b5b92915050565b620007bd81620004ab565b82525050565b6000606082019050620007da60008301866200071a565b620007e96020830185620007b2565b620007f86040830184620007b2565b949350505050565b6000602082019050620008176000830184620007b2565b92915050565b610e55806200082d6000396000f3fe608060405234801561001057600080fd5b50600436106100935760003560e01c8063313ce56711610066578063313ce5671461013457806370a082311461015257806395d89b4114610182578063a9059cbb146101a0578063dd62ed3e146101d057610093565b806306fdde0314610098578063095ea7b3146100b657806318160ddd146100e657806323b872dd14610104575b600080fd5b6100a0610200565b6040516100ad9190610aa9565b60405180910390f35b6100d060048036038101906100cb9190610b64565b610292565b6040516100dd9190610bbf565b60405180910390f35b6100ee6102b5565b6040516100fb9190610be9565b60405180910390f35b61011e60048036038101906101199190610c04565b6102bf565b60405161012b9190610bbf565b60405180910390f35b61013c6102ee565b6040516101499190610c73565b60405180910390f35b61016c60048036038101906101679190610c8e565b6102f7565b6040516101799190610be9565b60405180910390f35b61018a61033f565b6040516101979190610aa9565b60405180910390f35b6101ba60048036038101906101b59190610b64565b6103d1565b6040516101c79190610bbf565b60405180910390f35b6101ea60048036038101906101e59190610cbb565b6103f4565b6040516101f79190610be9565b60405180910390f35b60606003805461020f90610d2a565b80601f016020809104026020016040519081016040528092919081815260200182805461023b90610d2a565b80156102885780601f1061025d57610100808354040283529160200191610288565b820191906000526020600020905b81548152906001019060200180831161026b57829003601f168201915b5050505050905090565b60008061029d61047b565b90506102aa818585610483565b600191505092915050565b6000600254905090565b6000806102ca61047b565b90506102d7858285610495565b6102e2858585610529565b60019150509392505050565b60006012905090565b60008060008373ffffffffffffffffffffffffffffffffffffffff1673ffffffffffffffffffffffffffffffffffffffff168152602001908152602001600020549050919050565b60606004805461034e90610d2a565b80601f016020809104026020016040519081016040528092919081815260200182805461037a90610d2a565b80156103c75780601f1061039c576101008083540402835291602001916103c7565b820191906000526020600020905b8154815290600101906020018083116103aa57829003601f168201915b5050505050905090565b6000806103dc61047b565b90506103e9818585610529565b600191505092915050565b6000600160008473ffffffffffffffffffffffffffffffffffffffff1673ffffffffffffffffffffffffffffffffffffffff16815260200190815260200160002060008373ffffffffffffffffffffffffffffffffffffffff1673ffffffffffffffffffffffffffffffffffffffff16815260200190815260200160002054905092915050565b600033905090565b610490838383600161061d565b505050565b60006104a184846103f4565b90507fffffffffffffffffffffffffffffffffffffffffffffffffffffffffffffffff81146105235781811015610513578281836040517ffb8f41b200000000000000000000000000000000000000000000000000000000815260040161050a93929190610d6a565b60405180910390fd5b6105228484848403600061061d565b5b50505050565b600073ffffffffffffffffffffffffffffffffffffffff168373ffffffffffffffffffffffffffffffffffffffff160361059b5760006040517f96c6fd1e0000000000000000000000000000000000000000000000000000000081526004016105929190610da1565b60405180910390fd5b600073ffffffffffffffffffffffffffffffffffffffff168273ffffffffffffffffffffffffffffffffffffffff160361060d5760006040517fec442f050000000000000000000000000000000000000000000000000000000081526004016106049190610da1565b60405180910390fd5b6106188383836107f4565b505050565b600073ffffffffffffffffffffffffffffffffffffffff168473ffffffffffffffffffffffffffffffffffffffff160361068f5760006040517fe602df050000000000000000000000000000000000000000000000000000000081526004016106869190610da1565b60405180910390fd5b600073ffffffffffffffffffffffffffffffffffffffff168373ffffffffffffffffffffffffffffffffffffffff16036107015760006040517f94280d620000000000000000000000000000000000000000000000000000000081526004016106f89190610da1565b60405180910390fd5b81600160008673ffffffffffffffffffffffffffffffffffffffff1673ffffffffffffffffffffffffffffffffffffffff16815260200190815260200160002060008573ffffffffffffffffffffffffffffffffffffffff1673ffffffffffffffffffffffffffffffffffffffff1681526020019081526020016000208190555080156107ee578273ffffffffffffffffffffffffffffffffffffffff168473ffffffffffffffffffffffffffffffffffffffff167f8c5be1e5ebec7d5bd14f71427d1e84f3dd0314c0f7b2291e5b200ac8c7c3b925846040516107e59190610be9565b60405180910390a35b50505050565b600073ffffffffffffffffffffffffffffffffffffffff168373ffffffffffffffffffffffffffffffffffffffff160361084657806002600082825461083a9190610deb565b92505081905550610919565b60008060008573ffffffffffffffffffffffffffffffffffffffff1673ffffffffffffffffffffffffffffffffffffffff168152602001908152602001600020549050818110156108d2578381836040517fe450d38c0000000000000000000000000000000000000000000000000000000081526004016108c993929190610d6a565b60405180910390fd5b8181036000808673ffffffffffffffffffffffffffffffffffffffff1673ffffffffffffffffffffffffffffffffffffffff16815260200190815260200160002081905550505b600073ffffffffffffffffffffffffffffffffffffffff168273ffffffffffffffffffffffffffffffffffffffff160361096257806002600082825403925050819055506109af565b806000808473ffffffffffffffffffffffffffffffffffffffff1673ffffffffffffffffffffffffffffffffffffffff168152602001908152602001600020600082825401925050819055505b8173ffffffffffffffffffffffffffffffffffffffff168373ffffffffffffffffffffffffffffffffffffffff167fddf252ad1be2c89b69c2b068fc378daa952ba7f163c4a11628f55a4df523b3ef83604051610a0c9190610be9565b60405180910390a3505050565b600081519050919050565b600082825260208201905092915050565b60005b83811015610a53578082015181840152602081019050610a38565b60008484015250505050565b6000601f19601f8301169050919050565b6000610a7b82610a19565b610a858185610a24565b9350610a95818560208601610a35565b610a9e81610a5f565b840191505092915050565b60006020820190508181036000830152610ac38184610a70565b905092915050565b600080fd5b600073ffffffffffffffffffffffffffffffffffffffff82169050919050565b6000610afb82610ad0565b9050919050565b610b0b81610af0565b8114610b1657600080fd5b50565b600081359050610b2881610b02565b92915050565b6000819050919050565b610b4181610b2e565b8114610b4c57600080fd5b50565b600081359050610b5e81610b38565b92915050565b60008060408385031215610b7b57610b7a610acb565b5b6000610b8985828601610b19565b9250506020610b9a85828601610b4f565b9150509250929050565b60008115159050919050565b610bb981610ba4565b82525050565b6000602082019050610bd46000830184610bb0565b92915050565b610be381610b2e565b82525050565b6000602082019050610bfe6000830184610bda565b92915050565b600080600060608486031215610c1d57610c1c610acb565b5b6000610c2b86828701610b19565b9350506020610c3c86828701610b19565b9250506040610c4d86828701610b4f565b9150509250925092565b600060ff82169050919050565b610c6d81610c57565b82525050565b6000602082019050610c886000830184610c64565b92915050565b600060208284031215610ca457610ca3610acb565b5b6000610cb284828501610b19565b91505092915050565b60008060408385031215610cd257610cd1610acb565b5b6000610ce085828601610b19565b9250506020610cf185828601610b19565b9150509250929050565b7f4e487b7100000000000000000000000000000000000000000000000000000000600052602260045260246000fd5b60006002820490506001821680610d4257607f821691505b602082108103610d5557610d54610cfb565b5b50919050565b610d6481610af0565b82525050565b6000606082019050610d7f6000830186610d5b565b610d8c6020830185610bda565b610d996040830184610bda565b949350505050565b6000602082019050610db66000830184610d5b565b92915050565b7f4e487b7100000000000000000000000000000000000000000000000000000000600052601160045260246000fd5b6000610df682610b2e565b9150610e0183610b2e565b9250828201905080821115610e1957610e18610dbc565b5b9291505056fea2646970667358221220b9c470d6b3855fc285d689c8907bbbcb638be898bed067bf7bf5eef1df53751b64736f6c63430008180033",
  "linkReferences": {},
  "deployedLinkReferences": {}
}