{
  "_format": "hh-sol-artifact-1",
  "contractName": "VideoPlatform",
  "sourceName": "contracts/Vidverse.sol",
  "abi": [
    {
      "inputs": [],
      "stateMutability": "nonpayable",
      "type": "constructor"
    },
    {
      "anonymous": false,
      "inputs": [
        {
          "indexed": false,
          "internalType": "uint256",
          "name": "id",
          "type": "uint256"
        },
        {
          "indexed": false,
          "internalType": "address",
          "name": "owner",
          "type": "address"
        },
        {
          "indexed": false,
          "internalType": "string",
          "name": "stramName",
          "type": "string"
        },
        {
          "indexed": false,
          "internalType": "string",
          "name": "description",
          "type": "string"
        },
        {
          "indexed": false,
          "internalType": "string",
          "name": "playBackId",
          "type": "string"
        },
        {
          "indexed": false,
          "internalType": "bool",
          "name": "status",
          "type": "bool"
        },
        {
          "indexed": false,
          "internalType": "string",
          "name": "streamKey",
          "type": "string"
        },
        {
          "indexed": false,
          "internalType": "string",
          "name": "streamID",
          "type": "string"
        },
        {
          "indexed": false,
          "internalType": "string",
          "name": "username",
          "type": "string"
        },
        {
          "indexed": false,
          "internalType": "uint256",
          "name": "likes",
          "type": "uint256"
        },
        {
          "indexed": false,
          "internalType": "uint256",
          "name": "dislikes",
          "type": "uint256"
        },
        {
          "indexed": false,
          "internalType": "string",
          "name": "genre",
          "type": "string"
        }
      ],
      "name": "CreatedStream",
      "type": "event"
    },
    {
      "anonymous": false,
      "inputs": [
        {
          "indexed": true,
          "internalType": "uint256",
          "name": "streamId",
          "type": "uint256"
        },
        {
          "indexed": true,
          "internalType": "address",
          "name": "user",
          "type": "address"
        }
      ],
      "name": "StreamDisliked",
      "type": "event"
    },
    {
      "anonymous": false,
      "inputs": [
        {
          "indexed": true,
          "internalType": "uint256",
          "name": "streamId",
          "type": "uint256"
        },
        {
          "indexed": true,
          "internalType": "address",
          "name": "user",
          "type": "address"
        }
      ],
      "name": "StreamLiked",
      "type": "event"
    },
    {
      "anonymous": false,
      "inputs": [
        {
          "indexed": true,
          "internalType": "uint256",
          "name": "id",
          "type": "uint256"
        },
        {
          "indexed": false,
          "internalType": "address",
          "name": "owner",
          "type": "address"
        }
      ],
      "name": "StreamStopped",
      "type": "event"
    },
    {
      "anonymous": false,
      "inputs": [
        {
          "indexed": true,
          "internalType": "uint256",
          "name": "streamId",
          "type": "uint256"
        },
        {
          "indexed": true,
          "internalType": "address",
          "name": "owner",
          "type": "address"
        },
        {
          "indexed": false,
          "internalType": "address",
          "name": "tipper",
          "type": "address"
        },
        {
          "indexed": false,
          "internalType": "uint256",
          "name": "amount",
          "type": "uint256"
        },
        {
          "indexed": false,
          "internalType": "uint256",
          "name": "newTipAmount",
          "type": "uint256"
        }
      ],
      "name": "StreamTipped",
      "type": "event"
    },
    {
      "anonymous": false,
      "inputs": [
        {
          "indexed": true,
          "internalType": "address",
          "name": "subscriber",
          "type": "address"
        },
        {
          "indexed": true,
          "internalType": "address",
          "name": "creator",
          "type": "address"
        }
      ],
      "name": "SubscribedToCreator",
      "type": "event"
    },
    {
      "anonymous": false,
      "inputs": [
        {
          "indexed": true,
          "internalType": "address",
          "name": "subscriber",
          "type": "address"
        },
        {
          "indexed": true,
          "internalType": "address",
          "name": "creator",
          "type": "address"
        }
      ],
      "name": "UnsubscribedFromCreator",
      "type": "event"
    },
    {
      "anonymous": false,
      "inputs": [
        {
          "indexed": true,
          "internalType": "address",
          "name": "userAddress",
          "type": "address"
        },
        {
          "indexed": false,
          "internalType": "string",
          "name": "username",
          "type": "string"
        },
        {
          "indexed": false,
          "internalType": "string",
          "name": "chatRoom",
          "type": "string"
        }
      ],
      "name": "UserRegistered",
      "type": "event"
    },
    {
      "anonymous": false,
      "inputs": [
        {
          "indexed": true,
          "internalType": "uint256",
          "name": "videoId",
          "type": "uint256"
        },
        {
          "indexed": true,
          "internalType": "address",
          "name": "user",
          "type": "address"
        }
      ],
      "name": "VideoDisliked",
      "type": "event"
    },
    {
      "anonymous": false,
      "inputs": [
        {
          "indexed": true,
          "internalType": "uint256",
          "name": "videoId",
          "type": "uint256"
        },
        {
          "indexed": true,
          "internalType": "address",
          "name": "user",
          "type": "address"
        }
      ],
      "name": "VideoLiked",
      "type": "event"
    },
    {
      "anonymous": false,
      "inputs": [
        {
          "indexed": true,
          "internalType": "uint256",
          "name": "videoId",
          "type": "uint256"
        },
        {
          "indexed": true,
          "internalType": "address",
          "name": "owner",
          "type": "address"
        },
        {
          "indexed": false,
          "internalType": "address",
          "name": "tipper",
          "type": "address"
        },
        {
          "indexed": false,
          "internalType": "uint256",
          "name": "amount",
          "type": "uint256"
        },
        {
          "indexed": false,
          "internalType": "uint256",
          "name": "newTipAmount",
          "type": "uint256"
        }
      ],
      "name": "VideoTipped",
      "type": "event"
    },
    {
      "anonymous": false,
      "inputs": [
        {
          "indexed": false,
          "internalType": "uint256",
          "name": "id",
          "type": "uint256"
        },
        {
          "indexed": false,
          "internalType": "address",
          "name": "owner",
          "type": "address"
        },
        {
          "indexed": false,
          "internalType": "string",
          "name": "title",
          "type": "string"
        },
        {
          "indexed": false,
          "internalType": "string",
          "name": "description",
          "type": "string"
        },
        {
          "indexed": false,
          "internalType": "string",
          "name": "ipfsHash",
          "type": "string"
        },
        {
          "indexed": false,
          "internalType": "string",
          "name": "username",
          "type": "string"
        },
        {
          "indexed": false,
          "internalType": "uint256",
          "name": "likes",
          "type": "uint256"
        },
        {
          "indexed": false,
          "internalType": "uint256",
          "name": "dislikes",
          "type": "uint256"
        },
        {
          "indexed": false,
          "internalType": "string",
          "name": "genre",
          "type": "string"
        }
      ],
      "name": "VideoUploaded",
      "type": "event"
    },
    {
      "inputs": [
        {
          "internalType": "string",
          "name": "_username",
          "type": "string"
        },
        {
          "internalType": "address",
          "name": "userAddress",
          "type": "address"
        },
        {
          "internalType": "string",
          "name": "chatRoom",
          "type": "string"
        }
      ],
      "name": "createChatRoom",
      "outputs": [],
      "stateMutability": "nonpayable",
      "type": "function"
    },
    {
      "inputs": [
        {
          "internalType": "address",
          "name": "userAddr",
          "type": "address"
        },
        {
          "internalType": "string",
          "name": "_title",
          "type": "string"
        },
        {
          "internalType": "string",
          "name": "_description",
          "type": "string"
        },
        {
          "internalType": "string",
          "name": "_playbackId",
          "type": "string"
        },
        {
          "internalType": "string",
          "name": "streamKey",
          "type": "string"
        },
        {
          "internalType": "string",
          "name": "_streamID",
          "type": "string"
        },
        {
          "internalType": "string",
          "name": "_genre",
          "type": "string"
        }
      ],
      "name": "createStream",
      "outputs": [],
      "stateMutability": "nonpayable",
      "type": "function"
    },
    {
      "inputs": [
        {
          "internalType": "uint256",
          "name": "_streamId",
          "type": "uint256"
        },
        {
          "internalType": "address",
          "name": "addr",
          "type": "address"
        }
      ],
      "name": "dislikeStream",
      "outputs": [],
      "stateMutability": "nonpayable",
      "type": "function"
    },
    {
      "inputs": [
        {
          "internalType": "uint256",
          "name": "_videoId",
          "type": "uint256"
        },
        {
          "internalType": "address",
          "name": "addr",
          "type": "address"
        }
      ],
      "name": "dislikeVideo",
      "outputs": [],
      "stateMutability": "nonpayable",
      "type": "function"
    },
    {
      "inputs": [
        {
          "internalType": "address",
          "name": "addr",
          "type": "address"
        }
      ],
      "name": "getMySubscriptions",
      "outputs": [
        {
          "internalType": "address[]",
          "name": "",
          "type": "address[]"
        }
      ],
      "stateMutability": "view",
      "type": "function"
    },
    {
      "inputs": [
        {
          "internalType": "uint256",
          "name": "_streamId",
          "type": "uint256"
        },
        {
          "internalType": "address",
          "name": "addr",
          "type": "address"
        }
      ],
      "name": "likeStream",
      "outputs": [],
      "stateMutability": "nonpayable",
      "type": "function"
    },
    {
      "inputs": [
        {
          "internalType": "uint256",
          "name": "_videoId",
          "type": "uint256"
        },
        {
          "internalType": "address",
          "name": "addr",
          "type": "address"
        }
      ],
      "name": "likeVideo",
      "outputs": [],
      "stateMutability": "nonpayable",
      "type": "function"
    },
    {
      "inputs": [
        {
          "internalType": "uint256",
          "name": "",
          "type": "uint256"
        }
      ],
      "name": "liveStreams",
      "outputs": [
        {
          "internalType": "uint256",
          "name": "id",
          "type": "uint256"
        },
        {
          "internalType": "address",
          "name": "owner",
          "type": "address"
        },
        {
          "internalType": "string",
          "name": "stramName",
          "type": "string"
        },
        {
          "internalType": "string",
          "name": "description",
          "type": "string"
        },
        {
          "internalType": "string",
          "name": "playBackId",
          "type": "string"
        },
        {
          "internalType": "uint256",
          "name": "tipAmount",
          "type": "uint256"
        },
        {
          "internalType": "bool",
          "name": "status",
          "type": "bool"
        },
        {
          "internalType": "string",
          "name": "streamKey",
          "type": "string"
        },
        {
          "internalType": "string",
          "name": "streamID",
          "type": "string"
        },
        {
          "internalType": "string",
          "name": "username",
          "type": "string"
        },
        {
          "internalType": "uint256",
          "name": "likes",
          "type": "uint256"
        },
        {
          "internalType": "uint256",
          "name": "dislikes",
          "type": "uint256"
        },
        {
          "internalType": "string",
          "name": "genre",
          "type": "string"
        }
      ],
      "stateMutability": "view",
      "type": "function"
    },
    {
      "inputs": [],
      "name": "myToken",
      "outputs": [
        {
          "internalType": "contract ERC20",
          "name": "",
          "type": "address"
        }
      ],
      "stateMutability": "view",
      "type": "function"
    },
    {
      "inputs": [
        {
          "internalType": "string",
          "name": "_username",
          "type": "string"
        },
        {
          "internalType": "address",
          "name": "userAddress",
          "type": "address"
        }
      ],
      "name": "registerUser",
      "outputs": [],
      "stateMutability": "nonpayable",
      "type": "function"
    },
    {
      "inputs": [
        {
          "internalType": "address",
          "name": "useAddress",
          "type": "address"
        },
        {
          "internalType": "string",
          "name": "_streamID",
          "type": "string"
        }
      ],
      "name": "stopStreamByStreamID",
      "outputs": [],
      "stateMutability": "nonpayable",
      "type": "function"
    },
    {
      "inputs": [
        {
          "internalType": "uint256",
          "name": "",
          "type": "uint256"
        },
        {
          "internalType": "address",
          "name": "",
          "type": "address"
        }
      ],
      "name": "streamDislikes",
      "outputs": [
        {
          "internalType": "bool",
          "name": "",
          "type": "bool"
        }
      ],
      "stateMutability": "view",
      "type": "function"
    },
    {
      "inputs": [
        {
          "internalType": "uint256",
          "name": "",
          "type": "uint256"
        },
        {
          "internalType": "address",
          "name": "",
          "type": "address"
        }
      ],
      "name": "streamLikes",
      "outputs": [
        {
          "internalType": "bool",
          "name": "",
          "type": "bool"
        }
      ],
      "stateMutability": "view",
      "type": "function"
    },
    {
      "inputs": [
        {
          "internalType": "address",
          "name": "creatorAddress",
          "type": "address"
        },
        {
          "internalType": "address",
          "name": "addr",
          "type": "address"
        }
      ],
      "name": "subscribeToCreator",
      "outputs": [],
      "stateMutability": "nonpayable",
      "type": "function"
    },
    {
      "inputs": [
        {
          "internalType": "address",
          "name": "userAddr",
          "type": "address"
        },
        {
          "internalType": "uint256",
          "name": "_streamId",
          "type": "uint256"
        },
        {
          "internalType": "uint256",
          "name": "_amount",
          "type": "uint256"
        }
      ],
      "name": "tipStreamOwner",
      "outputs": [],
      "stateMutability": "payable",
      "type": "function"
    },
    {
      "inputs": [
        {
          "internalType": "address",
          "name": "userAddre",
          "type": "address"
        },
        {
          "internalType": "uint256",
          "name": "_videoId",
          "type": "uint256"
        },
        {
          "internalType": "uint256",
          "name": "_amount",
          "type": "uint256"
        }
      ],
      "name": "tipVideoOwner",
      "outputs": [],
      "stateMutability": "payable",
      "type": "function"
    },
    {
      "inputs": [
        {
          "internalType": "address",
          "name": "creatorAddress",
          "type": "address"
        },
        {
          "internalType": "address",
          "name": "addr",
          "type": "address"
        }
      ],
      "name": "unsubscribeFromCreator",
      "outputs": [],
      "stateMutability": "nonpayable",
      "type": "function"
    },
    {
      "inputs": [
        {
          "internalType": "address",
          "name": "userAddr",
          "type": "address"
        },
        {
          "internalType": "string",
          "name": "_title",
          "type": "string"
        },
        {
          "internalType": "string",
          "name": "_description",
          "type": "string"
        },
        {
          "internalType": "string",
          "name": "_ipfsHash",
          "type": "string"
        },
        {
          "internalType": "string",
          "name": "_genre",
          "type": "string"
        }
      ],
      "name": "uploadVideo",
      "outputs": [],
      "stateMutability": "nonpayable",
      "type": "function"
    },
    {
      "inputs": [
        {
          "internalType": "address",
          "name": "",
          "type": "address"
        }
      ],
      "name": "users",
      "outputs": [
        {
          "internalType": "address",
          "name": "addr",
          "type": "address"
        },
        {
          "internalType": "string",
          "name": "username",
          "type": "string"
        },
        {
          "internalType": "string",
          "name": "chatRoom",
          "type": "string"
        }
      ],
      "stateMutability": "view",
      "type": "function"
    },
    {
      "inputs": [
        {
          "internalType": "uint256",
          "name": "",
          "type": "uint256"
        },
        {
          "internalType": "address",
          "name": "",
          "type": "address"
        }
      ],
      "name": "videoDislikes",
      "outputs": [
        {
          "internalType": "bool",
          "name": "",
          "type": "bool"
        }
      ],
      "stateMutability": "view",
      "type": "function"
    },
    {
      "inputs": [
        {
          "internalType": "uint256",
          "name": "",
          "type": "uint256"
        },
        {
          "internalType": "address",
          "name": "",
          "type": "address"
        }
      ],
      "name": "videoLikes",
      "outputs": [
        {
          "internalType": "bool",
          "name": "",
          "type": "bool"
        }
      ],
      "stateMutability": "view",
      "type": "function"
    },
    {
      "inputs": [
        {
          "internalType": "uint256",
          "name": "",
          "type": "uint256"
        }
      ],
      "name": "videos",
      "outputs": [
        {
          "internalType": "uint256",
          "name": "id",
          "type": "uint256"
        },
        {
          "internalType": "address",
          "name": "owner",
          "type": "address"
        },
        {
          "internalType": "string",
          "name": "title",
          "type": "string"
        },
        {
          "internalType": "string",
          "name": "description",
          "type": "string"
        },
        {
          "internalType": "string",
          "name": "ipfsHash",
          "type": "string"
        },
        {
          "internalType": "uint256",
          "name": "tipAmount",
          "type": "uint256"
        },
        {
          "internalType": "string",
          "name": "username",
          "type": "string"
        },
        {
          "internalType": "uint256",
          "name": "likes",
          "type": "uint256"
        },
        {
          "internalType": "uint256",
          "name": "dislikes",
          "type": "uint256"
        },
        {
          "internalType": "string",
          "name": "genre",
          "type": "string"
        }
      ],
      "stateMutability": "view",
      "type": "function"
    }
  ],
  "bytecode": "0x608080604052346200008a57610a408181016001600160401b03811183821017620000745782916200360a833903906000f080156200006857600880546001600160a01b0319166001600160a01b039290921691909117905560405161357a9081620000908239f35b6040513d6000823e3d90fd5b634e487b7160e01b600052604160045260246000fd5b600080fdfe608080604052600436101561001357600080fd5b60003560e01c9081630b64dab414612df2575080630e54b87214612932578063130d89451461287c57806328558b3f1461282f5780632b074830146126685780632cc9d4ab146123d65780635b2eda8b14612389578063604031241461215457806361746a5c14612107578063727e1eb814611f9257806374757e1114611f0357806377169c4514611d8e5780639b3e783f146112075780639c25eccf14611178578063a87430ba146110e6578063a97d33b314610f01578063aea78024146105a3578063b8fcf9371461057a578063b9242e121461045c578063e6821bf51461030a578063f049a975146102bd5763f64b35661461011157600080fd5b346102b85760403660031901126102b85761012a613084565b6001600160a01b038061013b61306e565b1680600052600060205260406000209161015981845416151561345c565b6003928301805494821694600019948660005b83811061028a575b505050909192936000811261024557600019820191821161022f576101af846101a06101cd948661352c565b90549060031b1c16918461352c565b90919060018060a01b038084549260031b9316831b921b1916179055565b805480156102195760001901916101e4838361352c565b909182549160031b1b19169055557f95a70275c11f622b135eb6dc26da86da35fb0a0bd9028874c8c1f30198065aec600080a3005b634e487b7160e01b600052603160045260246000fd5b634e487b7160e01b600052601160045260246000fd5b60405162461bcd60e51b815260206004820152601e60248201527f4e6f74207375627363726962656420746f20746869732063726561746f7200006044820152606490fd5b8186610296838861352c565b905490861b1c16146102aa5760010161016c565b965038915087905081610174565b600080fd5b346102b85760403660031901126102b8576102d661306e565b600435600052600260205260406000209060018060a01b0316600052602052602060ff604060002054166040519015158152f35b346102b85760203660031901126102b8576004356006548110156102b857610331906132bf565b5080549061045860018060a01b03600183015416916009604051916103648361035d81600285016131e1565b03846130df565b61043e6040516103828161037b81600387016131e1565b03826130df565b6040519061039e8261039781600488016131e1565b03836130df565b61042b60058501549261041d604051936103c6856103bf8160068c016131e1565b03866130df565b61040f60078901549a6103ef60088b01549a6103e8604051809e8193016131e1565b038c6130df565b6040519e8f9e8f906101409282526020820152816040820152019061329a565b8c810360608e01529061329a565b908a820360808c015261329a565b9160a089015287820360c089015261329a565b9260e086015261010085015283820361012085015261329a565b0390f35b346102b85760403660031901126102b857610475613084565b6001600160a01b038061048661306e565b16908160005260209260006020526040600020936104a883865416151561345c565b600094600380910191825494808516975b8681106105205750505050600160401b83101561050a57826101af9160016104e39501815561352c565b7fbd347d1e803a8fd8e211fb59a6146afdc81bc3b357c9a05789d53fa14e9882a2600080a3005b634e487b7160e01b600052604160045260246000fd5b888261052c838861352c565b905490871b1c1614610540576001016104b9565b60405162461bcd60e51b8152600481018490526012602482015271105b1c9958591e481cdd589cd8dc9a58995960721b6044820152606490fd5b346102b85760003660031901126102b8576008546040516001600160a01b039091168152602090f35b346102b85760a03660031901126102b8576105bc613084565b6024356001600160401b0381116102b8576105db903690600401613100565b906044356001600160401b0381116102b8576105fb903690600401613100565b906064356001600160401b0381116102b85761061b903690600401613100565b916084356001600160401b0381116102b85761063b903690600401613100565b60018060a01b03831660005260006020526106676106606001604060002001546131a7565b151561345c565b6006549160005b838110610e35575060018060a01b038416600052600060205260016040600020019560405196876101408101106001600160401b036101408a01111761050a576106f361037b916101408a01604052868a5260018060a01b03881660208b01528360408b01528460608b01528860808b0152600060a08b0152604051928380926131e1565b60c0880152600060e0880152600061010088015282610120880152600160401b84101561050a576001840160065561072a846132bf565b979097610e1f57805188556001880160018060a01b036020830151166001600160601b0360a01b82541617905560408101518051906001600160401b03821161050a57819061077c60028c01546131a7565b601f8111610dea575b50602090601f8311600114610d7857600092610d6d575b50508160011b916000199060031b1c19161760028901555b60608101518051906001600160401b03821161050a5781906107d960038c01546131a7565b601f8111610d38575b50602090601f8311600114610cc657600092610cbb575b50508160011b916000199060031b1c19161760038901555b60808101518051906001600160401b03821161050a57819061083660048c01546131a7565b601f8111610c86575b50602090601f8311600114610c1457600092610c09575b50508160011b916000199060031b1c19161760048901555b60a0810151600589015560c08101518051906001600160401b03821161050a5761089b60068b01546131a7565b601f8111610bd4575b50602090601f8311600114610b605761012093929160009183610b55575b50508160011b916000199060031b1c19161760068a01555b60e081015160078a015561010081015160088a015501519687516001600160401b03811161050a5761090f60098301546131a7565b601f8111610b15575b506020601f8211600114610aa2579080600992600098999a9b8992610a97575b50508160011b9188199060031b1c1916179101555b60085460405163a9059cbb60e01b81526001600160a01b03888116600483015268056bc75e2d6310000060248301529095602092879260449284929091165af1938415610a8b577fc80a81d8e4e89d26727e524a8cd278080ba756275303864f957c168f7bf3ce2297610a1e610a3a94610a2c93610a5798610a5c575b5060018060a01b038a166000526000602052610a106001604060002001956040519b8c9b8c5260018060a01b031660208c015261012060408c01526101208b019061329a565b9089820360608b015261329a565b90878203608089015261329a565b9085820360a08701526131e1565b90600060c0850152600060e085015283820361010085015261329a565b0390a1005b610a7d9060203d602011610a84575b610a7581836130df565b81019061338b565b508b6109ca565b503d610a6b565b6040513d6000823e3d90fd5b015190508b80610938565b6009830160005260206000209960005b601f1984168110610afd57509160009798999a60019260099483601f19811610610ae5575b505050811b0191015561094d565b0151891960f88460031b161c191690558b8080610ad7565b828201518c556001909b019a60209283019201610ab2565b610b4590600984016000526020600020601f840160051c81019160208510610b4b575b601f0160051c0190613406565b89610918565b9091508190610b38565b015190508b806108c2565b9060068b0160005260206000209160005b601f1985168110610bbc57509183916001936101209695601f19811610610ba3575b505050811b0160068a01556108da565b015160001960f88460031b161c191690558b8080610b93565b91926020600181928685015181550194019201610b71565b610c039060068c016000526020600020601f850160051c81019160208610610b4b57601f0160051c0190613406565b8a6108a4565b015190508a80610856565b925060048b016000526020600020906000935b601f1984168510610c6b576001945083601f19811610610c52575b505050811b01600489015561086e565b015160001960f88460031b161c191690558a8080610c42565b81810151835560209485019460019093019290910190610c27565b610cb59060048d016000526020600020601f850160051c81019160208610610b4b57601f0160051c0190613406565b8b61083f565b015190508a806107f9565b925060038b016000526020600020906000935b601f1984168510610d1d576001945083601f19811610610d04575b505050811b016003890155610811565b015160001960f88460031b161c191690558a8080610cf4565b81810151835560209485019460019093019290910190610cd9565b610d679060038d016000526020600020601f850160051c81019160208610610b4b57601f0160051c0190613406565b8b6107e2565b015190508a8061079c565b925060028b016000526020600020906000935b601f1984168510610dcf576001945083601f19811610610db6575b505050811b0160028901556107b4565b015160001960f88460031b161c191690558a8080610da6565b81810151835560209485019460019093019290910190610d8b565b610e199060028d016000526020600020601f850160051c81019160208610610b4b57601f0160051c0190613406565b8b610785565b634e487b7160e01b600052600060045260246000fd5b6004610e5a610e68610e46846132bf565b5060405192839160208301958691016134a8565b03601f1981018352826130df565b5190206040516020810190610e9760208281610e8a8d87815193849201613277565b81010380845201826130df565b51902014610ea75760010161066e565b60405162461bcd60e51b815260206004820152602c60248201527f566964656f2077697468207468652073616d652049504653206861736820616c60448201526b72656164792065786973747360a01b6064820152608490fd5b346102b85760403660031901126102b857610f1a613084565b602480356001600160401b0381116102b857610f3b83913690600401613100565b6020926000929091848101845b6007548110156110dc576008610e5a610f76610f6384613156565b506040519283918c8301958691016134a8565b51902060405188810190610f928a828851610e8a81878b613277565b51902014610fa257600101610f48565b929394505050610fb181613156565b5060019081015490936001600160a01b039384169390911683036110995750836110108260066110017fd95eebb8ae85b521a4f98aff3b92d8cd7ecf3f002024835c0e9716cf2bdea20895613156565b5001805460ff19169055613156565b505492604051908152a25b1561102257005b60a4906040519062461bcd60e51b82526004820152604460248201527f53747265616d20776974682074686520676976656e20494420646f6573206e6f60448201527f74206578697374206f722068617320616c7265616479206265656e2073746f706064820152633832b21760e11b6084820152fd5b84601e6064926040519262461bcd60e51b845260048401528201527f43616c6c6572206973206e6f74207468652073747265616d206f776e657200006044820152fd5b505050505061101b565b346102b85760203660031901126102b8576001600160a01b0380611108613084565b166000526000602052604060002090815416610458600261114e6040519461113e8661113781600185016131e1565b03876130df565b61037b60405180948193016131e1565b61116a604051948594855260606020860152606085019061329a565b90838203604085015261329a565b346102b85760403660031901126102b85760043561119461306e565b9080600052600360205260406000209160018060a01b031691826000526020526040600020600160ff19825416179055600a6111cf82613156565b50018054906001820180921161022f57557f30323ec886c1234054ab4377b40a4ac9815c11710f0eaba566df8d1910bd977e600080a3005b346102b85760e03660031901126102b857611220613084565b6024356001600160401b0381116102b85761123f903690600401613100565b6044356001600160401b0381116102b85761125e903690600401613100565b906064356001600160401b0381116102b85761127e903690600401613100565b906084356001600160401b0381116102b85761129e903690600401613100565b60a4356001600160401b0381116102b8576112bd903690600401613100565b9060c4356001600160401b0381116102b8576112dd903690600401613100565b9360018060a01b03871660005260006020526113036106606001604060002001546131a7565b6007549560005b878110611d08575060018060a01b0388166000526000602052600160406000200160405190816101a08101106001600160401b036101a08401111761050a576113a261037b916101a084016040528a845260018060a01b038c166020850152886040850152846060850152856080850152600060a0850152600160c08501528660e085015287610100850152604051928380926131e1565b6101208201526000610140820152600061016082015286610180820152600160401b88101561050a57600188016007556113db88613156565b919091610e1f57805182556001820160018060a01b036020830151166001600160601b0360a01b82541617905560408101518051906001600160401b03821161050a57819061142d60028601546131a7565b601f8111611cd3575b50602090601f8311600114611c6157600092611c56575b50508160011b916000199060031b1c19161760028301555b60608101518051906001600160401b03821161050a57819061148a60038601546131a7565b601f8111611c21575b50602090601f8311600114611baf57600092611ba4575b50508160011b916000199060031b1c19161760038301555b60808101518051906001600160401b03821161050a5781906114e760048601546131a7565b601f8111611b6f575b50602090601f8311600114611afd57600092611af2575b50508160011b916000199060031b1c19161760048301555b60a081015160058301556006820160c0820151151560ff8019835416911617905560e08101518051906001600160401b03821161050a57819061156560078601546131a7565b601f8111611abd575b50602090601f8311600114611a4b57600092611a40575b50508160011b916000199060031b1c19161760078301555b6101008101518051906001600160401b03821161050a5781906115c360088601546131a7565b601f8111611a0b575b50602090601f83116001146119995760009261198e575b50508160011b916000199060031b1c19161760088301555b6101208101518051906001600160401b03821161050a5761161f60098501546131a7565b601f8111611959575b50602090601f83116001146118e557610180939291600091836118da575b50508160011b916000199060031b1c19161760098401555b610140810151600a840155610160810151600b84015501518051906001600160401b03821161050a57611694600c8401546131a7565b601f81116118a5575b50602090601f831160011461183557600c92916000918361182a575b50508160011b916000199060031b1c1916179101555b60085460405163a9059cbb60e01b81526001600160a01b038a81166004830152683635c9adc5dea000006024830152909160209183916044918391600091165af18015610a8b5761180b575b50600160a01b60019003881660005260006020526040600020600101946040519889988952600160a01b6001900316602089015260408801610180905261018088016117669161329a565b87810360608901526117779161329a565b86810360808801526117889161329a565b600160a087015285810360c08701526117a09161329a565b84810360e08601526117b19161329a565b8381036101008501526117c3916131e1565b600061012084018190526101408401528281036101608401526117e59161329a565b037ffec25baaa8c008ac1e8dfa0eaabf4f83ed3ec6bc1d2a0fb06fe1ed313c88661591a1005b6118239060203d602011610a8457610a7581836130df565b508861171b565b015190508c806116b9565b90600c840160005260206000209160005b601f198516811061188d5750918391600193600c95601f19811610611874575b505050811b019101556116cf565b015160001960f88460031b161c191690558c8080611866565b91926020600181928685015181550194019201611846565b6118d490600c85016000526020600020601f850160051c81019160208610610b4b57601f0160051c0190613406565b8b61169d565b015190508d80611646565b906009850160005260206000209160005b601f198516811061194157509183916001936101809695601f19811610611928575b505050811b01600984015561165e565b015160001960f88460031b161c191690558d8080611918565b919260206001819286850151815501940192016118f6565b61198890600986016000526020600020601f850160051c81019160208610610b4b57601f0160051c0190613406565b8c611628565b015190508c806115e3565b9250600885016000526020600020906000935b601f19841685106119f0576001945083601f198116106119d7575b505050811b0160088301556115fb565b015160001960f88460031b161c191690558c80806119c7565b818101518355602094850194600190930192909101906119ac565b611a3a90600887016000526020600020601f850160051c81019160208610610b4b57601f0160051c0190613406565b8d6115cc565b015190508c80611585565b9250600785016000526020600020906000935b601f1984168510611aa2576001945083601f19811610611a89575b505050811b01600783015561159d565b015160001960f88460031b161c191690558c8080611a79565b81810151835560209485019460019093019290910190611a5e565b611aec90600787016000526020600020601f850160051c81019160208610610b4b57601f0160051c0190613406565b8d61156e565b015190508c80611507565b9250600485016000526020600020906000935b601f1984168510611b54576001945083601f19811610611b3b575b505050811b01600483015561151f565b015160001960f88460031b161c191690558c8080611b2b565b81810151835560209485019460019093019290910190611b10565b611b9e90600487016000526020600020601f850160051c81019160208610610b4b57601f0160051c0190613406565b8d6114f0565b015190508c806114aa565b9250600385016000526020600020906000935b601f1984168510611c06576001945083601f19811610611bed575b505050811b0160038301556114c2565b015160001960f88460031b161c191690558c8080611bdd565b81810151835560209485019460019093019290910190611bc2565b611c5090600387016000526020600020601f850160051c81019160208610610b4b57601f0160051c0190613406565b8d611493565b015190508c8061144d565b9250600285016000526020600020906000935b601f1984168510611cb8576001945083601f19811610611c9f575b505050811b016002830155611465565b015160001960f88460031b161c191690558c8080611c8f565b81810151835560209485019460019093019290910190611c74565b611d0290600287016000526020600020601f850160051c81019160208610610b4b57601f0160051c0190613406565b8d611436565b6004610e5a611d19610e4684613156565b5190206040516020810190611d396020828851610e8a8187858d01613277565b51902014611d495760010161130a565b60405162461bcd60e51b815260206004820152601960248201527f4c69766553747265616d20616c726561647920657869737473000000000000006044820152606490fd5b346102b85760403660031901126102b857600435611daa61306e565b90611db8600654821061341d565b8060005260206002815260406000209260018060a01b03169283600052815260ff60406000205416611ebf578160005260018152604060002083600052815260ff60406000205416611e6a57816000526002815260406000209083600052526040600020600160ff198254161790556008611e32826132bf565b50018054906001820180921161022f57557fe91fd65524e194eb2ff0a7257359fceae0ad7af10a481cb188fba770588aa077600080a3005b6084906040519062461bcd60e51b82526004820152602860248201527f416c7265616479206c696b6564207468697320766964656f2c2063616e6e6f74604482015267206469736c696b6560c01b6064820152fd5b6064906040519062461bcd60e51b82526004820152601b60248201527f416c7265616479206469736c696b6564207468697320766964656f00000000006044820152fd5b346102b85760403660031901126102b857600435611f1f61306e565b9080600052600460205260406000209160018060a01b031691826000526020526040600020600160ff19825416179055600b611f5a82613156565b50018054906001820180921161022f57557ff7034735154a3933423128bf0b1051a17384bd10e7cf31dee40ce16eda43d84c600080a3005b346102b85760403660031901126102b857600435611fae61306e565b90611fbc600654821061341d565b8060005260206001815260406000209260018060a01b03169283600052815260ff604060002054166120c3578160005260028152604060002083600052815260ff6040600020541661206e57816000526001815260406000209083600052526040600020600160ff198254161790556007612036826132bf565b50018054906001820180921161022f57557f252555045b2bb75bbf4e656932c7fc2d63e8e7d9acc300a6b55d6575a2c8d428600080a3005b6084906040519062461bcd60e51b82526004820152602860248201527f416c7265616479206469736c696b6564207468697320766964656f2c2063616e6044820152676e6f74206c696b6560c01b6064820152fd5b6064906040519062461bcd60e51b82526004820152601860248201527f416c7265616479206c696b6564207468697320766964656f00000000000000006044820152fd5b346102b85760403660031901126102b85761212061306e565b600435600052600160205260406000209060018060a01b0316600052602052602060ff604060002054166040519015158152f35b346102b85760603660031901126102b8576001600160401b036004358181116102b857612185903690600401613100565b61218d61306e565b916044358181116102b8576121a6903690600401613100565b9260018060a01b03169283600052602091600083526001906121cf6001604060002001546131a7565b1561234b578560005260008452600260406000200191835191821161050a576121f883546131a7565b601f811161231b575b508490601f831160011461228b57509261227b928261226e96937f92822564bab8864c3a47b34e8d23fbce5c46234eb5da261f94087b995ac0f33b9896600091612280575b508160011b916000199060031b1c19161790555b60405194859460408652604086019061329a565b918483039085015261329a565b0390a2005b90508301518a612246565b90601f1983168460005286600020926000905b828210612304575050837f92822564bab8864c3a47b34e8d23fbce5c46234eb5da261f94087b995ac0f33b98969361227b969361226e9996600194106122eb575b5050811b01905561225a565b85015160001960f88460031b161c191690558a806122df565b87840151855593840193928801929088019061229e565b612345908460005286600020601f850160051c810191888610610b4b57601f0160051c0190613406565b87612201565b60405162461bcd60e51b81526004810185905260166024820152751059191c995cdcc81b9bdd081c9959da5cdd195c995960521b6044820152606490fd5b346102b85760403660031901126102b8576123a261306e565b600435600052600460205260406000209060018060a01b0316600052602052602060ff604060002054166040519015158152f35b6123df3661309a565b6123ec600654831061341d565b6123f78115156132fa565b612400826132bf565b506001810180549094916001600160a01b039182161561263157600854604051636eb1769f60e11b81526001600160a01b03851660048201523060248201526020918416908281604481855afa8015610a8b578790600090612600575b61246992501015613346565b6040516323b872dd60e01b81526001600160a01b038616600482015230602482015260448101879052908290829060649082906000905af18015610a8b576124b9916000916125e3575b506133a3565b600854875460405163a9059cbb60e01b81529085166001600160a01b031660048201526024810187905290829082908616816000816044810103925af1908115610a8b576000916125c6575b501561257357507f43f28d6f7c3838abd6cbdf493a5c63550740efc8071f5d0bc5b38769455414db939291600561256e9201966125438589546133f9565b80985554169560405193849384604091949392606082019560018060a01b0316825260208201520152565b0390a3005b6084906040519062461bcd60e51b82526004820152602660248201527f4661696c20746f207472616e7366657220746f6b656e20746f20766964656f736044820152651037bbb732b960d11b6064820152fd5b6125dd9150823d8411610a8457610a7581836130df565b88612505565b6125fa9150833d8511610a8457610a7581836130df565b896124b3565b50508281813d831161262a575b61261781836130df565b810103126102b85786612469915161245d565b503d61260d565b60405162461bcd60e51b815260206004820152600f60248201526e159a59195bc81b9bdd08199bdd5b99608a1b6044820152606490fd5b346102b85760203660031901126102b8576004356007548110156102b85761268f90613156565b50805460018201546040516001600160a01b039091169290806126b581600285016131e1565b036126c090826130df565b60405190816126d281600386016131e1565b036126dd90836130df565b604051806126ee81600487016131e1565b036126f990826130df565b6005840154600685015460405160ff909116918161271a8160078a016131e1565b0361272590836130df565b60405192836127378160088b016131e1565b0361274290856130df565b60405194856127548160098c016131e1565b0361275f90876130df565b600a89015497600b8a01549760405180600c819d019061277e916131e1565b03612789908c6130df565b6040519c8d9c8d6101a092839282526020820152604001528c016127ac9161329a565b8b810360608d01526127bd9161329a565b8a810360808c01526127ce9161329a565b9160a08a0152151560c089015287810360e08901526127ec9161329a565b8681036101008801526127fe9161329a565b8581036101208701526128109161329a565b916101408501526101608401528281036101808401526104589161329a565b346102b85760403660031901126102b85761284861306e565b600435600052600360205260406000209060018060a01b0316600052602052602060ff604060002054166040519015158152f35b346102b8576020806003193601126102b8576001600160a01b0390816128a0613084565b1660005260008152600360406000200160405191828183549182815201908193600052826000209060005b81811061291c57505050836128e19103846130df565b60405192818401908285525180915260408401929160005b8281106129065785850386f35b83518716855293810193928101926001016128f9565b82548816845292840192600192830192016128cb565b346102b85760403660031901126102b8576004356001600160401b0381116102b857612962903690600401613100565b61296a61306e565b60ff60405160208185516129818183858a01613277565b810160058152030190205416612dad5760018060a01b03811660005260006020526129b36001604060002001546131a7565b612d6857604051916129c4836130c4565b6000835260405192608084018481106001600160401b0382111761050a5760405260018060a01b03831684526020840190828252604051612a04816130c4565b600081526040860152606085015260018060a01b038316600052600060205260406000209060018060a01b038551166001600160601b0360a01b835416178255518051906001600160401b03821161050a578190612a6560018501546131a7565b601f8111612d33575b50602090601f8311600114612cc157600092612cb6575b50508160011b916000199060031b1c19161760018201555b60408401518051906001600160401b03821161050a57612ac060028401546131a7565b601f8111612c81575b50602090601f8311600114612c0d57918060609492600394600092612c02575b50508160011b9160001990851b1c19161760028201555b019301518051906001600160401b03821161050a57600160401b821161050a576020908554838755808410612be5575b500193600052602060002060005b828110612bc857847f92822564bab8864c3a47b34e8d23fbce5c46234eb5da261f94087b995ac0f33b856040516020818351612b7d8183858801613277565b81016005815203019020600160ff198254161790556020612ba96040519260408452604084019061329a565b82810382840181905260009091526001600160a01b03909416930190a2005b85516001600160a01b031681830155602090950194600101612b3e565b612bfc908760005284846000209182019101613406565b86612b30565b015190508880612ae9565b906002840160005260206000209160005b601f1985168110612c695750926060949260019260039583601f19811610612c51575b505050811b016002820155612b00565b015160001983871b60f8161c19169055888080612c41565b91926020600181928685015181550194019201612c1e565b612cb090600285016000526020600020601f850160051c81019160208610610b4b57601f0160051c0190613406565b86612ac9565b015190508680612a85565b9250600184016000526020600020906000935b601f1984168510612d18576001945083601f19811610612cff575b505050811b016001820155612a9d565b015160001960f88460031b161c19169055868080612cef565b81810151835560209485019460019093019290910190612cd4565b612d6290600186016000526020600020601f850160051c81019160208610610b4b57601f0160051c0190613406565b87612a6e565b60405162461bcd60e51b815260206004820152601a60248201527f4164647265737320616c726561647920726567697374657265640000000000006044820152606490fd5b60405162461bcd60e51b815260206004820152601960248201527f557365726e616d6520697320616c72656164792074616b656e000000000000006044820152606490fd5b612dfb3661309a565b9091926007548310156130385750612e148115156132fa565b612e1d82613156565b506001810180549094916001600160a01b039182161561300057600854604051636eb1769f60e11b81526001600160a01b03851660048201523060248201526020918416908281604481855afa8015610a8b578790600090612fcf575b612e8692501015613346565b6040516323b872dd60e01b81526001600160a01b038616600482015230602482015260448101879052908290829060649082906000905af18015610a8b57612ed5916000916125e357506133a3565b600854875460405163a9059cbb60e01b81529085166001600160a01b031660048201526024810187905290829082908616816000816044810103925af1908115610a8b57600091612fb2575b5015612f5f57507f496b18425185db1e67cd9a80cf3ac423445fc0586c4e11362a1168fa5a6fe273939291600561256e9201966125438589546133f9565b6084906040519062461bcd60e51b82526004820152602660248201527f4661696c20746f207472616e7366657220746f6b656e20746f2073747265616d6044820152651037bbb732b960d11b6064820152fd5b612fc99150823d8411610a8457610a7581836130df565b88612f21565b50508281813d8311612ff9575b612fe681836130df565b810103126102b85786612e869151612e7a565b503d612fdc565b60405162461bcd60e51b815260206004820152601060248201526f14dd1c99585b481b9bdd08199bdd5b9960821b6044820152606490fd5b62461bcd60e51b8152602060048201526011602482015270125b9d985b1a590814dd1c99585b481251607a1b6044820152606490fd5b602435906001600160a01b03821682036102b857565b600435906001600160a01b03821682036102b857565b60609060031901126102b8576004356001600160a01b03811681036102b857906024359060443590565b602081019081106001600160401b0382111761050a57604052565b90601f801991011681019081106001600160401b0382111761050a57604052565b81601f820112156102b8578035906001600160401b03821161050a5760405192613134601f8401601f1916602001856130df565b828452602083830101116102b857816000926020809301838601378301015290565b60075481101561319157600d906007600052027fa66cc928b5edb82af9bd49922954155ab7b0942694bea4ce44661d9a8736c6880190600090565b634e487b7160e01b600052603260045260246000fd5b90600182811c921680156131d7575b60208310146131c157565b634e487b7160e01b600052602260045260246000fd5b91607f16916131b6565b8054600093926131f0826131a7565b918282526020936001916001811690816000146132585750600114613217575b5050505050565b90939495506000929192528360002092846000945b83861061324457505050500101903880808080613210565b80548587018301529401938590820161322c565b60ff19168685015250505090151560051b010191503880808080613210565b60005b83811061328a5750506000910152565b818101518382015260200161327a565b906020916132b381518092818552858086019101613277565b601f01601f1916010190565b60065481101561319157600a906006600052027ff652222313e28459528d920b65115c16c04f3efc82aaedc97be59f3f377c0d3f0190600090565b1561330157565b60405162461bcd60e51b815260206004820152601d60248201527f416d6f756e74206d7573742062652067726561746572207468616e20300000006044820152606490fd5b1561334d57565b60405162461bcd60e51b8152602060048201526016602482015275496e73756666696369656e7420616c6c6f77616e636560501b6044820152606490fd5b908160209103126102b8575180151581036102b85790565b156133aa57565b60405162461bcd60e51b815260206004820152602160248201527f4661696c20746f207472616e7366657220746f6b656e20696e206164647265736044820152607360f81b6064820152608490fd5b9190820180921161022f57565b818110613411575050565b60008155600101613406565b1561342457565b60405162461bcd60e51b815260206004820152601060248201526f125b9d985b1a59081d9a59195bc8125160821b6044820152606490fd5b1561346357565b60405162461bcd60e51b815260206004820152601760248201527f55736572206d75737420626520726567697374657265640000000000000000006044820152606490fd5b6000929181546134b7816131a7565b9260019180831690811561351157506001146134d4575b50505050565b9091929394506000526020906020600020906000915b85831061350057505050500190388080806134ce565b8054858401529183019181016134ea565b60ff19168452505050811515909102019150388080806134ce565b8054821015613191576000526020600020019060009056fea26469706673582212209f9094cae06df1d512c26727c5980a6183cb114ff87ecdde9424a51e94722c0064736f6c6343000818003360803462000397576040906001600160401b0390808301828111828210176200029757835260088152602090672b34b22a37b5b2b760c11b82820152835192848401848110828211176200029757855260038085526213959560ea1b84860152825182811162000297578154906001948583811c931680156200038c575b8784101462000376578190601f9384811162000320575b508790848311600114620002b957600092620002ad575b505060001982851b1c191690851b1782555b8551928311620002975760049586548581811c911680156200028c575b8782101462000277578281116200022c575b5085918411600114620001c157938394918492600095620001b5575b50501b92600019911b1c19161782555b33156200019e576002546b033b2e3c9fd0803ce8000000928382018092116200018957506000917fddf252ad1be2c89b69c2b068fc378daa952ba7f163c4a11628f55a4df523b3ef9160025533835282815284832084815401905584519384523393a3516106a390816200039d8239f35b601190634e487b7160e01b6000525260246000fd5b506000602492519163ec442f0560e01b8352820152fd5b01519350388062000108565b9190601f198416928760005284876000209460005b8989838310620002145750505010620001f9575b50505050811b01825562000118565b01519060f884600019921b161c1916905538808080620001ea565b868601518955909701969485019488935001620001d6565b87600052866000208380870160051c8201928988106200026d575b0160051c019086905b82811062000260575050620000ec565b6000815501869062000250565b9250819262000247565b602288634e487b7160e01b6000525260246000fd5b90607f1690620000da565b634e487b7160e01b600052604160045260246000fd5b015190503880620000ab565b90879350601f1983169186600052896000209260005b8b828210620003095750508411620002f0575b505050811b018255620000bd565b015160001983871b60f8161c19169055388080620002e2565b8385015186558b97909501949384019301620002cf565b90915084600052876000208480850160051c8201928a86106200036c575b918991869594930160051c01915b8281106200035c57505062000094565b600081558594508991016200034c565b925081926200033e565b634e487b7160e01b600052602260045260246000fd5b92607f16926200007d565b600080fdfe608060408181526004918236101561001657600080fd5b600092833560e01c91826306fdde031461043b57508163095ea7b31461038d57816318160ddd1461036e57816323b872dd14610277578163313ce5671461025b57816370a082311461022457816395d89b411461010357508063a9059cbb146100d35763dd62ed3e1461008857600080fd5b346100cf57806003193601126100cf57806020926100a461055e565b6100ac610579565b6001600160a01b0391821683526001865283832091168252845220549051908152f35b5080fd5b50346100cf57806003193601126100cf576020906100fc6100f261055e565b602435903361058f565b5160018152f35b8383346100cf57816003193601126100cf5780519082845460018160011c906001831692831561021a575b6020938484108114610207578388529081156101eb5750600114610196575b505050829003601f01601f191682019267ffffffffffffffff841183851017610183575082918261017f925282610515565b0390f35b634e487b7160e01b815260418552602490fd5b8787529192508591837f8a35acfbc15ff81a39ae7d344fd709f28e8600b4aa8c65c6b64bfe7fe36bd19b5b8385106101d7575050505083010185808061014d565b8054888601830152930192849082016101c1565b60ff1916878501525050151560051b840101905085808061014d565b634e487b7160e01b895260228a52602489fd5b91607f169161012e565b5050346100cf5760203660031901126100cf5760209181906001600160a01b0361024c61055e565b16815280845220549051908152f35b5050346100cf57816003193601126100cf576020905160128152f35b9050823461036b57606036600319011261036b5761029361055e565b61029b610579565b916044359360018060a01b0383168083526001602052868320338452602052868320549160001983036102d7575b6020886100fc89898961058f565b86831061033f578115610328573315610311575082526001602090815286832033845281529186902090859003905582906100fc876102c9565b8751634a1406b160e11b8152908101849052602490fd5b875163e602df0560e01b8152908101849052602490fd5b8751637dc7a0d960e11b8152339181019182526020820193909352604081018790528291506060010390fd5b80fd5b5050346100cf57816003193601126100cf576020906002549051908152f35b9050346104375781600319360112610437576103a761055e565b602435903315610420576001600160a01b031691821561040957508083602095338152600187528181208582528752205582519081527f8c5be1e5ebec7d5bd14f71427d1e84f3dd0314c0f7b2291e5b200ac8c7c3b925843392a35160018152f35b8351634a1406b160e11b8152908101859052602490fd5b835163e602df0560e01b8152808401869052602490fd5b8280fd5b849084346104375782600319360112610437578260035460018160011c906001831692831561050b575b6020938484108114610207578388529081156101eb57506001146104b557505050829003601f01601f191682019267ffffffffffffffff841183851017610183575082918261017f925282610515565b600387529192508591837fc2575a0e9e593c00f959f8c92f12db2869c3395a3b0502d05e2516446f71f85b5b8385106104f7575050505083010185808061014d565b8054888601830152930192849082016104e1565b91607f1691610465565b6020808252825181830181905290939260005b82811061054a57505060409293506000838284010152601f8019910116010190565b818101860151848201604001528501610528565b600435906001600160a01b038216820361057457565b600080fd5b602435906001600160a01b038216820361057457565b916001600160a01b03808416928315610654571692831561063b5760009083825281602052604082205490838210610609575091604082827fddf252ad1be2c89b69c2b068fc378daa952ba7f163c4a11628f55a4df523b3ef958760209652828652038282205586815220818154019055604051908152a3565b60405163391434e360e21b81526001600160a01b03919091166004820152602481019190915260448101839052606490fd5b60405163ec442f0560e01b815260006004820152602490fd5b604051634b637e8f60e11b815260006004820152602490fdfea26469706673582212208070b054ef422c0a067ef4b2d021bc9220dcc113e014a9dc0d0d66367b06f60864736f6c63430008180033",
  "linkReferences": {},
  "deployedLinkReferences": {}
}