{
  "_format": "hh-sol-artifact-1",
  "contractName": "VideoPlatform",
  "sourceName": "contracts/Vidverse.sol",
  "abi": [
    {
      "inputs": [],
      "stateMutability": "nonpayable",
      "type": "constructor"
    },
    {
      "anonymous": false,
      "inputs": [
        {
          "indexed": false,
          "internalType": "uint256",
          "name": "id",
          "type": "uint256"
        },
        {
          "indexed": false,
          "internalType": "address",
          "name": "owner",
          "type": "address"
        },
        {
          "indexed": false,
          "internalType": "string",
          "name": "stramName",
          "type": "string"
        },
        {
          "indexed": false,
          "internalType": "string",
          "name": "description",
          "type": "string"
        },
        {
          "indexed": false,
          "internalType": "string",
          "name": "playBackId",
          "type": "string"
        },
        {
          "indexed": false,
          "internalType": "bool",
          "name": "status",
          "type": "bool"
        }
      ],
      "name": "CreatedStream",
      "type": "event"
    },
    {
      "anonymous": false,
      "inputs": [
        {
          "indexed": true,
          "internalType": "uint256",
          "name": "id",
          "type": "uint256"
        },
        {
          "indexed": false,
          "internalType": "address",
          "name": "owner",
          "type": "address"
        }
      ],
      "name": "StreamStopped",
      "type": "event"
    },
    {
      "anonymous": false,
      "inputs": [
        {
          "indexed": false,
          "internalType": "uint256",
          "name": "id",
          "type": "uint256"
        },
        {
          "indexed": false,
          "internalType": "address",
          "name": "owner",
          "type": "address"
        },
        {
          "indexed": false,
          "internalType": "string",
          "name": "title",
          "type": "string"
        },
        {
          "indexed": false,
          "internalType": "string",
          "name": "description",
          "type": "string"
        },
        {
          "indexed": false,
          "internalType": "string",
          "name": "ipfsHash",
          "type": "string"
        }
      ],
      "name": "VideoUploaded",
      "type": "event"
    },
    {
      "inputs": [
        {
          "internalType": "address",
          "name": "userAddr",
          "type": "address"
        },
        {
          "internalType": "string",
          "name": "_title",
          "type": "string"
        },
        {
          "internalType": "string",
          "name": "_description",
          "type": "string"
        },
        {
          "internalType": "string",
          "name": "_playbackId",
          "type": "string"
        },
        {
          "internalType": "string",
          "name": "streamKey",
          "type": "string"
        },
        {
          "internalType": "string",
          "name": "streamID",
          "type": "string"
        }
      ],
      "name": "createStream",
      "outputs": [],
      "stateMutability": "nonpayable",
      "type": "function"
    },
    {
      "inputs": [],
      "name": "getAllActiveLiveStreams",
      "outputs": [
        {
          "components": [
            {
              "internalType": "uint256",
              "name": "id",
              "type": "uint256"
            },
            {
              "internalType": "address",
              "name": "owner",
              "type": "address"
            },
            {
              "internalType": "string",
              "name": "stramName",
              "type": "string"
            },
            {
              "internalType": "string",
              "name": "description",
              "type": "string"
            },
            {
              "internalType": "string",
              "name": "playBackId",
              "type": "string"
            },
            {
              "internalType": "uint256",
              "name": "tipAmount",
              "type": "uint256"
            },
            {
              "internalType": "bool",
              "name": "status",
              "type": "bool"
            },
            {
              "internalType": "string",
              "name": "streamKey",
              "type": "string"
            },
            {
              "internalType": "string",
              "name": "streamID",
              "type": "string"
            }
          ],
          "internalType": "struct VideoPlatform.LiveStream[]",
          "name": "",
          "type": "tuple[]"
        }
      ],
      "stateMutability": "view",
      "type": "function"
    },
    {
      "inputs": [],
      "name": "getAllVideos",
      "outputs": [
        {
          "components": [
            {
              "internalType": "uint256",
              "name": "id",
              "type": "uint256"
            },
            {
              "internalType": "address",
              "name": "owner",
              "type": "address"
            },
            {
              "internalType": "string",
              "name": "title",
              "type": "string"
            },
            {
              "internalType": "string",
              "name": "description",
              "type": "string"
            },
            {
              "internalType": "string",
              "name": "ipfsHash",
              "type": "string"
            },
            {
              "internalType": "uint256",
              "name": "tipAmount",
              "type": "uint256"
            }
          ],
          "internalType": "struct VideoPlatform.Video[]",
          "name": "",
          "type": "tuple[]"
        }
      ],
      "stateMutability": "view",
      "type": "function"
    },
    {
      "inputs": [
        {
          "internalType": "address",
          "name": "addr",
          "type": "address"
        }
      ],
      "name": "getBalance",
      "outputs": [
        {
          "internalType": "uint256",
          "name": "",
          "type": "uint256"
        }
      ],
      "stateMutability": "view",
      "type": "function"
    },
    {
      "inputs": [
        {
          "internalType": "address",
          "name": "account",
          "type": "address"
        }
      ],
      "name": "getMyActiveLiveStreams",
      "outputs": [
        {
          "components": [
            {
              "internalType": "uint256",
              "name": "id",
              "type": "uint256"
            },
            {
              "internalType": "address",
              "name": "owner",
              "type": "address"
            },
            {
              "internalType": "string",
              "name": "stramName",
              "type": "string"
            },
            {
              "internalType": "string",
              "name": "description",
              "type": "string"
            },
            {
              "internalType": "string",
              "name": "playBackId",
              "type": "string"
            },
            {
              "internalType": "uint256",
              "name": "tipAmount",
              "type": "uint256"
            },
            {
              "internalType": "bool",
              "name": "status",
              "type": "bool"
            },
            {
              "internalType": "string",
              "name": "streamKey",
              "type": "string"
            },
            {
              "internalType": "string",
              "name": "streamID",
              "type": "string"
            }
          ],
          "internalType": "struct VideoPlatform.LiveStream[]",
          "name": "",
          "type": "tuple[]"
        }
      ],
      "stateMutability": "view",
      "type": "function"
    },
    {
      "inputs": [
        {
          "internalType": "uint256",
          "name": "",
          "type": "uint256"
        }
      ],
      "name": "liveStreams",
      "outputs": [
        {
          "internalType": "uint256",
          "name": "id",
          "type": "uint256"
        },
        {
          "internalType": "address",
          "name": "owner",
          "type": "address"
        },
        {
          "internalType": "string",
          "name": "stramName",
          "type": "string"
        },
        {
          "internalType": "string",
          "name": "description",
          "type": "string"
        },
        {
          "internalType": "string",
          "name": "playBackId",
          "type": "string"
        },
        {
          "internalType": "uint256",
          "name": "tipAmount",
          "type": "uint256"
        },
        {
          "internalType": "bool",
          "name": "status",
          "type": "bool"
        },
        {
          "internalType": "string",
          "name": "streamKey",
          "type": "string"
        },
        {
          "internalType": "string",
          "name": "streamID",
          "type": "string"
        }
      ],
      "stateMutability": "view",
      "type": "function"
    },
    {
      "inputs": [],
      "name": "myToken",
      "outputs": [
        {
          "internalType": "contract ERC20",
          "name": "",
          "type": "address"
        }
      ],
      "stateMutability": "view",
      "type": "function"
    },
    {
      "inputs": [
        {
          "internalType": "address",
          "name": "useAddress",
          "type": "address"
        },
        {
          "internalType": "string",
          "name": "_streamID",
          "type": "string"
        }
      ],
      "name": "stopStreamByStreamID",
      "outputs": [],
      "stateMutability": "nonpayable",
      "type": "function"
    },
    {
      "inputs": [
        {
          "internalType": "address",
          "name": "useAddre",
          "type": "address"
        },
        {
          "internalType": "uint256",
          "name": "_streamId",
          "type": "uint256"
        },
        {
          "internalType": "uint256",
          "name": "_amount",
          "type": "uint256"
        }
      ],
      "name": "tipStreamOwner",
      "outputs": [],
      "stateMutability": "payable",
      "type": "function"
    },
    {
      "inputs": [
        {
          "internalType": "address",
          "name": "useAddre",
          "type": "address"
        },
        {
          "internalType": "uint256",
          "name": "_videoId",
          "type": "uint256"
        },
        {
          "internalType": "uint256",
          "name": "_amount",
          "type": "uint256"
        }
      ],
      "name": "tipVideoOwner",
      "outputs": [],
      "stateMutability": "payable",
      "type": "function"
    },
    {
      "inputs": [
        {
          "internalType": "address",
          "name": "userAddr",
          "type": "address"
        },
        {
          "internalType": "string",
          "name": "_title",
          "type": "string"
        },
        {
          "internalType": "string",
          "name": "_description",
          "type": "string"
        },
        {
          "internalType": "string",
          "name": "_ipfsHash",
          "type": "string"
        }
      ],
      "name": "uploadVideo",
      "outputs": [],
      "stateMutability": "nonpayable",
      "type": "function"
    },
    {
      "inputs": [
        {
          "internalType": "uint256",
          "name": "",
          "type": "uint256"
        }
      ],
      "name": "videos",
      "outputs": [
        {
          "internalType": "uint256",
          "name": "id",
          "type": "uint256"
        },
        {
          "internalType": "address",
          "name": "owner",
          "type": "address"
        },
        {
          "internalType": "string",
          "name": "title",
          "type": "string"
        },
        {
          "internalType": "string",
          "name": "description",
          "type": "string"
        },
        {
          "internalType": "string",
          "name": "ipfsHash",
          "type": "string"
        },
        {
          "internalType": "uint256",
          "name": "tipAmount",
          "type": "uint256"
        }
      ],
      "stateMutability": "view",
      "type": "function"
    }
  ],
  "bytecode": "0x60806040523480156200001157600080fd5b50600060405162000022906200008a565b604051809103906000f0801580156200003f573d6000803e3d6000fd5b50905080600260006101000a81548173ffffffffffffffffffffffffffffffffffffffff021916908373ffffffffffffffffffffffffffffffffffffffff1602179055505062000098565b611682806200405b83390190565b613fb380620000a86000396000f3fe6080604052600436106100a75760003560e01c8063b8fcf93711610064578063b8fcf937146101a6578063c38e3434146101d1578063db4f0e1a146101fc578063e2fc272614610225578063e6821bf514610262578063f8b2cb4f146102a4576100a7565b80630b64dab4146100ac578063295c83cc146100c85780632b074830146100f35780632cc9d4ab146101385780635b3c8d0314610154578063a97d33b31461017d575b600080fd5b6100c660048036038101906100c191906127b4565b6102e1565b005b3480156100d457600080fd5b506100dd610709565b6040516100ea9190612a73565b60405180910390f35b3480156100ff57600080fd5b5061011a60048036038101906101159190612a95565b610be3565b60405161012f99989796959493929190612b39565b60405180910390f35b610152600480360381019061014d91906127b4565b610f16565b005b34801561016057600080fd5b5061017b60048036038101906101769190612d1e565b61133d565b005b34801561018957600080fd5b506101a4600480360381019061019f9190612dd9565b611614565b005b3480156101b257600080fd5b506101bb611846565b6040516101c89190612e94565b60405180910390f35b3480156101dd57600080fd5b506101e661186c565b6040516101f39190613008565b60405180910390f35b34801561020857600080fd5b50610223600480360381019061021e919061302a565b611aeb565b005b34801561023157600080fd5b5061024c60048036038101906102479190613143565b611e2b565b6040516102599190612a73565b60405180910390f35b34801561026e57600080fd5b5061028960048036038101906102849190612a95565b6123ff565b60405161029b96959493929190613170565b60405180910390f35b3480156102b057600080fd5b506102cb60048036038101906102c69190613143565b612603565b6040516102d891906131e6565b60405180910390f35b6001805490508210610328576040517f08c379a000000000000000000000000000000000000000000000000000000000815260040161031f9061324d565b60405180910390fd5b6000811161036b576040517f08c379a0000000000000000000000000000000000000000000000000000000008152600401610362906132b9565b60405180910390fd5b600060018381548110610381576103806132d9565b5b90600052602060002090600902019050600073ffffffffffffffffffffffffffffffffffffffff168160010160009054906101000a900473ffffffffffffffffffffffffffffffffffffffff1673ffffffffffffffffffffffffffffffffffffffff1603610424576040517f08c379a000000000000000000000000000000000000000000000000000000000815260040161041b90613354565b60405180910390fd5b81600260009054906101000a900473ffffffffffffffffffffffffffffffffffffffff1673ffffffffffffffffffffffffffffffffffffffff1663dd62ed3e86306040518363ffffffff1660e01b8152600401610482929190613374565b602060405180830381865afa15801561049f573d6000803e3d6000fd5b505050506040513d601f19601f820116820180604052508101906104c391906133b2565b1015610504576040517f08c379a00000000000000000000000000000000000000000000000000000000081526004016104fb9061342b565b60405180910390fd5b600260009054906101000a900473ffffffffffffffffffffffffffffffffffffffff1673ffffffffffffffffffffffffffffffffffffffff166323b872dd8530856040518463ffffffff1660e01b81526004016105639392919061344b565b6020604051808303816000875af1158015610582573d6000803e3d6000fd5b505050506040513d601f19601f820116820180604052508101906105a691906134ae565b6105e5576040517f08c379a00000000000000000000000000000000000000000000000000000000081526004016105dc9061354d565b60405180910390fd5b600260009054906101000a900473ffffffffffffffffffffffffffffffffffffffff1673ffffffffffffffffffffffffffffffffffffffff1663a9059cbb8260010160009054906101000a900473ffffffffffffffffffffffffffffffffffffffff16846040518363ffffffff1660e01b815260040161066692919061356d565b6020604051808303816000875af1158015610685573d6000803e3d6000fd5b505050506040513d601f19601f820116820180604052508101906106a991906134ae565b6106e8576040517f08c379a00000000000000000000000000000000000000000000000000000000081526004016106df90613608565b60405180910390fd5b818160050160008282546106fc9190613657565b9250508190555050505050565b60606000805b60018054905081101561077057600181815481106107305761072f6132d9565b5b906000526020600020906009020160060160009054906101000a900460ff161561076357818061075f9061368b565b9250505b808060010191505061070f565b5060008167ffffffffffffffff81111561078d5761078c612bf3565b5b6040519080825280602002602001820160405280156107c657816020015b6107b36126a8565b8152602001906001900390816107ab5790505b5090506000805b600180549050811015610bd957600181815481106107ee576107ed6132d9565b5b906000526020600020906009020160060160009054906101000a900460ff1615610bcc5760018181548110610826576108256132d9565b5b906000526020600020906009020160405180610120016040529081600082015481526020016001820160009054906101000a900473ffffffffffffffffffffffffffffffffffffffff1673ffffffffffffffffffffffffffffffffffffffff1673ffffffffffffffffffffffffffffffffffffffff1681526020016002820180546108b090613702565b80601f01602080910402602001604051908101604052809291908181526020018280546108dc90613702565b80156109295780601f106108fe57610100808354040283529160200191610929565b820191906000526020600020905b81548152906001019060200180831161090c57829003601f168201915b5050505050815260200160038201805461094290613702565b80601f016020809104026020016040519081016040528092919081815260200182805461096e90613702565b80156109bb5780601f10610990576101008083540402835291602001916109bb565b820191906000526020600020905b81548152906001019060200180831161099e57829003601f168201915b505050505081526020016004820180546109d490613702565b80601f0160208091040260200160405190810160405280929190818152602001828054610a0090613702565b8015610a4d5780601f10610a2257610100808354040283529160200191610a4d565b820191906000526020600020905b815481529060010190602001808311610a3057829003601f168201915b50505050508152602001600582015481526020016006820160009054906101000a900460ff16151515158152602001600782018054610a8b90613702565b80601f0160208091040260200160405190810160405280929190818152602001828054610ab790613702565b8015610b045780601f10610ad957610100808354040283529160200191610b04565b820191906000526020600020905b815481529060010190602001808311610ae757829003601f168201915b50505050508152602001600882018054610b1d90613702565b80601f0160208091040260200160405190810160405280929190818152602001828054610b4990613702565b8015610b965780601f10610b6b57610100808354040283529160200191610b96565b820191906000526020600020905b815481529060010190602001808311610b7957829003601f168201915b505050505081525050838381518110610bb257610bb16132d9565b5b60200260200101819052508180610bc89061368b565b9250505b80806001019150506107cd565b5081935050505090565b60018181548110610bf357600080fd5b90600052602060002090600902016000915090508060000154908060010160009054906101000a900473ffffffffffffffffffffffffffffffffffffffff1690806002018054610c4290613702565b80601f0160208091040260200160405190810160405280929190818152602001828054610c6e90613702565b8015610cbb5780601f10610c9057610100808354040283529160200191610cbb565b820191906000526020600020905b815481529060010190602001808311610c9e57829003601f168201915b505050505090806003018054610cd090613702565b80601f0160208091040260200160405190810160405280929190818152602001828054610cfc90613702565b8015610d495780601f10610d1e57610100808354040283529160200191610d49565b820191906000526020600020905b815481529060010190602001808311610d2c57829003601f168201915b505050505090806004018054610d5e90613702565b80601f0160208091040260200160405190810160405280929190818152602001828054610d8a90613702565b8015610dd75780601f10610dac57610100808354040283529160200191610dd7565b820191906000526020600020905b815481529060010190602001808311610dba57829003601f168201915b5050505050908060050154908060060160009054906101000a900460ff1690806007018054610e0590613702565b80601f0160208091040260200160405190810160405280929190818152602001828054610e3190613702565b8015610e7e5780601f10610e5357610100808354040283529160200191610e7e565b820191906000526020600020905b815481529060010190602001808311610e6157829003601f168201915b505050505090806008018054610e9390613702565b80601f0160208091040260200160405190810160405280929190818152602001828054610ebf90613702565b8015610f0c5780601f10610ee157610100808354040283529160200191610f0c565b820191906000526020600020905b815481529060010190602001808311610eef57829003601f168201915b5050505050905089565b6000805490508210610f5d576040517f08c379a0000000000000000000000000000000000000000000000000000000008152600401610f549061377f565b60405180910390fd5b60008111610fa0576040517f08c379a0000000000000000000000000000000000000000000000000000000008152600401610f97906132b9565b60405180910390fd5b6000808381548110610fb557610fb46132d9565b5b90600052602060002090600602019050600073ffffffffffffffffffffffffffffffffffffffff168160010160009054906101000a900473ffffffffffffffffffffffffffffffffffffffff1673ffffffffffffffffffffffffffffffffffffffff1603611058576040517f08c379a000000000000000000000000000000000000000000000000000000000815260040161104f906137eb565b60405180910390fd5b81600260009054906101000a900473ffffffffffffffffffffffffffffffffffffffff1673ffffffffffffffffffffffffffffffffffffffff1663dd62ed3e86306040518363ffffffff1660e01b81526004016110b6929190613374565b602060405180830381865afa1580156110d3573d6000803e3d6000fd5b505050506040513d601f19601f820116820180604052508101906110f791906133b2565b1015611138576040517f08c379a000000000000000000000000000000000000000000000000000000000815260040161112f9061342b565b60405180910390fd5b600260009054906101000a900473ffffffffffffffffffffffffffffffffffffffff1673ffffffffffffffffffffffffffffffffffffffff166323b872dd8530856040518463ffffffff1660e01b81526004016111979392919061344b565b6020604051808303816000875af11580156111b6573d6000803e3d6000fd5b505050506040513d601f19601f820116820180604052508101906111da91906134ae565b611219576040517f08c379a00000000000000000000000000000000000000000000000000000000081526004016112109061354d565b60405180910390fd5b600260009054906101000a900473ffffffffffffffffffffffffffffffffffffffff1673ffffffffffffffffffffffffffffffffffffffff1663a9059cbb8260010160009054906101000a900473ffffffffffffffffffffffffffffffffffffffff16846040518363ffffffff1660e01b815260040161129a92919061356d565b6020604051808303816000875af11580156112b9573d6000803e3d6000fd5b505050506040513d601f19601f820116820180604052508101906112dd91906134ae565b61131c576040517f08c379a00000000000000000000000000000000000000000000000000000000081526004016113139061387d565b60405180910390fd5b818160050160008282546113309190613657565b9250508190555050505050565b60005b60008054905081101561140c578160405160200161135e91906138d9565b6040516020818303038152906040528051906020012060008281548110611388576113876132d9565b5b90600052602060002090600602016004016040516020016113a99190613988565b60405160208183030381529060405280519060200120036113ff576040517f08c379a00000000000000000000000000000000000000000000000000000000081526004016113f690613a11565b60405180910390fd5b8080600101915050611340565b5060008080549050905060006040518060c001604052808381526020018773ffffffffffffffffffffffffffffffffffffffff168152602001868152602001858152602001848152602001600081525090806001815401808255809150506001900390600052602060002090600602016000909190919091506000820151816000015560208201518160010160006101000a81548173ffffffffffffffffffffffffffffffffffffffff021916908373ffffffffffffffffffffffffffffffffffffffff16021790555060408201518160020190816114eb9190613bbe565b5060608201518160030190816115019190613bbe565b5060808201518160040190816115179190613bbe565b5060a082015181600501555050600260009054906101000a900473ffffffffffffffffffffffffffffffffffffffff1673ffffffffffffffffffffffffffffffffffffffff1663a9059cbb86683635c9adc5dea000006040518363ffffffff1660e01b815260040161158a929190613ccb565b6020604051808303816000875af11580156115a9573d6000803e3d6000fd5b505050506040513d601f19601f820116820180604052508101906115cd91906134ae565b507f21e2cbd789bc9c3e71f61317f6c319f27a2f7953bf693b48c579ae6a3a1194568186868686604051611605959493929190613cf4565b60405180910390a15050505050565b6000805b600180549050811015611800578260405160200161163691906138d9565b60405160208183030381529060405280519060200120600182815481106116605761165f6132d9565b5b90600052602060002090600902016008016040516020016116819190613988565b60405160208183030381529060405280519060200120036117f357600181815481106116b0576116af6132d9565b5b906000526020600020906009020160010160009054906101000a900473ffffffffffffffffffffffffffffffffffffffff1673ffffffffffffffffffffffffffffffffffffffff168473ffffffffffffffffffffffffffffffffffffffff161461174f576040517f08c379a000000000000000000000000000000000000000000000000000000000815260040161174690613da8565b60405180910390fd5b600060018281548110611765576117646132d9565b5b906000526020600020906009020160060160006101000a81548160ff021916908315150217905550600181815481106117a1576117a06132d9565b5b9060005260206000209060090201600001547fd95eebb8ae85b521a4f98aff3b92d8cd7ecf3f002024835c0e9716cf2bdea208856040516117e29190613dc8565b60405180910390a260019150611800565b8080600101915050611618565b5080611841576040517f08c379a000000000000000000000000000000000000000000000000000000000815260040161183890613e7b565b60405180910390fd5b505050565b600260009054906101000a900473ffffffffffffffffffffffffffffffffffffffff1681565b60606000805480602002602001604051908101604052809291908181526020016000905b82821015611ae257838290600052602060002090600602016040518060c0016040529081600082015481526020016001820160009054906101000a900473ffffffffffffffffffffffffffffffffffffffff1673ffffffffffffffffffffffffffffffffffffffff1673ffffffffffffffffffffffffffffffffffffffff16815260200160028201805461192390613702565b80601f016020809104026020016040519081016040528092919081815260200182805461194f90613702565b801561199c5780601f106119715761010080835404028352916020019161199c565b820191906000526020600020905b81548152906001019060200180831161197f57829003601f168201915b505050505081526020016003820180546119b590613702565b80601f01602080910402602001604051908101604052809291908181526020018280546119e190613702565b8015611a2e5780601f10611a0357610100808354040283529160200191611a2e565b820191906000526020600020905b815481529060010190602001808311611a1157829003601f168201915b50505050508152602001600482018054611a4790613702565b80601f0160208091040260200160405190810160405280929190818152602001828054611a7390613702565b8015611ac05780601f10611a9557610100808354040283529160200191611ac0565b820191906000526020600020905b815481529060010190602001808311611aa357829003601f168201915b5050505050815260200160058201548152505081526020019060010190611890565b50505050905090565b60005b600180549050811015611bba5783604051602001611b0c91906138d9565b6040516020818303038152906040528051906020012060018281548110611b3657611b356132d9565b5b9060005260206000209060090201600401604051602001611b579190613988565b6040516020818303038152906040528051906020012003611bad576040517f08c379a0000000000000000000000000000000000000000000000000000000008152600401611ba490613ee7565b60405180910390fd5b8080600101915050611aee565b506000600180549050905060016040518061012001604052808381526020018973ffffffffffffffffffffffffffffffffffffffff168152602001888152602001878152602001868152602001600081526020016001151581526020018581526020018481525090806001815401808255809150506001900390600052602060002090600902016000909190919091506000820151816000015560208201518160010160006101000a81548173ffffffffffffffffffffffffffffffffffffffff021916908373ffffffffffffffffffffffffffffffffffffffff1602179055506040820151816002019081611cb09190613bbe565b506060820151816003019081611cc69190613bbe565b506080820151816004019081611cdc9190613bbe565b5060a0820151816005015560c08201518160060160006101000a81548160ff02191690831515021790555060e0820151816007019081611d1c9190613bbe565b50610100820151816008019081611d339190613bbe565b505050600260009054906101000a900473ffffffffffffffffffffffffffffffffffffffff1673ffffffffffffffffffffffffffffffffffffffff1663a9059cbb88683635c9adc5dea000006040518363ffffffff1660e01b8152600401611d9c929190613ccb565b6020604051808303816000875af1158015611dbb573d6000803e3d6000fd5b505050506040513d601f19601f82011682018060405250810190611ddf91906134ae565b507fed33210582150bc2dd8073dfe015bb10c34e807d1cc4d609857c3b2fe1fb1bfb81888888886001604051611e1a96959493929190613f07565b60405180910390a150505050505050565b60606000805b600180549050811015611f0e5760018181548110611e5257611e516132d9565b5b906000526020600020906009020160060160009054906101000a900460ff168015611eed57508373ffffffffffffffffffffffffffffffffffffffff1660018281548110611ea357611ea26132d9565b5b906000526020600020906009020160010160009054906101000a900473ffffffffffffffffffffffffffffffffffffffff1673ffffffffffffffffffffffffffffffffffffffff16145b15611f01578180611efd9061368b565b9250505b8080600101915050611e31565b5060008167ffffffffffffffff811115611f2b57611f2a612bf3565b5b604051908082528060200260200182016040528015611f6457816020015b611f516126a8565b815260200190600190039081611f495790505b5090506000805b6001805490508110156123f35760018181548110611f8c57611f8b6132d9565b5b906000526020600020906009020160060160009054906101000a900460ff16801561202757508573ffffffffffffffffffffffffffffffffffffffff1660018281548110611fdd57611fdc6132d9565b5b906000526020600020906009020160010160009054906101000a900473ffffffffffffffffffffffffffffffffffffffff1673ffffffffffffffffffffffffffffffffffffffff16145b156123e657600181815481106120405761203f6132d9565b5b906000526020600020906009020160405180610120016040529081600082015481526020016001820160009054906101000a900473ffffffffffffffffffffffffffffffffffffffff1673ffffffffffffffffffffffffffffffffffffffff1673ffffffffffffffffffffffffffffffffffffffff1681526020016002820180546120ca90613702565b80601f01602080910402602001604051908101604052809291908181526020018280546120f690613702565b80156121435780601f1061211857610100808354040283529160200191612143565b820191906000526020600020905b81548152906001019060200180831161212657829003601f168201915b5050505050815260200160038201805461215c90613702565b80601f016020809104026020016040519081016040528092919081815260200182805461218890613702565b80156121d55780601f106121aa576101008083540402835291602001916121d5565b820191906000526020600020905b8154815290600101906020018083116121b857829003601f168201915b505050505081526020016004820180546121ee90613702565b80601f016020809104026020016040519081016040528092919081815260200182805461221a90613702565b80156122675780601f1061223c57610100808354040283529160200191612267565b820191906000526020600020905b81548152906001019060200180831161224a57829003601f168201915b50505050508152602001600582015481526020016006820160009054906101000a900460ff161515151581526020016007820180546122a590613702565b80601f01602080910402602001604051908101604052809291908181526020018280546122d190613702565b801561231e5780601f106122f35761010080835404028352916020019161231e565b820191906000526020600020905b81548152906001019060200180831161230157829003601f168201915b5050505050815260200160088201805461233790613702565b80601f016020809104026020016040519081016040528092919081815260200182805461236390613702565b80156123b05780601f10612385576101008083540402835291602001916123b0565b820191906000526020600020905b81548152906001019060200180831161239357829003601f168201915b5050505050815250508383815181106123cc576123cb6132d9565b5b602002602001018190525081806123e29061368b565b9250505b8080600101915050611f6b565b50819350505050919050565b6000818154811061240f57600080fd5b90600052602060002090600602016000915090508060000154908060010160009054906101000a900473ffffffffffffffffffffffffffffffffffffffff169080600201805461245e90613702565b80601f016020809104026020016040519081016040528092919081815260200182805461248a90613702565b80156124d75780601f106124ac576101008083540402835291602001916124d7565b820191906000526020600020905b8154815290600101906020018083116124ba57829003601f168201915b5050505050908060030180546124ec90613702565b80601f016020809104026020016040519081016040528092919081815260200182805461251890613702565b80156125655780601f1061253a57610100808354040283529160200191612565565b820191906000526020600020905b81548152906001019060200180831161254857829003601f168201915b50505050509080600401805461257a90613702565b80601f01602080910402602001604051908101604052809291908181526020018280546125a690613702565b80156125f35780601f106125c8576101008083540402835291602001916125f3565b820191906000526020600020905b8154815290600101906020018083116125d657829003601f168201915b5050505050908060050154905086565b6000600260009054906101000a900473ffffffffffffffffffffffffffffffffffffffff1673ffffffffffffffffffffffffffffffffffffffff166370a08231836040518263ffffffff1660e01b81526004016126609190613dc8565b602060405180830381865afa15801561267d573d6000803e3d6000fd5b505050506040513d601f19601f820116820180604052508101906126a191906133b2565b9050919050565b60405180610120016040528060008152602001600073ffffffffffffffffffffffffffffffffffffffff1681526020016060815260200160608152602001606081526020016000815260200160001515815260200160608152602001606081525090565b6000604051905090565b600080fd5b600080fd5b600073ffffffffffffffffffffffffffffffffffffffff82169050919050565b600061274b82612720565b9050919050565b61275b81612740565b811461276657600080fd5b50565b60008135905061277881612752565b92915050565b6000819050919050565b6127918161277e565b811461279c57600080fd5b50565b6000813590506127ae81612788565b92915050565b6000806000606084860312156127cd576127cc612716565b5b60006127db86828701612769565b93505060206127ec8682870161279f565b92505060406127fd8682870161279f565b9150509250925092565b600081519050919050565b600082825260208201905092915050565b6000819050602082019050919050565b61283c8161277e565b82525050565b61284b81612740565b82525050565b600081519050919050565b600082825260208201905092915050565b60005b8381101561288b578082015181840152602081019050612870565b60008484015250505050565b6000601f19601f8301169050919050565b60006128b382612851565b6128bd818561285c565b93506128cd81856020860161286d565b6128d681612897565b840191505092915050565b60008115159050919050565b6128f6816128e1565b82525050565b6000610120830160008301516129156000860182612833565b5060208301516129286020860182612842565b506040830151848203604086015261294082826128a8565b9150506060830151848203606086015261295a82826128a8565b9150506080830151848203608086015261297482826128a8565b91505060a083015161298960a0860182612833565b5060c083015161299c60c08601826128ed565b5060e083015184820360e08601526129b482826128a8565b9150506101008301518482036101008601526129d082826128a8565b9150508091505092915050565b60006129e983836128fc565b905092915050565b6000602082019050919050565b6000612a0982612807565b612a138185612812565b935083602082028501612a2585612823565b8060005b85811015612a615784840389528151612a4285826129dd565b9450612a4d836129f1565b925060208a01995050600181019050612a29565b50829750879550505050505092915050565b60006020820190508181036000830152612a8d81846129fe565b905092915050565b600060208284031215612aab57612aaa612716565b5b6000612ab98482850161279f565b91505092915050565b612acb8161277e565b82525050565b612ada81612740565b82525050565b600082825260208201905092915050565b6000612afc82612851565b612b068185612ae0565b9350612b1681856020860161286d565b612b1f81612897565b840191505092915050565b612b33816128e1565b82525050565b600061012082019050612b4f600083018c612ac2565b612b5c602083018b612ad1565b8181036040830152612b6e818a612af1565b90508181036060830152612b828189612af1565b90508181036080830152612b968188612af1565b9050612ba560a0830187612ac2565b612bb260c0830186612b2a565b81810360e0830152612bc48185612af1565b9050818103610100830152612bd98184612af1565b90509a9950505050505050505050565b600080fd5b600080fd5b7f4e487b7100000000000000000000000000000000000000000000000000000000600052604160045260246000fd5b612c2b82612897565b810181811067ffffffffffffffff82111715612c4a57612c49612bf3565b5b80604052505050565b6000612c5d61270c565b9050612c698282612c22565b919050565b600067ffffffffffffffff821115612c8957612c88612bf3565b5b612c9282612897565b9050602081019050919050565b82818337600083830152505050565b6000612cc1612cbc84612c6e565b612c53565b905082815260208101848484011115612cdd57612cdc612bee565b5b612ce8848285612c9f565b509392505050565b600082601f830112612d0557612d04612be9565b5b8135612d15848260208601612cae565b91505092915050565b60008060008060808587031215612d3857612d37612716565b5b6000612d4687828801612769565b945050602085013567ffffffffffffffff811115612d6757612d6661271b565b5b612d7387828801612cf0565b935050604085013567ffffffffffffffff811115612d9457612d9361271b565b5b612da087828801612cf0565b925050606085013567ffffffffffffffff811115612dc157612dc061271b565b5b612dcd87828801612cf0565b91505092959194509250565b60008060408385031215612df057612def612716565b5b6000612dfe85828601612769565b925050602083013567ffffffffffffffff811115612e1f57612e1e61271b565b5b612e2b85828601612cf0565b9150509250929050565b6000819050919050565b6000612e5a612e55612e5084612720565b612e35565b612720565b9050919050565b6000612e6c82612e3f565b9050919050565b6000612e7e82612e61565b9050919050565b612e8e81612e73565b82525050565b6000602082019050612ea96000830184612e85565b92915050565b600081519050919050565b600082825260208201905092915050565b6000819050602082019050919050565b600060c083016000830151612ef36000860182612833565b506020830151612f066020860182612842565b5060408301518482036040860152612f1e82826128a8565b91505060608301518482036060860152612f3882826128a8565b91505060808301518482036080860152612f5282826128a8565b91505060a0830151612f6760a0860182612833565b508091505092915050565b6000612f7e8383612edb565b905092915050565b6000602082019050919050565b6000612f9e82612eaf565b612fa88185612eba565b935083602082028501612fba85612ecb565b8060005b85811015612ff65784840389528151612fd78582612f72565b9450612fe283612f86565b925060208a01995050600181019050612fbe565b50829750879550505050505092915050565b600060208201905081810360008301526130228184612f93565b905092915050565b60008060008060008060c0878903121561304757613046612716565b5b600061305589828a01612769565b965050602087013567ffffffffffffffff8111156130765761307561271b565b5b61308289828a01612cf0565b955050604087013567ffffffffffffffff8111156130a3576130a261271b565b5b6130af89828a01612cf0565b945050606087013567ffffffffffffffff8111156130d0576130cf61271b565b5b6130dc89828a01612cf0565b935050608087013567ffffffffffffffff8111156130fd576130fc61271b565b5b61310989828a01612cf0565b92505060a087013567ffffffffffffffff81111561312a5761312961271b565b5b61313689828a01612cf0565b9150509295509295509295565b60006020828403121561315957613158612716565b5b600061316784828501612769565b91505092915050565b600060c0820190506131856000830189612ac2565b6131926020830188612ad1565b81810360408301526131a48187612af1565b905081810360608301526131b88186612af1565b905081810360808301526131cc8185612af1565b90506131db60a0830184612ac2565b979650505050505050565b60006020820190506131fb6000830184612ac2565b92915050565b7f496e76616c69642053747265616d204944000000000000000000000000000000600082015250565b6000613237601183612ae0565b915061324282613201565b602082019050919050565b600060208201905081810360008301526132668161322a565b9050919050565b7f416d6f756e74206d7573742062652067726561746572207468616e2030000000600082015250565b60006132a3601d83612ae0565b91506132ae8261326d565b602082019050919050565b600060208201905081810360008301526132d281613296565b9050919050565b7f4e487b7100000000000000000000000000000000000000000000000000000000600052603260045260246000fd5b7f53747265616d206e6f7420666f756e6400000000000000000000000000000000600082015250565b600061333e601083612ae0565b915061334982613308565b602082019050919050565b6000602082019050818103600083015261336d81613331565b9050919050565b60006040820190506133896000830185612ad1565b6133966020830184612ad1565b9392505050565b6000815190506133ac81612788565b92915050565b6000602082840312156133c8576133c7612716565b5b60006133d68482850161339d565b91505092915050565b7f496e73756666696369656e7420616c6c6f77616e636500000000000000000000600082015250565b6000613415601683612ae0565b9150613420826133df565b602082019050919050565b6000602082019050818103600083015261344481613408565b9050919050565b60006060820190506134606000830186612ad1565b61346d6020830185612ad1565b61347a6040830184612ac2565b949350505050565b61348b816128e1565b811461349657600080fd5b50565b6000815190506134a881613482565b92915050565b6000602082840312156134c4576134c3612716565b5b60006134d284828501613499565b91505092915050565b7f4661696c20746f207472616e7366657220746f6b656e20696e2061646472657360008201527f7300000000000000000000000000000000000000000000000000000000000000602082015250565b6000613537602183612ae0565b9150613542826134db565b604082019050919050565b600060208201905081810360008301526135668161352a565b9050919050565b60006040820190506135826000830185612ad1565b61358f6020830184612ac2565b9392505050565b7f4661696c20746f207472616e7366657220746f6b656e20746f2073747265616d60008201527f206f776e65720000000000000000000000000000000000000000000000000000602082015250565b60006135f2602683612ae0565b91506135fd82613596565b604082019050919050565b60006020820190508181036000830152613621816135e5565b9050919050565b7f4e487b7100000000000000000000000000000000000000000000000000000000600052601160045260246000fd5b60006136628261277e565b915061366d8361277e565b925082820190508082111561368557613684613628565b5b92915050565b60006136968261277e565b91507fffffffffffffffffffffffffffffffffffffffffffffffffffffffffffffffff82036136c8576136c7613628565b5b600182019050919050565b7f4e487b7100000000000000000000000000000000000000000000000000000000600052602260045260246000fd5b6000600282049050600182168061371a57607f821691505b60208210810361372d5761372c6136d3565b5b50919050565b7f496e76616c696420766964656f20494400000000000000000000000000000000600082015250565b6000613769601083612ae0565b915061377482613733565b602082019050919050565b600060208201905081810360008301526137988161375c565b9050919050565b7f566964656f206e6f7420666f756e640000000000000000000000000000000000600082015250565b60006137d5600f83612ae0565b91506137e08261379f565b602082019050919050565b60006020820190508181036000830152613804816137c8565b9050919050565b7f4661696c20746f207472616e7366657220746f6b656e20746f20766964656f7360008201527f206f776e65720000000000000000000000000000000000000000000000000000602082015250565b6000613867602683612ae0565b91506138728261380b565b604082019050919050565b600060208201905081810360008301526138968161385a565b9050919050565b600081905092915050565b60006138b382612851565b6138bd818561389d565b93506138cd81856020860161286d565b80840191505092915050565b60006138e582846138a8565b915081905092915050565b60008190508160005260206000209050919050565b6000815461391281613702565b61391c818661389d565b94506001821660008114613937576001811461394c5761397f565b60ff198316865281151582028601935061397f565b613955856138f0565b60005b8381101561397757815481890152600182019150602081019050613958565b838801955050505b50505092915050565b60006139948284613905565b915081905092915050565b7f566964656f2077697468207468652073616d652049504653206861736820616c60008201527f7265616479206578697374730000000000000000000000000000000000000000602082015250565b60006139fb602c83612ae0565b9150613a068261399f565b604082019050919050565b60006020820190508181036000830152613a2a816139ee565b9050919050565b60006020601f8301049050919050565b600082821b905092915050565b600060088302613a7e7fffffffffffffffffffffffffffffffffffffffffffffffffffffffffffffffff82613a41565b613a888683613a41565b95508019841693508086168417925050509392505050565b6000613abb613ab6613ab18461277e565b612e35565b61277e565b9050919050565b6000819050919050565b613ad583613aa0565b613ae9613ae182613ac2565b848454613a4e565b825550505050565b600090565b613afe613af1565b613b09818484613acc565b505050565b5b81811015613b2d57613b22600082613af6565b600181019050613b0f565b5050565b601f821115613b7257613b43816138f0565b613b4c84613a31565b81016020851015613b5b578190505b613b6f613b6785613a31565b830182613b0e565b50505b505050565b600082821c905092915050565b6000613b9560001984600802613b77565b1980831691505092915050565b6000613bae8383613b84565b9150826002028217905092915050565b613bc782612851565b67ffffffffffffffff811115613be057613bdf612bf3565b5b613bea8254613702565b613bf5828285613b31565b600060209050601f831160018114613c285760008415613c16578287015190505b613c208582613ba2565b865550613c88565b601f198416613c36866138f0565b60005b82811015613c5e57848901518255600182019150602085019450602081019050613c39565b86831015613c7b5784890151613c77601f891682613b84565b8355505b6001600288020188555050505b505050505050565b6000819050919050565b6000613cb5613cb0613cab84613c90565b612e35565b61277e565b9050919050565b613cc581613c9a565b82525050565b6000604082019050613ce06000830185612ad1565b613ced6020830184613cbc565b9392505050565b600060a082019050613d096000830188612ac2565b613d166020830187612ad1565b8181036040830152613d288186612af1565b90508181036060830152613d3c8185612af1565b90508181036080830152613d508184612af1565b90509695505050505050565b7f43616c6c6572206973206e6f74207468652073747265616d206f776e65720000600082015250565b6000613d92601e83612ae0565b9150613d9d82613d5c565b602082019050919050565b60006020820190508181036000830152613dc181613d85565b9050919050565b6000602082019050613ddd6000830184612ad1565b92915050565b7f53747265616d20776974682074686520676976656e20494420646f6573206e6f60008201527f74206578697374206f722068617320616c7265616479206265656e2073746f7060208201527f7065642e00000000000000000000000000000000000000000000000000000000604082015250565b6000613e65604483612ae0565b9150613e7082613de3565b606082019050919050565b60006020820190508181036000830152613e9481613e58565b9050919050565b7f4c69766553747265616d20616c72656164792065786973747300000000000000600082015250565b6000613ed1601983612ae0565b9150613edc82613e9b565b602082019050919050565b60006020820190508181036000830152613f0081613ec4565b9050919050565b600060c082019050613f1c6000830189612ac2565b613f296020830188612ad1565b8181036040830152613f3b8187612af1565b90508181036060830152613f4f8186612af1565b90508181036080830152613f638185612af1565b9050613f7260a0830184612b2a565b97965050505050505056fea26469706673582212206d23354012d495c7cdb22d198179c13d3ef3189e44526ba2d462ab8e0a65143164736f6c6343000818003360806040523480156200001157600080fd5b506040518060400160405280600881526020017f566964546f6b656e0000000000000000000000000000000000000000000000008152506040518060400160405280600381526020017f4e5654000000000000000000000000000000000000000000000000000000000081525081600390816200008f9190620005ff565b508060049081620000a19190620005ff565b505050620000c2336b033b2e3c9fd0803ce8000000620000c860201b60201c565b6200081d565b600073ffffffffffffffffffffffffffffffffffffffff168273ffffffffffffffffffffffffffffffffffffffff16036200013d5760006040517fec442f050000000000000000000000000000000000000000000000000000000081526004016200013491906200072b565b60405180910390fd5b62000151600083836200015560201b60201c565b5050565b600073ffffffffffffffffffffffffffffffffffffffff168373ffffffffffffffffffffffffffffffffffffffff1603620001ab5780600260008282546200019e919062000777565b9250508190555062000281565b60008060008573ffffffffffffffffffffffffffffffffffffffff1673ffffffffffffffffffffffffffffffffffffffff168152602001908152602001600020549050818110156200023a578381836040517fe450d38c0000000000000000000000000000000000000000000000000000000081526004016200023193929190620007c3565b60405180910390fd5b8181036000808673ffffffffffffffffffffffffffffffffffffffff1673ffffffffffffffffffffffffffffffffffffffff16815260200190815260200160002081905550505b600073ffffffffffffffffffffffffffffffffffffffff168273ffffffffffffffffffffffffffffffffffffffff1603620002cc578060026000828254039250508190555062000319565b806000808473ffffffffffffffffffffffffffffffffffffffff1673ffffffffffffffffffffffffffffffffffffffff168152602001908152602001600020600082825401925050819055505b8173ffffffffffffffffffffffffffffffffffffffff168373ffffffffffffffffffffffffffffffffffffffff167fddf252ad1be2c89b69c2b068fc378daa952ba7f163c4a11628f55a4df523b3ef8360405162000378919062000800565b60405180910390a3505050565b600081519050919050565b7f4e487b7100000000000000000000000000000000000000000000000000000000600052604160045260246000fd5b7f4e487b7100000000000000000000000000000000000000000000000000000000600052602260045260246000fd5b600060028204905060018216806200040757607f821691505b6020821081036200041d576200041c620003bf565b5b50919050565b60008190508160005260206000209050919050565b60006020601f8301049050919050565b600082821b905092915050565b600060088302620004877fffffffffffffffffffffffffffffffffffffffffffffffffffffffffffffffff8262000448565b62000493868362000448565b95508019841693508086168417925050509392505050565b6000819050919050565b6000819050919050565b6000620004e0620004da620004d484620004ab565b620004b5565b620004ab565b9050919050565b6000819050919050565b620004fc83620004bf565b620005146200050b82620004e7565b84845462000455565b825550505050565b600090565b6200052b6200051c565b62000538818484620004f1565b505050565b5b8181101562000560576200055460008262000521565b6001810190506200053e565b5050565b601f821115620005af57620005798162000423565b620005848462000438565b8101602085101562000594578190505b620005ac620005a38562000438565b8301826200053d565b50505b505050565b600082821c905092915050565b6000620005d460001984600802620005b4565b1980831691505092915050565b6000620005ef8383620005c1565b9150826002028217905092915050565b6200060a8262000385565b67ffffffffffffffff81111562000626576200062562000390565b5b620006328254620003ee565b6200063f82828562000564565b600060209050601f83116001811462000677576000841562000662578287015190505b6200066e8582620005e1565b865550620006de565b601f198416620006878662000423565b60005b82811015620006b1578489015182556001820191506020850194506020810190506200068a565b86831015620006d15784890151620006cd601f891682620005c1565b8355505b6001600288020188555050505b505050505050565b600073ffffffffffffffffffffffffffffffffffffffff82169050919050565b60006200071382620006e6565b9050919050565b620007258162000706565b82525050565b60006020820190506200074260008301846200071a565b92915050565b7f4e487b7100000000000000000000000000000000000000000000000000000000600052601160045260246000fd5b60006200078482620004ab565b91506200079183620004ab565b9250828201905080821115620007ac57620007ab62000748565b5b92915050565b620007bd81620004ab565b82525050565b6000606082019050620007da60008301866200071a565b620007e96020830185620007b2565b620007f86040830184620007b2565b949350505050565b6000602082019050620008176000830184620007b2565b92915050565b610e55806200082d6000396000f3fe608060405234801561001057600080fd5b50600436106100935760003560e01c8063313ce56711610066578063313ce5671461013457806370a082311461015257806395d89b4114610182578063a9059cbb146101a0578063dd62ed3e146101d057610093565b806306fdde0314610098578063095ea7b3146100b657806318160ddd146100e657806323b872dd14610104575b600080fd5b6100a0610200565b6040516100ad9190610aa9565b60405180910390f35b6100d060048036038101906100cb9190610b64565b610292565b6040516100dd9190610bbf565b60405180910390f35b6100ee6102b5565b6040516100fb9190610be9565b60405180910390f35b61011e60048036038101906101199190610c04565b6102bf565b60405161012b9190610bbf565b60405180910390f35b61013c6102ee565b6040516101499190610c73565b60405180910390f35b61016c60048036038101906101679190610c8e565b6102f7565b6040516101799190610be9565b60405180910390f35b61018a61033f565b6040516101979190610aa9565b60405180910390f35b6101ba60048036038101906101b59190610b64565b6103d1565b6040516101c79190610bbf565b60405180910390f35b6101ea60048036038101906101e59190610cbb565b6103f4565b6040516101f79190610be9565b60405180910390f35b60606003805461020f90610d2a565b80601f016020809104026020016040519081016040528092919081815260200182805461023b90610d2a565b80156102885780601f1061025d57610100808354040283529160200191610288565b820191906000526020600020905b81548152906001019060200180831161026b57829003601f168201915b5050505050905090565b60008061029d61047b565b90506102aa818585610483565b600191505092915050565b6000600254905090565b6000806102ca61047b565b90506102d7858285610495565b6102e2858585610529565b60019150509392505050565b60006012905090565b60008060008373ffffffffffffffffffffffffffffffffffffffff1673ffffffffffffffffffffffffffffffffffffffff168152602001908152602001600020549050919050565b60606004805461034e90610d2a565b80601f016020809104026020016040519081016040528092919081815260200182805461037a90610d2a565b80156103c75780601f1061039c576101008083540402835291602001916103c7565b820191906000526020600020905b8154815290600101906020018083116103aa57829003601f168201915b5050505050905090565b6000806103dc61047b565b90506103e9818585610529565b600191505092915050565b6000600160008473ffffffffffffffffffffffffffffffffffffffff1673ffffffffffffffffffffffffffffffffffffffff16815260200190815260200160002060008373ffffffffffffffffffffffffffffffffffffffff1673ffffffffffffffffffffffffffffffffffffffff16815260200190815260200160002054905092915050565b600033905090565b610490838383600161061d565b505050565b60006104a184846103f4565b90507fffffffffffffffffffffffffffffffffffffffffffffffffffffffffffffffff81146105235781811015610513578281836040517ffb8f41b200000000000000000000000000000000000000000000000000000000815260040161050a93929190610d6a565b60405180910390fd5b6105228484848403600061061d565b5b50505050565b600073ffffffffffffffffffffffffffffffffffffffff168373ffffffffffffffffffffffffffffffffffffffff160361059b5760006040517f96c6fd1e0000000000000000000000000000000000000000000000000000000081526004016105929190610da1565b60405180910390fd5b600073ffffffffffffffffffffffffffffffffffffffff168273ffffffffffffffffffffffffffffffffffffffff160361060d5760006040517fec442f050000000000000000000000000000000000000000000000000000000081526004016106049190610da1565b60405180910390fd5b6106188383836107f4565b505050565b600073ffffffffffffffffffffffffffffffffffffffff168473ffffffffffffffffffffffffffffffffffffffff160361068f5760006040517fe602df050000000000000000000000000000000000000000000000000000000081526004016106869190610da1565b60405180910390fd5b600073ffffffffffffffffffffffffffffffffffffffff168373ffffffffffffffffffffffffffffffffffffffff16036107015760006040517f94280d620000000000000000000000000000000000000000000000000000000081526004016106f89190610da1565b60405180910390fd5b81600160008673ffffffffffffffffffffffffffffffffffffffff1673ffffffffffffffffffffffffffffffffffffffff16815260200190815260200160002060008573ffffffffffffffffffffffffffffffffffffffff1673ffffffffffffffffffffffffffffffffffffffff1681526020019081526020016000208190555080156107ee578273ffffffffffffffffffffffffffffffffffffffff168473ffffffffffffffffffffffffffffffffffffffff167f8c5be1e5ebec7d5bd14f71427d1e84f3dd0314c0f7b2291e5b200ac8c7c3b925846040516107e59190610be9565b60405180910390a35b50505050565b600073ffffffffffffffffffffffffffffffffffffffff168373ffffffffffffffffffffffffffffffffffffffff160361084657806002600082825461083a9190610deb565b92505081905550610919565b60008060008573ffffffffffffffffffffffffffffffffffffffff1673ffffffffffffffffffffffffffffffffffffffff168152602001908152602001600020549050818110156108d2578381836040517fe450d38c0000000000000000000000000000000000000000000000000000000081526004016108c993929190610d6a565b60405180910390fd5b8181036000808673ffffffffffffffffffffffffffffffffffffffff1673ffffffffffffffffffffffffffffffffffffffff16815260200190815260200160002081905550505b600073ffffffffffffffffffffffffffffffffffffffff168273ffffffffffffffffffffffffffffffffffffffff160361096257806002600082825403925050819055506109af565b806000808473ffffffffffffffffffffffffffffffffffffffff1673ffffffffffffffffffffffffffffffffffffffff168152602001908152602001600020600082825401925050819055505b8173ffffffffffffffffffffffffffffffffffffffff168373ffffffffffffffffffffffffffffffffffffffff167fddf252ad1be2c89b69c2b068fc378daa952ba7f163c4a11628f55a4df523b3ef83604051610a0c9190610be9565b60405180910390a3505050565b600081519050919050565b600082825260208201905092915050565b60005b83811015610a53578082015181840152602081019050610a38565b60008484015250505050565b6000601f19601f8301169050919050565b6000610a7b82610a19565b610a858185610a24565b9350610a95818560208601610a35565b610a9e81610a5f565b840191505092915050565b60006020820190508181036000830152610ac38184610a70565b905092915050565b600080fd5b600073ffffffffffffffffffffffffffffffffffffffff82169050919050565b6000610afb82610ad0565b9050919050565b610b0b81610af0565b8114610b1657600080fd5b50565b600081359050610b2881610b02565b92915050565b6000819050919050565b610b4181610b2e565b8114610b4c57600080fd5b50565b600081359050610b5e81610b38565b92915050565b60008060408385031215610b7b57610b7a610acb565b5b6000610b8985828601610b19565b9250506020610b9a85828601610b4f565b9150509250929050565b60008115159050919050565b610bb981610ba4565b82525050565b6000602082019050610bd46000830184610bb0565b92915050565b610be381610b2e565b82525050565b6000602082019050610bfe6000830184610bda565b92915050565b600080600060608486031215610c1d57610c1c610acb565b5b6000610c2b86828701610b19565b9350506020610c3c86828701610b19565b9250506040610c4d86828701610b4f565b9150509250925092565b600060ff82169050919050565b610c6d81610c57565b82525050565b6000602082019050610c886000830184610c64565b92915050565b600060208284031215610ca457610ca3610acb565b5b6000610cb284828501610b19565b91505092915050565b60008060408385031215610cd257610cd1610acb565b5b6000610ce085828601610b19565b9250506020610cf185828601610b19565b9150509250929050565b7f4e487b7100000000000000000000000000000000000000000000000000000000600052602260045260246000fd5b60006002820490506001821680610d4257607f821691505b602082108103610d5557610d54610cfb565b5b50919050565b610d6481610af0565b82525050565b6000606082019050610d7f6000830186610d5b565b610d8c6020830185610bda565b610d996040830184610bda565b949350505050565b6000602082019050610db66000830184610d5b565b92915050565b7f4e487b7100000000000000000000000000000000000000000000000000000000600052601160045260246000fd5b6000610df682610b2e565b9150610e0183610b2e565b9250828201905080821115610e1957610e18610dbc565b5b9291505056fea264697066735822122077f5a263ee1205cd6b91d3939c62c700cdf49df502befd69032eb7e6dbd2e7fe64736f6c63430008180033",
  "linkReferences": {},
  "deployedLinkReferences": {}
}