{
  "_format": "hh-sol-artifact-1",
  "contractName": "VideoPlatform",
  "sourceName": "contracts/Vidverse.sol",
  "abi": [
    {
      "inputs": [],
      "stateMutability": "nonpayable",
      "type": "constructor"
    },
    {
      "anonymous": false,
      "inputs": [
        {
          "indexed": false,
          "internalType": "uint256",
          "name": "id",
          "type": "uint256"
        },
        {
          "indexed": false,
          "internalType": "address",
          "name": "owner",
          "type": "address"
        },
        {
          "indexed": false,
          "internalType": "string",
          "name": "stramName",
          "type": "string"
        },
        {
          "indexed": false,
          "internalType": "string",
          "name": "description",
          "type": "string"
        },
        {
          "indexed": false,
          "internalType": "string",
          "name": "playBackId",
          "type": "string"
        },
        {
          "indexed": false,
          "internalType": "bool",
          "name": "status",
          "type": "bool"
        },
        {
          "indexed": false,
          "internalType": "string",
          "name": "streamKey",
          "type": "string"
        },
        {
          "indexed": false,
          "internalType": "string",
          "name": "streamID",
          "type": "string"
        }
      ],
      "name": "CreatedStream",
      "type": "event"
    },
    {
      "anonymous": false,
      "inputs": [
        {
          "indexed": true,
          "internalType": "uint256",
          "name": "id",
          "type": "uint256"
        },
        {
          "indexed": false,
          "internalType": "address",
          "name": "owner",
          "type": "address"
        }
      ],
      "name": "StreamStopped",
      "type": "event"
    },
    {
      "anonymous": false,
      "inputs": [
        {
          "indexed": true,
          "internalType": "uint256",
          "name": "streamId",
          "type": "uint256"
        },
        {
          "indexed": true,
          "internalType": "address",
          "name": "owner",
          "type": "address"
        },
        {
          "indexed": false,
          "internalType": "address",
          "name": "tipper",
          "type": "address"
        },
        {
          "indexed": false,
          "internalType": "uint256",
          "name": "amount",
          "type": "uint256"
        },
        {
          "indexed": false,
          "internalType": "uint256",
          "name": "newTipAmount",
          "type": "uint256"
        }
      ],
      "name": "StreamTipped",
      "type": "event"
    },
    {
      "anonymous": false,
      "inputs": [
        {
          "indexed": true,
          "internalType": "address",
          "name": "subscriber",
          "type": "address"
        },
        {
          "indexed": true,
          "internalType": "address",
          "name": "creator",
          "type": "address"
        }
      ],
      "name": "SubscribedToCreator",
      "type": "event"
    },
    {
      "anonymous": false,
      "inputs": [
        {
          "indexed": true,
          "internalType": "address",
          "name": "subscriber",
          "type": "address"
        },
        {
          "indexed": true,
          "internalType": "address",
          "name": "creator",
          "type": "address"
        }
      ],
      "name": "UnsubscribedFromCreator",
      "type": "event"
    },
    {
      "anonymous": false,
      "inputs": [
        {
          "indexed": true,
          "internalType": "address",
          "name": "userAddress",
          "type": "address"
        },
        {
          "indexed": false,
          "internalType": "string",
          "name": "username",
          "type": "string"
        }
      ],
      "name": "UserRegistered",
      "type": "event"
    },
    {
      "anonymous": false,
      "inputs": [
        {
          "indexed": true,
          "internalType": "uint256",
          "name": "videoId",
          "type": "uint256"
        },
        {
          "indexed": true,
          "internalType": "address",
          "name": "owner",
          "type": "address"
        },
        {
          "indexed": false,
          "internalType": "address",
          "name": "tipper",
          "type": "address"
        },
        {
          "indexed": false,
          "internalType": "uint256",
          "name": "amount",
          "type": "uint256"
        },
        {
          "indexed": false,
          "internalType": "uint256",
          "name": "newTipAmount",
          "type": "uint256"
        }
      ],
      "name": "VideoTipped",
      "type": "event"
    },
    {
      "anonymous": false,
      "inputs": [
        {
          "indexed": false,
          "internalType": "uint256",
          "name": "id",
          "type": "uint256"
        },
        {
          "indexed": false,
          "internalType": "address",
          "name": "owner",
          "type": "address"
        },
        {
          "indexed": false,
          "internalType": "string",
          "name": "title",
          "type": "string"
        },
        {
          "indexed": false,
          "internalType": "string",
          "name": "description",
          "type": "string"
        },
        {
          "indexed": false,
          "internalType": "string",
          "name": "ipfsHash",
          "type": "string"
        }
      ],
      "name": "VideoUploaded",
      "type": "event"
    },
    {
      "inputs": [
        {
          "internalType": "address",
          "name": "userAddr",
          "type": "address"
        },
        {
          "internalType": "string",
          "name": "_title",
          "type": "string"
        },
        {
          "internalType": "string",
          "name": "_description",
          "type": "string"
        },
        {
          "internalType": "string",
          "name": "_playbackId",
          "type": "string"
        },
        {
          "internalType": "string",
          "name": "streamKey",
          "type": "string"
        },
        {
          "internalType": "string",
          "name": "_streamID",
          "type": "string"
        },
        {
          "internalType": "string",
          "name": "_genre",
          "type": "string"
        }
      ],
      "name": "createStream",
      "outputs": [],
      "stateMutability": "nonpayable",
      "type": "function"
    },
    {
      "inputs": [
        {
          "internalType": "uint256",
          "name": "_videoId",
          "type": "uint256"
        }
      ],
      "name": "dislikeVideo",
      "outputs": [],
      "stateMutability": "nonpayable",
      "type": "function"
    },
    {
      "inputs": [],
      "name": "getMySubscriptions",
      "outputs": [
        {
          "internalType": "address[]",
          "name": "",
          "type": "address[]"
        }
      ],
      "stateMutability": "view",
      "type": "function"
    },
    {
      "inputs": [
        {
          "internalType": "uint256",
          "name": "_videoId",
          "type": "uint256"
        }
      ],
      "name": "likeVideo",
      "outputs": [],
      "stateMutability": "nonpayable",
      "type": "function"
    },
    {
      "inputs": [
        {
          "internalType": "uint256",
          "name": "",
          "type": "uint256"
        }
      ],
      "name": "liveStreams",
      "outputs": [
        {
          "internalType": "uint256",
          "name": "id",
          "type": "uint256"
        },
        {
          "internalType": "address",
          "name": "owner",
          "type": "address"
        },
        {
          "internalType": "string",
          "name": "stramName",
          "type": "string"
        },
        {
          "internalType": "string",
          "name": "description",
          "type": "string"
        },
        {
          "internalType": "string",
          "name": "playBackId",
          "type": "string"
        },
        {
          "internalType": "uint256",
          "name": "tipAmount",
          "type": "uint256"
        },
        {
          "internalType": "bool",
          "name": "status",
          "type": "bool"
        },
        {
          "internalType": "string",
          "name": "streamKey",
          "type": "string"
        },
        {
          "internalType": "string",
          "name": "streamID",
          "type": "string"
        },
        {
          "internalType": "string",
          "name": "username",
          "type": "string"
        },
        {
          "internalType": "uint256",
          "name": "likes",
          "type": "uint256"
        },
        {
          "internalType": "uint256",
          "name": "dislikes",
          "type": "uint256"
        },
        {
          "internalType": "string",
          "name": "genre",
          "type": "string"
        }
      ],
      "stateMutability": "view",
      "type": "function"
    },
    {
      "inputs": [],
      "name": "myToken",
      "outputs": [
        {
          "internalType": "contract ERC20",
          "name": "",
          "type": "address"
        }
      ],
      "stateMutability": "view",
      "type": "function"
    },
    {
      "inputs": [
        {
          "internalType": "string",
          "name": "_username",
          "type": "string"
        },
        {
          "internalType": "address",
          "name": "userAddress",
          "type": "address"
        }
      ],
      "name": "registerUser",
      "outputs": [],
      "stateMutability": "nonpayable",
      "type": "function"
    },
    {
      "inputs": [
        {
          "internalType": "address",
          "name": "useAddress",
          "type": "address"
        },
        {
          "internalType": "string",
          "name": "_streamID",
          "type": "string"
        }
      ],
      "name": "stopStreamByStreamID",
      "outputs": [],
      "stateMutability": "nonpayable",
      "type": "function"
    },
    {
      "inputs": [
        {
          "internalType": "uint256",
          "name": "",
          "type": "uint256"
        },
        {
          "internalType": "address",
          "name": "",
          "type": "address"
        }
      ],
      "name": "streamDislikes",
      "outputs": [
        {
          "internalType": "bool",
          "name": "",
          "type": "bool"
        }
      ],
      "stateMutability": "view",
      "type": "function"
    },
    {
      "inputs": [
        {
          "internalType": "uint256",
          "name": "",
          "type": "uint256"
        },
        {
          "internalType": "address",
          "name": "",
          "type": "address"
        }
      ],
      "name": "streamLikes",
      "outputs": [
        {
          "internalType": "bool",
          "name": "",
          "type": "bool"
        }
      ],
      "stateMutability": "view",
      "type": "function"
    },
    {
      "inputs": [
        {
          "internalType": "address",
          "name": "creatorAddress",
          "type": "address"
        }
      ],
      "name": "subscribeToCreator",
      "outputs": [],
      "stateMutability": "nonpayable",
      "type": "function"
    },
    {
      "inputs": [
        {
          "internalType": "address",
          "name": "userAddr",
          "type": "address"
        },
        {
          "internalType": "uint256",
          "name": "_streamId",
          "type": "uint256"
        },
        {
          "internalType": "uint256",
          "name": "_amount",
          "type": "uint256"
        }
      ],
      "name": "tipStreamOwner",
      "outputs": [],
      "stateMutability": "payable",
      "type": "function"
    },
    {
      "inputs": [
        {
          "internalType": "address",
          "name": "userAddre",
          "type": "address"
        },
        {
          "internalType": "uint256",
          "name": "_videoId",
          "type": "uint256"
        },
        {
          "internalType": "uint256",
          "name": "_amount",
          "type": "uint256"
        }
      ],
      "name": "tipVideoOwner",
      "outputs": [],
      "stateMutability": "payable",
      "type": "function"
    },
    {
      "inputs": [
        {
          "internalType": "address",
          "name": "creatorAddress",
          "type": "address"
        }
      ],
      "name": "unsubscribeFromCreator",
      "outputs": [],
      "stateMutability": "nonpayable",
      "type": "function"
    },
    {
      "inputs": [
        {
          "internalType": "address",
          "name": "userAddr",
          "type": "address"
        },
        {
          "internalType": "string",
          "name": "_title",
          "type": "string"
        },
        {
          "internalType": "string",
          "name": "_description",
          "type": "string"
        },
        {
          "internalType": "string",
          "name": "_ipfsHash",
          "type": "string"
        },
        {
          "internalType": "string",
          "name": "_genre",
          "type": "string"
        }
      ],
      "name": "uploadVideo",
      "outputs": [],
      "stateMutability": "nonpayable",
      "type": "function"
    },
    {
      "inputs": [
        {
          "internalType": "address",
          "name": "",
          "type": "address"
        }
      ],
      "name": "users",
      "outputs": [
        {
          "internalType": "address",
          "name": "addr",
          "type": "address"
        },
        {
          "internalType": "string",
          "name": "username",
          "type": "string"
        }
      ],
      "stateMutability": "view",
      "type": "function"
    },
    {
      "inputs": [
        {
          "internalType": "uint256",
          "name": "",
          "type": "uint256"
        },
        {
          "internalType": "address",
          "name": "",
          "type": "address"
        }
      ],
      "name": "videoDislikes",
      "outputs": [
        {
          "internalType": "bool",
          "name": "",
          "type": "bool"
        }
      ],
      "stateMutability": "view",
      "type": "function"
    },
    {
      "inputs": [
        {
          "internalType": "uint256",
          "name": "",
          "type": "uint256"
        },
        {
          "internalType": "address",
          "name": "",
          "type": "address"
        }
      ],
      "name": "videoLikes",
      "outputs": [
        {
          "internalType": "bool",
          "name": "",
          "type": "bool"
        }
      ],
      "stateMutability": "view",
      "type": "function"
    },
    {
      "inputs": [
        {
          "internalType": "uint256",
          "name": "",
          "type": "uint256"
        }
      ],
      "name": "videos",
      "outputs": [
        {
          "internalType": "uint256",
          "name": "id",
          "type": "uint256"
        },
        {
          "internalType": "address",
          "name": "owner",
          "type": "address"
        },
        {
          "internalType": "string",
          "name": "title",
          "type": "string"
        },
        {
          "internalType": "string",
          "name": "description",
          "type": "string"
        },
        {
          "internalType": "string",
          "name": "ipfsHash",
          "type": "string"
        },
        {
          "internalType": "uint256",
          "name": "tipAmount",
          "type": "uint256"
        },
        {
          "internalType": "string",
          "name": "username",
          "type": "string"
        },
        {
          "internalType": "uint256",
          "name": "likes",
          "type": "uint256"
        },
        {
          "internalType": "uint256",
          "name": "dislikes",
          "type": "uint256"
        },
        {
          "internalType": "string",
          "name": "genre",
          "type": "string"
        }
      ],
      "stateMutability": "view",
      "type": "function"
    }
  ],
  "bytecode": "0x6080806040523461008757610a408181016001600160401b0381118382101761007157829162002ee8833903906000f0801561006557600880546001600160a01b0319166001600160a01b0392909216919091179055604051612e5b90816200008d8239f35b6040513d6000823e3d90fd5b634e487b7160e01b600052604160045260246000fd5b600080fdfe6080604052600436101561001257600080fd5b60003560e01c80630746bfe5146128305780630b64dab4146125b55780630e54b8721461226a57806327260d5c1461212c57806328558b3f146120df5780632b07483014611f8c5780632b36d94914611ed25780632cc9d4ab14611c405780635b2eda8b14611bf357806361746a5c14611ba65780639b3e783f1461106f578063a87430ba14611012578063a97d33b314610e2d578063aea780241461052e578063b0e6ed1d1461039b578063b8fcf93714610372578063c6044c6214610244578063e6821bf51461013f5763f049a975146100ed57600080fd5b3461013a57604036600319011261013a5761010661295b565b600435600052600260205260406000209060018060a01b0316600052602052602060ff604060002054166040519015158152f35b600080fd5b3461013a57602036600319011261013a5760043560065481101561013a5761016690612ba0565b5080549061024060018060a01b036001830154169161018760028201612ab3565b61019360038301612ab3565b916102266101a360048301612ab3565b6005830154906102136101b860068601612ab3565b916102056007870154986101f76101d6600960088b01549a01612ab3565b996040519e8f9e8f9061014092825260208201528160408201520190612b7b565b8c810360608e015290612b7b565b908a820360808c0152612b7b565b9160a089015287820360c0890152612b7b565b9260e0860152610100850152838203610120850152612b7b565b0390f35b3461013a5760208060031936011261013a5761025e612971565b9033600052600060205260406000209160018060a01b03610283818554161515612d3d565b60026000940190815493818416955b85811061031757505050600160401b83101561030157826102bb9160016102d995018155612e0d565b90919060018060a01b038084549260031b9316831b921b1916179055565b337fbd347d1e803a8fd8e211fb59a6146afdc81bc3b357c9a05789d53fa14e9882a2600080a3005b634e487b7160e01b600052604160045260246000fd5b86836103238387612e0d565b90549060031b1c161461033857600101610292565b60405162461bcd60e51b8152600481018390526012602482015271105b1c9958591e481cdd589cd8dc9a58995960721b6044820152606490fd5b3461013a57600036600319011261013a576008546040516001600160a01b039091168152602090f35b3461013a57602036600319011261013a576103b4612971565b33600052600060205260406000209060018060a01b03906103d9828454161515612d3d565b600019600260009401918383549116945b818110610505575b50600082126104c05760001981019081116104aa5761044791846104196104239386612e0d565b9390549286612e0d565b92909360031b1c169060018060a01b038084549260031b9316831b921b1916179055565b8054801561049457600019019161045e8383612e0d565b909182549160031b1b1916905555337f95a70275c11f622b135eb6dc26da86da35fb0a0bd9028874c8c1f30198065aec600080a3005b634e487b7160e01b600052603160045260246000fd5b634e487b7160e01b600052601160045260246000fd5b60405162461bcd60e51b815260206004820152601e60248201527f4e6f74207375627363726962656420746f20746869732063726561746f7200006044820152606490fd5b85856105118387612e0d565b90549060031b1c1614610526576001016103ea565b9150856103f2565b3461013a5760a036600319011261013a57610547612971565b6024356001600160401b03811161013a576105669036906004016129d2565b906044356001600160401b03811161013a576105869036906004016129d2565b916064356001600160401b03811161013a576105a69036906004016129d2565b906084356001600160401b03811161013a576105c69036906004016129d2565b9160018060a01b03841660005260006020526105f36105ec600160406000200154612a79565b1515612d3d565b6006549260005b848110610d63575060018060a01b038516600052600060205260016040600020019060405191826101408101106001600160401b03610140850111176103015761067590610140840160405286845260018060a01b0388166020850152856040850152886060850152846080850152600060a0850152612ab3565b60c0830152600060e08301526000610100830152610120820152600160401b84101561030157600184016006556106ab84612ba0565b919091610d4d57805182556001820160018060a01b036020830151166001600160601b0360a01b82541617905560408101518051906001600160401b0382116103015781906106fd6002860154612a79565b601f8111610d18575b50602090601f8311600114610ca657600092610c9b575b50508160011b916000199060031b1c19161760028301555b60608101518051906001600160401b03821161030157819061075a6003860154612a79565b601f8111610c66575b50602090601f8311600114610bf457600092610be9575b50508160011b916000199060031b1c19161760038301555b60808101518051906001600160401b0382116103015781906107b76004860154612a79565b601f8111610bb4575b50602090601f8311600114610b4257600092610b37575b50508160011b916000199060031b1c19161760048301555b60a0810151600583015560c08101518051906001600160401b0382116103015761081c6006850154612a79565b601f8111610b02575b50602090601f8311600114610a8e5761012093929160009183610a83575b50508160011b916000199060031b1c19161760068401555b60e08101516007840155610100810151600884015501518051906001600160401b038211610301576108906009840154612a79565b601f8111610a43575b50602090601f83116001146109d35760099291600091836109c8575b50508160011b916000199060031b1c1916179101555b60085460405163a9059cbb60e01b81526001600160a01b03868116600483015268056bc75e2d631000006024830152909160209183916044918391600091165af19586156109bc5761096c6109889461097a937f21e2cbd789bc9c3e71f61317f6c319f27a2f7953bf693b48c579ae6a3a1194569961098d575b50604051978897885260018060a01b0316602088015260a0604088015260a0870190612b7b565b908582036060870152612b7b565b908382036080850152612b7b565b0390a1005b6109ae9060203d6020116109b5575b6109a681836129b1565b810190612cb8565b5089610945565b503d61099c565b6040513d6000823e3d90fd5b0151905089806108b5565b906009840160005260206000209160005b601f1985168110610a2b5750918391600193600995601f19811610610a12575b505050811b019101556108cb565b015160001960f88460031b161c19169055898080610a04565b919260206001819286850151815501940192016109e4565b610a7390600985016000526020600020601f850160051c81019160208610610a79575b601f0160051c0190612d26565b88610899565b9091508190610a66565b015190508a80610843565b906006850160005260206000209160005b601f1985168110610aea57509183916001936101209695601f19811610610ad1575b505050811b01600684015561085b565b015160001960f88460031b161c191690558a8080610ac1565b91926020600181928685015181550194019201610a9f565b610b3190600686016000526020600020601f850160051c81019160208610610a7957601f0160051c0190612d26565b89610825565b0151905089806107d7565b9250600485016000526020600020906000935b601f1984168510610b99576001945083601f19811610610b80575b505050811b0160048301556107ef565b015160001960f88460031b161c19169055898080610b70565b81810151835560209485019460019093019290910190610b55565b610be390600487016000526020600020601f850160051c81019160208610610a7957601f0160051c0190612d26565b8a6107c0565b01519050898061077a565b9250600385016000526020600020906000935b601f1984168510610c4b576001945083601f19811610610c32575b505050811b016003830155610792565b015160001960f88460031b161c19169055898080610c22565b81810151835560209485019460019093019290910190610c07565b610c9590600387016000526020600020601f850160051c81019160208610610a7957601f0160051c0190612d26565b8a610763565b01519050898061071d565b9250600285016000526020600020906000935b601f1984168510610cfd576001945083601f19811610610ce4575b505050811b016002830155610735565b015160001960f88460031b161c19169055898080610cd4565b81810151835560209485019460019093019290910190610cb9565b610d4790600287016000526020600020601f850160051c81019160208610610a7957601f0160051c0190612d26565b8a610706565b634e487b7160e01b600052600060045260246000fd5b6004610d88610d96610d7484612ba0565b506040519283916020830195869101612d89565b03601f1981018352826129b1565b5190206040516020810190610dc36020828851610db68187858d01612b58565b81010380845201826129b1565b51902014610dd3576001016105fa565b60405162461bcd60e51b815260206004820152602c60248201527f566964656f2077697468207468652073616d652049504653206861736820616c60448201526b72656164792065786973747360a01b6064820152608490fd5b3461013a57604036600319011261013a57610e46612971565b602480356001600160401b03811161013a57610e67839136906004016129d2565b6020926000929091848101845b600754811015611008576008610d88610ea2610e8f84612a28565b506040519283918c830195869101612d89565b51902060405188810190610ebe8a828851610db681878b612b58565b51902014610ece57600101610e74565b929394505050610edd81612a28565b5060019081015490936001600160a01b03938416939091168303610fc5575083610f3c826006610f2d7fd95eebb8ae85b521a4f98aff3b92d8cd7ecf3f002024835c0e9716cf2bdea20895612a28565b5001805460ff19169055612a28565b505492604051908152a25b15610f4e57005b60a4906040519062461bcd60e51b82526004820152604460248201527f53747265616d20776974682074686520676976656e20494420646f6573206e6f60448201527f74206578697374206f722068617320616c7265616479206265656e2073746f706064820152633832b21760e11b6084820152fd5b84601e6064926040519262461bcd60e51b845260048401528201527f43616c6c6572206973206e6f74207468652073747265616d206f776e657200006044820152fd5b5050505050610f47565b3461013a57602036600319011261013a576001600160a01b0380611034612971565b16600052600060205261105260016040600020928354169201612ab3565b906102406040519283928352604060208401526040830190612b7b565b3461013a5760e036600319011261013a57611088612971565b6024356001600160401b03811161013a576110a79036906004016129d2565b906044356001600160401b03811161013a576110c79036906004016129d2565b916064356001600160401b03811161013a576110e79036906004016129d2565b926084356001600160401b03811161013a576111079036906004016129d2565b9360a4356001600160401b03811161013a576111279036906004016129d2565b9060c4356001600160401b03811161013a576111479036906004016129d2565b9560018060a01b038616600052600060205261116d6105ec600160406000200154612a79565b6007549460005b868110611b1e575060018060a01b038716600052600060205260016040600020019760405198896101a08101106001600160401b036101a08c01111761030157611203906101a08b01604052888b5260018060a01b038a1660208c01528360408c01528760608c01528560808c0152600060a08c0152600160c08c01528460e08c0152866101008c0152612ab3565b6101208a015260006101408a015260006101608a0152610180890152600160401b861015610301576001860160075561123b86612a28565b989098610d4d57805189556001890160018060a01b036020830151166001600160601b0360a01b82541617905560408101518051906001600160401b0382116103015781908b61128e6002820154612a79565b601f8111611ae9575b5050602090601f8311600114611a7757600092611a6c575b50508160011b916000199060031b1c19161760028a01555b60608101518051906001600160401b0382116103015781908b6112ed6003820154612a79565b601f8111611a37575b5050602090601f83116001146119c5576000926119ba575b50508160011b916000199060031b1c19161760038a01555b60808101518051906001600160401b0382116103015781908b61134c6004820154612a79565b601f8111611985575b5050602090601f831160011461191357600092611908575b50508160011b916000199060031b1c19161760048a01555b60a081015160058a01556006890160c0820151151560ff8019835416911617905560e08101518051906001600160401b0382116103015781908b6113cc6007820154612a79565b601f81116118d3575b5050602090601f831160011461186157600092611856575b50508160011b916000199060031b1c19161760078a01555b6101008101518051906001600160401b0382116103015781908b61142c6008820154612a79565b601f8111611821575b5050602090601f83116001146117af576000926117a4575b50508160011b916000199060031b1c19161760088a01555b6101208101518051906001600160401b0382116103015761148960098c0154612a79565b601f811161176f575b50602090601f83116001146116fb57610180939291600091836116f0575b50508160011b916000199060031b1c19161760098b01555b610140810151600a8b0155610160810151600b8b015501519788516001600160401b038111610301576114fe600c830154612a79565b601f81116116bb575b506020601f821160011461164b579080600c9260009c8d92611640575b50508160011b918c199060031b1c1916179101555b60085460405163a9059cbb60e01b81526001600160a01b038981166004830152683635c9adc5dea00000602483015290996020928b9260449284929091165af19283156109bc576115f0610988966115e26115fe947f33d5f388ce56f212ca76967c0f8dfab861a6550a9c94662ff49f413d04668c289c61161398611621575b506040519b8c9b8c5260018060a01b031660208c015261010060408c01526101008b0190612b7b565b9089820360608b0152612b7b565b908782036080890152612b7b565b90600160a087015285820360c0870152612b7b565b9083820360e0850152612b7b565b6116399060203d6020116109b5576109a681836129b1565b508d6115b9565b015190508c80611524565b600c830160005260206000209a60005b601f19841681106116a357509160009b600192600c9483601f1981161061168b575b505050811b01910155611539565b01518d1960f88460031b161c191690558c808061167d565b828201518d556001909c019b6020928301920161165b565b6116ea90600c84016000526020600020601f840160051c81019160208510610a7957601f0160051c0190612d26565b8a611507565b015190508c806114b0565b9060098c0160005260206000209160005b601f198516811061175757509183916001936101809695601f1981161061173e575b505050811b0160098b01556114c8565b015160001960f88460031b161c191690558c808061172e565b9192602060018192868501518155019401920161170c565b61179e9060098d016000526020600020601f850160051c81019160208610610a7957601f0160051c0190612d26565b8b611492565b015190508b8061144d565b925060088c016000526020600020906000935b601f1984168510611806576001945083601f198116106117ed575b505050811b0160088a0155611465565b015160001960f88460031b161c191690558b80806117dd565b818101518355602094850194600190930192909101906117c2565b600861184f92016000526020600020601f850160051c81019160208610610a7957601f0160051c0190612d26565b8b8d611435565b015190508b806113ed565b925060078c016000526020600020906000935b601f19841685106118b8576001945083601f1981161061189f575b505050811b0160078a0155611405565b015160001960f88460031b161c191690558b808061188f565b81810151835560209485019460019093019290910190611874565b600761190192016000526020600020601f850160051c81019160208610610a7957601f0160051c0190612d26565b8b8d6113d5565b015190508b8061136d565b925060048c016000526020600020906000935b601f198416851061196a576001945083601f19811610611951575b505050811b0160048a0155611385565b015160001960f88460031b161c191690558b8080611941565b81810151835560209485019460019093019290910190611926565b60046119b392016000526020600020601f850160051c81019160208610610a7957601f0160051c0190612d26565b8b8d611355565b015190508b8061130e565b925060038c016000526020600020906000935b601f1984168510611a1c576001945083601f19811610611a03575b505050811b0160038a0155611326565b015160001960f88460031b161c191690558b80806119f3565b818101518355602094850194600190930192909101906119d8565b6003611a6592016000526020600020601f850160051c81019160208610610a7957601f0160051c0190612d26565b8b8d6112f6565b015190508b806112af565b925060028c016000526020600020906000935b601f1984168510611ace576001945083601f19811610611ab5575b505050811b0160028a01556112c7565b015160001960f88460031b161c191690558b8080611aa5565b81810151835560209485019460019093019290910190611a8a565b6002611b1792016000526020600020601f850160051c81019160208610610a7957601f0160051c0190612d26565b8b8d611297565b6004610d88611b2f610d7484612a28565b5190206040516020810190611b5160208281610db68b87815193849201612b58565b51902014611b6157600101611174565b60405162461bcd60e51b815260206004820152601960248201527f4c69766553747265616d20616c726561647920657869737473000000000000006044820152606490fd5b3461013a57604036600319011261013a57611bbf61295b565b600435600052600160205260406000209060018060a01b0316600052602052602060ff604060002054166040519015158152f35b3461013a57604036600319011261013a57611c0c61295b565b600435600052600460205260406000209060018060a01b0316600052602052602060ff604060002054166040519015158152f35b611c4936612987565b611c566006548310612bdb565b611c61811515612c27565b611c6a82612ba0565b506001810180549094916001600160a01b0391821615611e9b57600854604051636eb1769f60e11b81526001600160a01b03851660048201523060248201526020918416908281604481855afa80156109bc578790600090611e6a575b611cd392501015612c73565b6040516323b872dd60e01b81526001600160a01b038616600482015230602482015260448101879052908290829060649082906000905af180156109bc57611d2391600091611e4d575b50612cd0565b600854875460405163a9059cbb60e01b81529085166001600160a01b031660048201526024810187905290829082908616816000816044810103925af19081156109bc57600091611e30575b5015611ddd57507f43f28d6f7c3838abd6cbdf493a5c63550740efc8071f5d0bc5b38769455414db9392916005611dd8920196611dad858954612c1a565b80985554169560405193849384604091949392606082019560018060a01b0316825260208201520152565b0390a3005b6084906040519062461bcd60e51b82526004820152602660248201527f4661696c20746f207472616e7366657220746f6b656e20746f20766964656f736044820152651037bbb732b960d11b6064820152fd5b611e479150823d84116109b5576109a681836129b1565b88611d6f565b611e649150833d85116109b5576109a681836129b1565b89611d1d565b50508281813d8311611e94575b611e8181836129b1565b8101031261013a5786611cd39151611cc7565b503d611e77565b60405162461bcd60e51b815260206004820152600f60248201526e159a59195bc81b9bdd08199bdd5b99608a1b6044820152606490fd5b3461013a57600036600319011261013a5733600052602060008152600260406000200160405190818382549182815201908192600052846000209060005b86828210611f6f578686611f26828803836129b1565b604051928392818401908285525180915260408401929160005b828110611f4f57505050500390f35b83516001600160a01b031685528695509381019392810192600101611f40565b83546001600160a01b031685529093019260019283019201611f10565b3461013a57602036600319011261013a5760043560075481101561013a57611fb390612a28565b50805460018201546001600160a01b031691611fd160028201612ab3565b90611fde60038201612ab3565b90611feb60048201612ab3565b6005820154600683015460ff169061200560078501612ab3565b9061201260088601612ab3565b9261201f60098701612ab3565b94600a87015497600b88015497600c0161203890612ab3565b996040519c8d9c8d6101a092839282526020820152604001528c0161205c91612b7b565b8b810360608d015261206d91612b7b565b8a810360808c015261207e91612b7b565b9160a08a0152151560c089015287810360e089015261209c91612b7b565b8681036101008801526120ae91612b7b565b8581036101208701526120c091612b7b565b9161014085015261016084015282810361018084015261024091612b7b565b3461013a57604036600319011261013a576120f861295b565b600435600052600360205260406000209060018060a01b0316600052602052602060ff604060002054166040519015158152f35b3461013a5760208060031936011261013a576004359061214f6006548310612bdb565b8160005260018152604060002033600052815260ff60406000205416612226578160005260028152604060002033600052815260ff604060002054166121d157816121be916007936000526001815260406000209033600052526040600020600160ff19825416179055612ba0565b5001805490600182018092116104aa5755005b6084906040519062461bcd60e51b82526004820152602860248201527f416c7265616479206469736c696b6564207468697320766964656f2c2063616e6044820152676e6f74206c696b6560c01b6064820152fd5b6064906040519062461bcd60e51b82526004820152601860248201527f416c7265616479206c696b6564207468697320766964656f00000000000000006044820152fd5b3461013a57604036600319011261013a576001600160401b0360043581811161013a5761229b9036906004016129d2565b6122a361295b565b906040519260ff848351602096816122bf899383858a01612b58565b8101600581520301902054166125705760018060a01b038093169283600052600085526122f3600160406000200154612a79565b61252b5760405190858201828110848211176103015760405260008252604051916060830183811085821117610301576040528583528683019085825260408401528560005260008752604060002090828451166001600160601b0360a01b835416178255600182019051805190868211610301576123728354612a79565b601f81116124fb575b508990601f831160011461248e5791806002949260409694600092612483575b50508160011b916000199060031b1c19161790555b01920151805193841161030157600160401b84116103015786908354858555808610612466575b500191600052856000209060005b84811061245257867f48cac28ad4dc618e15f4c2dd5e97751182f166de97b25618318b2112aa951a2f878a604051818184516124248183858901612b58565b81016005815203019020600160ff1982541617905561244d604051928284938452830190612b7b565b0390a2005b8351821683820155928701926001016123e5565b61247d908560005286846000209182019101612d26565b886123d7565b015190508c8061239b565b90601f19831691846000528b6000209260005b8d8282106124e55750509260019285926040989660029896106124cc575b505050811b0190556123b0565b015160001960f88460031b161c191690558c80806124bf565b60018596829396860151815501950193016124a1565b61252590846000528b600020601f850160051c8101918d8610610a7957601f0160051c0190612d26565b8a61237b565b60405162461bcd60e51b815260048101869052601a60248201527f4164647265737320616c726561647920726567697374657265640000000000006044820152606490fd5b60405162461bcd60e51b815260048101859052601960248201527f557365726e616d6520697320616c72656164792074616b656e000000000000006044820152606490fd5b6125be36612987565b6007548210156127f7576125d3811515612c27565b6125dc82612a28565b506001810180549094916001600160a01b03918216156127bf57600854604051636eb1769f60e11b81526001600160a01b03851660048201523060248201526020918416908281604481855afa80156109bc57879060009061278e575b61264592501015612c73565b6040516323b872dd60e01b81526001600160a01b038616600482015230602482015260448101879052908290829060649082906000905af180156109bc5761269491600091611e4d5750612cd0565b600854875460405163a9059cbb60e01b81529085166001600160a01b031660048201526024810187905290829082908616816000816044810103925af19081156109bc57600091612771575b501561271e57507f496b18425185db1e67cd9a80cf3ac423445fc0586c4e11362a1168fa5a6fe2739392916005611dd8920196611dad858954612c1a565b6084906040519062461bcd60e51b82526004820152602660248201527f4661696c20746f207472616e7366657220746f6b656e20746f2073747265616d6044820152651037bbb732b960d11b6064820152fd5b6127889150823d84116109b5576109a681836129b1565b886126e0565b50508281813d83116127b8575b6127a581836129b1565b8101031261013a57866126459151612639565b503d61279b565b60405162461bcd60e51b815260206004820152601060248201526f14dd1c99585b481b9bdd08199bdd5b9960821b6044820152606490fd5b60405162461bcd60e51b8152602060048201526011602482015270125b9d985b1a590814dd1c99585b481251607a1b6044820152606490fd5b3461013a5760208060031936011261013a57600435906128536006548310612bdb565b8160005260028152604060002033600052815260ff60406000205416612917578160005260018152604060002033600052815260ff604060002054166128c257816121be916008936000526002815260406000209033600052526040600020600160ff19825416179055612ba0565b6084906040519062461bcd60e51b82526004820152602860248201527f416c7265616479206c696b6564207468697320766964656f2c2063616e6e6f74604482015267206469736c696b6560c01b6064820152fd5b6064906040519062461bcd60e51b82526004820152601b60248201527f416c7265616479206469736c696b6564207468697320766964656f00000000006044820152fd5b602435906001600160a01b038216820361013a57565b600435906001600160a01b038216820361013a57565b606090600319011261013a576004356001600160a01b038116810361013a57906024359060443590565b90601f801991011681019081106001600160401b0382111761030157604052565b81601f8201121561013a578035906001600160401b0382116103015760405192612a06601f8401601f1916602001856129b1565b8284526020838301011161013a57816000926020809301838601378301015290565b600754811015612a6357600d906007600052027fa66cc928b5edb82af9bd49922954155ab7b0942694bea4ce44661d9a8736c6880190600090565b634e487b7160e01b600052603260045260246000fd5b90600182811c92168015612aa9575b6020831014612a9357565b634e487b7160e01b600052602260045260246000fd5b91607f1691612a88565b90604051918260008254612ac681612a79565b90818452602094600191600181169081600014612b365750600114612af7575b505050612af5925003836129b1565b565b600090815285812095935091905b818310612b1e575050612af59350820101388080612ae6565b85548884018501529485019487945091830191612b05565b92505050612af594925060ff191682840152151560051b820101388080612ae6565b60005b838110612b6b5750506000910152565b8181015183820152602001612b5b565b90602091612b9481518092818552858086019101612b58565b601f01601f1916010190565b600654811015612a6357600a906006600052027ff652222313e28459528d920b65115c16c04f3efc82aaedc97be59f3f377c0d3f0190600090565b15612be257565b60405162461bcd60e51b815260206004820152601060248201526f125b9d985b1a59081d9a59195bc8125160821b6044820152606490fd5b919082018092116104aa57565b15612c2e57565b60405162461bcd60e51b815260206004820152601d60248201527f416d6f756e74206d7573742062652067726561746572207468616e20300000006044820152606490fd5b15612c7a57565b60405162461bcd60e51b8152602060048201526016602482015275496e73756666696369656e7420616c6c6f77616e636560501b6044820152606490fd5b9081602091031261013a5751801515810361013a5790565b15612cd757565b60405162461bcd60e51b815260206004820152602160248201527f4661696c20746f207472616e7366657220746f6b656e20696e206164647265736044820152607360f81b6064820152608490fd5b818110612d31575050565b60008155600101612d26565b15612d4457565b60405162461bcd60e51b815260206004820152601760248201527f55736572206d75737420626520726567697374657265640000000000000000006044820152606490fd5b600092918154612d9881612a79565b92600191808316908115612df25750600114612db5575b50505050565b9091929394506000526020906020600020906000915b858310612de15750505050019038808080612daf565b805485840152918301918101612dcb565b60ff1916845250505081151590910201915038808080612daf565b8054821015612a63576000526020600020019060009056fea264697066735822122066e27b7c35d6fb6a784d416fe4a78aaed8ebc3774dfd4a9711988d337e94f93164736f6c6343000818003360803462000397576040906001600160401b0390808301828111828210176200029757835260088152602090672b34b22a37b5b2b760c11b82820152835192848401848110828211176200029757855260038085526213959560ea1b84860152825182811162000297578154906001948583811c931680156200038c575b8784101462000376578190601f9384811162000320575b508790848311600114620002b957600092620002ad575b505060001982851b1c191690851b1782555b8551928311620002975760049586548581811c911680156200028c575b8782101462000277578281116200022c575b5085918411600114620001c157938394918492600095620001b5575b50501b92600019911b1c19161782555b33156200019e576002546b033b2e3c9fd0803ce8000000928382018092116200018957506000917fddf252ad1be2c89b69c2b068fc378daa952ba7f163c4a11628f55a4df523b3ef9160025533835282815284832084815401905584519384523393a3516106a390816200039d8239f35b601190634e487b7160e01b6000525260246000fd5b506000602492519163ec442f0560e01b8352820152fd5b01519350388062000108565b9190601f198416928760005284876000209460005b8989838310620002145750505010620001f9575b50505050811b01825562000118565b01519060f884600019921b161c1916905538808080620001ea565b868601518955909701969485019488935001620001d6565b87600052866000208380870160051c8201928988106200026d575b0160051c019086905b82811062000260575050620000ec565b6000815501869062000250565b9250819262000247565b602288634e487b7160e01b6000525260246000fd5b90607f1690620000da565b634e487b7160e01b600052604160045260246000fd5b015190503880620000ab565b90879350601f1983169186600052896000209260005b8b828210620003095750508411620002f0575b505050811b018255620000bd565b015160001983871b60f8161c19169055388080620002e2565b8385015186558b97909501949384019301620002cf565b90915084600052876000208480850160051c8201928a86106200036c575b918991869594930160051c01915b8281106200035c57505062000094565b600081558594508991016200034c565b925081926200033e565b634e487b7160e01b600052602260045260246000fd5b92607f16926200007d565b600080fdfe608060408181526004918236101561001657600080fd5b600092833560e01c91826306fdde031461043b57508163095ea7b31461038d57816318160ddd1461036e57816323b872dd14610277578163313ce5671461025b57816370a082311461022457816395d89b411461010357508063a9059cbb146100d35763dd62ed3e1461008857600080fd5b346100cf57806003193601126100cf57806020926100a461055e565b6100ac610579565b6001600160a01b0391821683526001865283832091168252845220549051908152f35b5080fd5b50346100cf57806003193601126100cf576020906100fc6100f261055e565b602435903361058f565b5160018152f35b8383346100cf57816003193601126100cf5780519082845460018160011c906001831692831561021a575b6020938484108114610207578388529081156101eb5750600114610196575b505050829003601f01601f191682019267ffffffffffffffff841183851017610183575082918261017f925282610515565b0390f35b634e487b7160e01b815260418552602490fd5b8787529192508591837f8a35acfbc15ff81a39ae7d344fd709f28e8600b4aa8c65c6b64bfe7fe36bd19b5b8385106101d7575050505083010185808061014d565b8054888601830152930192849082016101c1565b60ff1916878501525050151560051b840101905085808061014d565b634e487b7160e01b895260228a52602489fd5b91607f169161012e565b5050346100cf5760203660031901126100cf5760209181906001600160a01b0361024c61055e565b16815280845220549051908152f35b5050346100cf57816003193601126100cf576020905160128152f35b9050823461036b57606036600319011261036b5761029361055e565b61029b610579565b916044359360018060a01b0383168083526001602052868320338452602052868320549160001983036102d7575b6020886100fc89898961058f565b86831061033f578115610328573315610311575082526001602090815286832033845281529186902090859003905582906100fc876102c9565b8751634a1406b160e11b8152908101849052602490fd5b875163e602df0560e01b8152908101849052602490fd5b8751637dc7a0d960e11b8152339181019182526020820193909352604081018790528291506060010390fd5b80fd5b5050346100cf57816003193601126100cf576020906002549051908152f35b9050346104375781600319360112610437576103a761055e565b602435903315610420576001600160a01b031691821561040957508083602095338152600187528181208582528752205582519081527f8c5be1e5ebec7d5bd14f71427d1e84f3dd0314c0f7b2291e5b200ac8c7c3b925843392a35160018152f35b8351634a1406b160e11b8152908101859052602490fd5b835163e602df0560e01b8152808401869052602490fd5b8280fd5b849084346104375782600319360112610437578260035460018160011c906001831692831561050b575b6020938484108114610207578388529081156101eb57506001146104b557505050829003601f01601f191682019267ffffffffffffffff841183851017610183575082918261017f925282610515565b600387529192508591837fc2575a0e9e593c00f959f8c92f12db2869c3395a3b0502d05e2516446f71f85b5b8385106104f7575050505083010185808061014d565b8054888601830152930192849082016104e1565b91607f1691610465565b6020808252825181830181905290939260005b82811061054a57505060409293506000838284010152601f8019910116010190565b818101860151848201604001528501610528565b600435906001600160a01b038216820361057457565b600080fd5b602435906001600160a01b038216820361057457565b916001600160a01b03808416928315610654571692831561063b5760009083825281602052604082205490838210610609575091604082827fddf252ad1be2c89b69c2b068fc378daa952ba7f163c4a11628f55a4df523b3ef958760209652828652038282205586815220818154019055604051908152a3565b60405163391434e360e21b81526001600160a01b03919091166004820152602481019190915260448101839052606490fd5b60405163ec442f0560e01b815260006004820152602490fd5b604051634b637e8f60e11b815260006004820152602490fdfea2646970667358221220e65b731552b1f611085140cdac8a405d5d2aa0c6ed4e5bbf6e8a75981e40156e64736f6c63430008180033",
  "linkReferences": {},
  "deployedLinkReferences": {}
}