{
  "_format": "hh-sol-artifact-1",
  "contractName": "VideoPlatform",
  "sourceName": "contracts/Vidverse.sol",
  "abi": [
    {
      "inputs": [],
      "stateMutability": "nonpayable",
      "type": "constructor"
    },
    {
      "anonymous": false,
      "inputs": [
        {
          "indexed": false,
          "internalType": "uint256",
          "name": "id",
          "type": "uint256"
        },
        {
          "indexed": false,
          "internalType": "address",
          "name": "owner",
          "type": "address"
        },
        {
          "indexed": false,
          "internalType": "string",
          "name": "stramName",
          "type": "string"
        },
        {
          "indexed": false,
          "internalType": "string",
          "name": "description",
          "type": "string"
        },
        {
          "indexed": false,
          "internalType": "string",
          "name": "playBackId",
          "type": "string"
        },
        {
          "indexed": false,
          "internalType": "bool",
          "name": "status",
          "type": "bool"
        },
        {
          "indexed": false,
          "internalType": "string",
          "name": "streamKey",
          "type": "string"
        },
        {
          "indexed": false,
          "internalType": "string",
          "name": "streamID",
          "type": "string"
        },
        {
          "indexed": false,
          "internalType": "string",
          "name": "username",
          "type": "string"
        },
        {
          "indexed": false,
          "internalType": "uint256",
          "name": "likes",
          "type": "uint256"
        },
        {
          "indexed": false,
          "internalType": "uint256",
          "name": "dislikes",
          "type": "uint256"
        },
        {
          "indexed": false,
          "internalType": "string",
          "name": "genre",
          "type": "string"
        }
      ],
      "name": "CreatedStream",
      "type": "event"
    },
    {
      "anonymous": false,
      "inputs": [
        {
          "indexed": true,
          "internalType": "uint256",
          "name": "id",
          "type": "uint256"
        },
        {
          "indexed": false,
          "internalType": "address",
          "name": "owner",
          "type": "address"
        }
      ],
      "name": "StreamStopped",
      "type": "event"
    },
    {
      "anonymous": false,
      "inputs": [
        {
          "indexed": true,
          "internalType": "uint256",
          "name": "streamId",
          "type": "uint256"
        },
        {
          "indexed": true,
          "internalType": "address",
          "name": "owner",
          "type": "address"
        },
        {
          "indexed": false,
          "internalType": "address",
          "name": "tipper",
          "type": "address"
        },
        {
          "indexed": false,
          "internalType": "uint256",
          "name": "amount",
          "type": "uint256"
        },
        {
          "indexed": false,
          "internalType": "uint256",
          "name": "newTipAmount",
          "type": "uint256"
        }
      ],
      "name": "StreamTipped",
      "type": "event"
    },
    {
      "anonymous": false,
      "inputs": [
        {
          "indexed": true,
          "internalType": "address",
          "name": "subscriber",
          "type": "address"
        },
        {
          "indexed": true,
          "internalType": "address",
          "name": "creator",
          "type": "address"
        }
      ],
      "name": "SubscribedToCreator",
      "type": "event"
    },
    {
      "anonymous": false,
      "inputs": [
        {
          "indexed": true,
          "internalType": "address",
          "name": "subscriber",
          "type": "address"
        },
        {
          "indexed": true,
          "internalType": "address",
          "name": "creator",
          "type": "address"
        }
      ],
      "name": "UnsubscribedFromCreator",
      "type": "event"
    },
    {
      "anonymous": false,
      "inputs": [
        {
          "indexed": true,
          "internalType": "address",
          "name": "userAddress",
          "type": "address"
        },
        {
          "indexed": false,
          "internalType": "string",
          "name": "username",
          "type": "string"
        }
      ],
      "name": "UserRegistered",
      "type": "event"
    },
    {
      "anonymous": false,
      "inputs": [
        {
          "indexed": true,
          "internalType": "uint256",
          "name": "videoId",
          "type": "uint256"
        },
        {
          "indexed": true,
          "internalType": "address",
          "name": "owner",
          "type": "address"
        },
        {
          "indexed": false,
          "internalType": "address",
          "name": "tipper",
          "type": "address"
        },
        {
          "indexed": false,
          "internalType": "uint256",
          "name": "amount",
          "type": "uint256"
        },
        {
          "indexed": false,
          "internalType": "uint256",
          "name": "newTipAmount",
          "type": "uint256"
        }
      ],
      "name": "VideoTipped",
      "type": "event"
    },
    {
      "anonymous": false,
      "inputs": [
        {
          "indexed": false,
          "internalType": "uint256",
          "name": "id",
          "type": "uint256"
        },
        {
          "indexed": false,
          "internalType": "address",
          "name": "owner",
          "type": "address"
        },
        {
          "indexed": false,
          "internalType": "string",
          "name": "title",
          "type": "string"
        },
        {
          "indexed": false,
          "internalType": "string",
          "name": "description",
          "type": "string"
        },
        {
          "indexed": false,
          "internalType": "string",
          "name": "ipfsHash",
          "type": "string"
        },
        {
          "indexed": false,
          "internalType": "string",
          "name": "username",
          "type": "string"
        },
        {
          "indexed": false,
          "internalType": "uint256",
          "name": "likes",
          "type": "uint256"
        },
        {
          "indexed": false,
          "internalType": "uint256",
          "name": "dislikes",
          "type": "uint256"
        },
        {
          "indexed": false,
          "internalType": "string",
          "name": "genre",
          "type": "string"
        }
      ],
      "name": "VideoUploaded",
      "type": "event"
    },
    {
      "inputs": [
        {
          "internalType": "address",
          "name": "userAddr",
          "type": "address"
        },
        {
          "internalType": "string",
          "name": "_title",
          "type": "string"
        },
        {
          "internalType": "string",
          "name": "_description",
          "type": "string"
        },
        {
          "internalType": "string",
          "name": "_playbackId",
          "type": "string"
        },
        {
          "internalType": "string",
          "name": "streamKey",
          "type": "string"
        },
        {
          "internalType": "string",
          "name": "_streamID",
          "type": "string"
        },
        {
          "internalType": "string",
          "name": "_genre",
          "type": "string"
        }
      ],
      "name": "createStream",
      "outputs": [],
      "stateMutability": "nonpayable",
      "type": "function"
    },
    {
      "inputs": [
        {
          "internalType": "uint256",
          "name": "_videoId",
          "type": "uint256"
        }
      ],
      "name": "dislikeVideo",
      "outputs": [],
      "stateMutability": "nonpayable",
      "type": "function"
    },
    {
      "inputs": [],
      "name": "getMySubscriptions",
      "outputs": [
        {
          "internalType": "address[]",
          "name": "",
          "type": "address[]"
        }
      ],
      "stateMutability": "view",
      "type": "function"
    },
    {
      "inputs": [
        {
          "internalType": "uint256",
          "name": "_videoId",
          "type": "uint256"
        }
      ],
      "name": "likeVideo",
      "outputs": [],
      "stateMutability": "nonpayable",
      "type": "function"
    },
    {
      "inputs": [
        {
          "internalType": "uint256",
          "name": "",
          "type": "uint256"
        }
      ],
      "name": "liveStreams",
      "outputs": [
        {
          "internalType": "uint256",
          "name": "id",
          "type": "uint256"
        },
        {
          "internalType": "address",
          "name": "owner",
          "type": "address"
        },
        {
          "internalType": "string",
          "name": "stramName",
          "type": "string"
        },
        {
          "internalType": "string",
          "name": "description",
          "type": "string"
        },
        {
          "internalType": "string",
          "name": "playBackId",
          "type": "string"
        },
        {
          "internalType": "uint256",
          "name": "tipAmount",
          "type": "uint256"
        },
        {
          "internalType": "bool",
          "name": "status",
          "type": "bool"
        },
        {
          "internalType": "string",
          "name": "streamKey",
          "type": "string"
        },
        {
          "internalType": "string",
          "name": "streamID",
          "type": "string"
        },
        {
          "internalType": "string",
          "name": "username",
          "type": "string"
        },
        {
          "internalType": "uint256",
          "name": "likes",
          "type": "uint256"
        },
        {
          "internalType": "uint256",
          "name": "dislikes",
          "type": "uint256"
        },
        {
          "internalType": "string",
          "name": "genre",
          "type": "string"
        }
      ],
      "stateMutability": "view",
      "type": "function"
    },
    {
      "inputs": [],
      "name": "myToken",
      "outputs": [
        {
          "internalType": "contract ERC20",
          "name": "",
          "type": "address"
        }
      ],
      "stateMutability": "view",
      "type": "function"
    },
    {
      "inputs": [
        {
          "internalType": "string",
          "name": "_username",
          "type": "string"
        },
        {
          "internalType": "address",
          "name": "userAddress",
          "type": "address"
        }
      ],
      "name": "registerUser",
      "outputs": [],
      "stateMutability": "nonpayable",
      "type": "function"
    },
    {
      "inputs": [
        {
          "internalType": "address",
          "name": "useAddress",
          "type": "address"
        },
        {
          "internalType": "string",
          "name": "_streamID",
          "type": "string"
        }
      ],
      "name": "stopStreamByStreamID",
      "outputs": [],
      "stateMutability": "nonpayable",
      "type": "function"
    },
    {
      "inputs": [
        {
          "internalType": "uint256",
          "name": "",
          "type": "uint256"
        },
        {
          "internalType": "address",
          "name": "",
          "type": "address"
        }
      ],
      "name": "streamDislikes",
      "outputs": [
        {
          "internalType": "bool",
          "name": "",
          "type": "bool"
        }
      ],
      "stateMutability": "view",
      "type": "function"
    },
    {
      "inputs": [
        {
          "internalType": "uint256",
          "name": "",
          "type": "uint256"
        },
        {
          "internalType": "address",
          "name": "",
          "type": "address"
        }
      ],
      "name": "streamLikes",
      "outputs": [
        {
          "internalType": "bool",
          "name": "",
          "type": "bool"
        }
      ],
      "stateMutability": "view",
      "type": "function"
    },
    {
      "inputs": [
        {
          "internalType": "address",
          "name": "creatorAddress",
          "type": "address"
        }
      ],
      "name": "subscribeToCreator",
      "outputs": [],
      "stateMutability": "nonpayable",
      "type": "function"
    },
    {
      "inputs": [
        {
          "internalType": "address",
          "name": "userAddr",
          "type": "address"
        },
        {
          "internalType": "uint256",
          "name": "_streamId",
          "type": "uint256"
        },
        {
          "internalType": "uint256",
          "name": "_amount",
          "type": "uint256"
        }
      ],
      "name": "tipStreamOwner",
      "outputs": [],
      "stateMutability": "payable",
      "type": "function"
    },
    {
      "inputs": [
        {
          "internalType": "address",
          "name": "userAddre",
          "type": "address"
        },
        {
          "internalType": "uint256",
          "name": "_videoId",
          "type": "uint256"
        },
        {
          "internalType": "uint256",
          "name": "_amount",
          "type": "uint256"
        }
      ],
      "name": "tipVideoOwner",
      "outputs": [],
      "stateMutability": "payable",
      "type": "function"
    },
    {
      "inputs": [
        {
          "internalType": "address",
          "name": "creatorAddress",
          "type": "address"
        }
      ],
      "name": "unsubscribeFromCreator",
      "outputs": [],
      "stateMutability": "nonpayable",
      "type": "function"
    },
    {
      "inputs": [
        {
          "internalType": "address",
          "name": "userAddr",
          "type": "address"
        },
        {
          "internalType": "string",
          "name": "_title",
          "type": "string"
        },
        {
          "internalType": "string",
          "name": "_description",
          "type": "string"
        },
        {
          "internalType": "string",
          "name": "_ipfsHash",
          "type": "string"
        },
        {
          "internalType": "string",
          "name": "_genre",
          "type": "string"
        }
      ],
      "name": "uploadVideo",
      "outputs": [],
      "stateMutability": "nonpayable",
      "type": "function"
    },
    {
      "inputs": [
        {
          "internalType": "address",
          "name": "",
          "type": "address"
        }
      ],
      "name": "users",
      "outputs": [
        {
          "internalType": "address",
          "name": "addr",
          "type": "address"
        },
        {
          "internalType": "string",
          "name": "username",
          "type": "string"
        }
      ],
      "stateMutability": "view",
      "type": "function"
    },
    {
      "inputs": [
        {
          "internalType": "uint256",
          "name": "",
          "type": "uint256"
        },
        {
          "internalType": "address",
          "name": "",
          "type": "address"
        }
      ],
      "name": "videoDislikes",
      "outputs": [
        {
          "internalType": "bool",
          "name": "",
          "type": "bool"
        }
      ],
      "stateMutability": "view",
      "type": "function"
    },
    {
      "inputs": [
        {
          "internalType": "uint256",
          "name": "",
          "type": "uint256"
        },
        {
          "internalType": "address",
          "name": "",
          "type": "address"
        }
      ],
      "name": "videoLikes",
      "outputs": [
        {
          "internalType": "bool",
          "name": "",
          "type": "bool"
        }
      ],
      "stateMutability": "view",
      "type": "function"
    },
    {
      "inputs": [
        {
          "internalType": "uint256",
          "name": "",
          "type": "uint256"
        }
      ],
      "name": "videos",
      "outputs": [
        {
          "internalType": "uint256",
          "name": "id",
          "type": "uint256"
        },
        {
          "internalType": "address",
          "name": "owner",
          "type": "address"
        },
        {
          "internalType": "string",
          "name": "title",
          "type": "string"
        },
        {
          "internalType": "string",
          "name": "description",
          "type": "string"
        },
        {
          "internalType": "string",
          "name": "ipfsHash",
          "type": "string"
        },
        {
          "internalType": "uint256",
          "name": "tipAmount",
          "type": "uint256"
        },
        {
          "internalType": "string",
          "name": "username",
          "type": "string"
        },
        {
          "internalType": "uint256",
          "name": "likes",
          "type": "uint256"
        },
        {
          "internalType": "uint256",
          "name": "dislikes",
          "type": "uint256"
        },
        {
          "internalType": "string",
          "name": "genre",
          "type": "string"
        }
      ],
      "stateMutability": "view",
      "type": "function"
    }
  ],
  "bytecode": "0x6080806040523461008757610a408181016001600160401b0381118382101761007157829162003019833903906000f0801561006557600880546001600160a01b0319166001600160a01b0392909216919091179055604051612f8c90816200008d8239f35b6040513d6000823e3d90fd5b634e487b7160e01b600052604160045260246000fd5b600080fdfe6080604052600436101561001257600080fd5b60003560e01c80630746bfe5146128cb5780630b64dab4146126505780630e54b8721461230557806327260d5c146121c757806328558b3f1461217a5780632b074830146120275780632b36d94914611f6d5780632cc9d4ab14611cdb5780635b2eda8b14611c8e57806361746a5c14611c415780639b3e783f146110c4578063a87430ba14611067578063a97d33b314610e82578063aea780241461052e578063b0e6ed1d1461039b578063b8fcf93714610372578063c6044c6214610244578063e6821bf51461013f5763f049a975146100ed57600080fd5b3461013a57604036600319011261013a576101066129f6565b600435600052600260205260406000209060018060a01b0316600052602052602060ff604060002054166040519015158152f35b600080fd5b3461013a57602036600319011261013a5760043560065481101561013a5761016690612c3b565b5080549061024060018060a01b036001830154169161018760028201612b4e565b61019360038301612b4e565b916102266101a360048301612b4e565b6005830154906102136101b860068601612b4e565b916102056007870154986101f76101d6600960088b01549a01612b4e565b996040519e8f9e8f9061014092825260208201528160408201520190612c16565b8c810360608e015290612c16565b908a820360808c0152612c16565b9160a089015287820360c0890152612c16565b9260e0860152610100850152838203610120850152612c16565b0390f35b3461013a5760208060031936011261013a5761025e612a0c565b9033600052600060205260406000209160018060a01b03610283818554161515612dd8565b60026000940190815493818416955b85811061031757505050600160401b83101561030157826102bb9160016102d995018155612f3e565b90919060018060a01b038084549260031b9316831b921b1916179055565b337fbd347d1e803a8fd8e211fb59a6146afdc81bc3b357c9a05789d53fa14e9882a2600080a3005b634e487b7160e01b600052604160045260246000fd5b86836103238387612f3e565b90549060031b1c161461033857600101610292565b60405162461bcd60e51b8152600481018390526012602482015271105b1c9958591e481cdd589cd8dc9a58995960721b6044820152606490fd5b3461013a57600036600319011261013a576008546040516001600160a01b039091168152602090f35b3461013a57602036600319011261013a576103b4612a0c565b33600052600060205260406000209060018060a01b03906103d9828454161515612dd8565b600019600260009401918383549116945b818110610505575b50600082126104c05760001981019081116104aa5761044791846104196104239386612f3e565b9390549286612f3e565b92909360031b1c169060018060a01b038084549260031b9316831b921b1916179055565b8054801561049457600019019161045e8383612f3e565b909182549160031b1b1916905555337f95a70275c11f622b135eb6dc26da86da35fb0a0bd9028874c8c1f30198065aec600080a3005b634e487b7160e01b600052603160045260246000fd5b634e487b7160e01b600052601160045260246000fd5b60405162461bcd60e51b815260206004820152601e60248201527f4e6f74207375627363726962656420746f20746869732063726561746f7200006044820152606490fd5b85856105118387612f3e565b90549060031b1c1614610526576001016103ea565b9150856103f2565b3461013a5760a036600319011261013a57610547612a0c565b6024356001600160401b03811161013a57610566903690600401612a6d565b906044356001600160401b03811161013a57610586903690600401612a6d565b906064356001600160401b03811161013a576105a6903690600401612a6d565b916084356001600160401b03811161013a576105c6903690600401612a6d565b60018060a01b03831660005260006020526105f26105eb600160406000200154612b14565b1515612dd8565b6006549160005b838110610db6575060018060a01b038416600052600060205260016040600020019560405196876101408101106001600160401b036101408a0111176103015761067490610140890160405285895260018060a01b03871660208a01528260408a01528360608a01528760808a0152600060a08a0152612b4e565b60c0880152600060e0880152600061010088015282610120880152600160401b84101561030157600184016006556106ab84612c3b565b979097610da057805188556001880160018060a01b036020830151166001600160601b0360a01b82541617905560408101518051906001600160401b0382116103015781906106fd60028c0154612b14565b601f8111610d6b575b50602090601f8311600114610cf957600092610cee575b50508160011b916000199060031b1c19161760028901555b60608101518051906001600160401b03821161030157819061075a60038c0154612b14565b601f8111610cb9575b50602090601f8311600114610c4757600092610c3c575b50508160011b916000199060031b1c19161760038901555b60808101518051906001600160401b0382116103015781906107b760048c0154612b14565b601f8111610c07575b50602090601f8311600114610b9557600092610b8a575b50508160011b916000199060031b1c19161760048901555b60a0810151600589015560c08101518051906001600160401b0382116103015761081c60068b0154612b14565b601f8111610b55575b50602090601f8311600114610ae15761012093929160009183610ad6575b50508160011b916000199060031b1c19161760068a01555b60e081015160078a015561010081015160088a015501519687516001600160401b038111610301576108906009830154612b14565b601f8111610a96575b506020601f8211600114610a23579080600992600098999a9b8992610a18575b50508160011b9188199060031b1c1916179101555b60085460405163a9059cbb60e01b81526001600160a01b03888116600483015268056bc75e2d6310000060248301529095602092879260449284929091165af1938415610a0c577fc80a81d8e4e89d26727e524a8cd278080ba756275303864f957c168f7bf3ce229761099f6109bb946109ad936109d8986109dd575b5060018060a01b038a1660005260006020526109916001604060002001956040519b8c9b8c5260018060a01b031660208c015261012060408c01526101208b0190612c16565b9089820360608b0152612c16565b908782036080890152612c16565b9085820360a0870152612ea8565b90600060c0850152600060e0850152838203610100850152612c16565b0390a1005b6109fe9060203d602011610a05575b6109f68183612a4c565b810190612d53565b508b61094b565b503d6109ec565b6040513d6000823e3d90fd5b015190508b806108b9565b6009830160005260206000209960005b601f1984168110610a7e57509160009798999a60019260099483601f19811610610a66575b505050811b019101556108ce565b0151891960f88460031b161c191690558b8080610a58565b828201518c556001909b019a60209283019201610a33565b610ac690600984016000526020600020601f840160051c81019160208510610acc575b601f0160051c0190612dc1565b89610899565b9091508190610ab9565b015190508b80610843565b9060068b0160005260206000209160005b601f1985168110610b3d57509183916001936101209695601f19811610610b24575b505050811b0160068a015561085b565b015160001960f88460031b161c191690558b8080610b14565b91926020600181928685015181550194019201610af2565b610b849060068c016000526020600020601f850160051c81019160208610610acc57601f0160051c0190612dc1565b8a610825565b015190508a806107d7565b925060048b016000526020600020906000935b601f1984168510610bec576001945083601f19811610610bd3575b505050811b0160048901556107ef565b015160001960f88460031b161c191690558a8080610bc3565b81810151835560209485019460019093019290910190610ba8565b610c369060048d016000526020600020601f850160051c81019160208610610acc57601f0160051c0190612dc1565b8b6107c0565b015190508a8061077a565b925060038b016000526020600020906000935b601f1984168510610c9e576001945083601f19811610610c85575b505050811b016003890155610792565b015160001960f88460031b161c191690558a8080610c75565b81810151835560209485019460019093019290910190610c5a565b610ce89060038d016000526020600020601f850160051c81019160208610610acc57601f0160051c0190612dc1565b8b610763565b015190508a8061071d565b925060028b016000526020600020906000935b601f1984168510610d50576001945083601f19811610610d37575b505050811b016002890155610735565b015160001960f88460031b161c191690558a8080610d27565b81810151835560209485019460019093019290910190610d0c565b610d9a9060028d016000526020600020601f850160051c81019160208610610acc57601f0160051c0190612dc1565b8b610706565b634e487b7160e01b600052600060045260246000fd5b6004610ddb610de9610dc784612c3b565b506040519283916020830195869101612e24565b03601f198101835282612a4c565b5190206040516020810190610e1860208281610e0b8d87815193849201612bf3565b8101038084520182612a4c565b51902014610e28576001016105f9565b60405162461bcd60e51b815260206004820152602c60248201527f566964656f2077697468207468652073616d652049504653206861736820616c60448201526b72656164792065786973747360a01b6064820152608490fd5b3461013a57604036600319011261013a57610e9b612a0c565b602480356001600160401b03811161013a57610ebc83913690600401612a6d565b6020926000929091848101845b60075481101561105d576008610ddb610ef7610ee484612ac3565b506040519283918c830195869101612e24565b51902060405188810190610f138a828851610e0b81878b612bf3565b51902014610f2357600101610ec9565b929394505050610f3281612ac3565b5060019081015490936001600160a01b0393841693909116830361101a575083610f91826006610f827fd95eebb8ae85b521a4f98aff3b92d8cd7ecf3f002024835c0e9716cf2bdea20895612ac3565b5001805460ff19169055612ac3565b505492604051908152a25b15610fa357005b60a4906040519062461bcd60e51b82526004820152604460248201527f53747265616d20776974682074686520676976656e20494420646f6573206e6f60448201527f74206578697374206f722068617320616c7265616479206265656e2073746f706064820152633832b21760e11b6084820152fd5b84601e6064926040519262461bcd60e51b845260048401528201527f43616c6c6572206973206e6f74207468652073747265616d206f776e657200006044820152fd5b5050505050610f9c565b3461013a57602036600319011261013a576001600160a01b0380611089612a0c565b1660005260006020526110a760016040600020928354169201612b4e565b906102406040519283928352604060208401526040830190612c16565b3461013a5760e036600319011261013a576110dd612a0c565b6024356001600160401b03811161013a576110fc903690600401612a6d565b6044356001600160401b03811161013a5761111b903690600401612a6d565b906064356001600160401b03811161013a5761113b903690600401612a6d565b906084356001600160401b03811161013a5761115b903690600401612a6d565b60a4356001600160401b03811161013a5761117a903690600401612a6d565b9060c4356001600160401b03811161013a5761119a903690600401612a6d565b9360018060a01b03871660005260006020526111c06105eb600160406000200154612b14565b6007549560005b878110611bbb575060018060a01b0388166000526000602052600160406000200160405190816101a08101106001600160401b036101a08401111761030157611255906101a0830160405289835260018060a01b038b166020840152876040840152836060840152846080840152600060a0840152600160c08401528560e084015286610100840152612b4e565b6101208201526000610140820152600061016082015286610180820152600160401b881015610301576001880160075561128e88612ac3565b919091610da057805182556001820160018060a01b036020830151166001600160601b0360a01b82541617905560408101518051906001600160401b0382116103015781906112e06002860154612b14565b601f8111611b86575b50602090601f8311600114611b1457600092611b09575b50508160011b916000199060031b1c19161760028301555b60608101518051906001600160401b03821161030157819061133d6003860154612b14565b601f8111611ad4575b50602090601f8311600114611a6257600092611a57575b50508160011b916000199060031b1c19161760038301555b60808101518051906001600160401b03821161030157819061139a6004860154612b14565b601f8111611a22575b50602090601f83116001146119b0576000926119a5575b50508160011b916000199060031b1c19161760048301555b60a081015160058301556006820160c0820151151560ff8019835416911617905560e08101518051906001600160401b0382116103015781906114186007860154612b14565b601f8111611970575b50602090601f83116001146118fe576000926118f3575b50508160011b916000199060031b1c19161760078301555b6101008101518051906001600160401b0382116103015781906114766008860154612b14565b601f81116118be575b50602090601f831160011461184c57600092611841575b50508160011b916000199060031b1c19161760088301555b6101208101518051906001600160401b038211610301576114d26009850154612b14565b601f811161180c575b50602090601f8311600114611798576101809392916000918361178d575b50508160011b916000199060031b1c19161760098401555b610140810151600a840155610160810151600b84015501518051906001600160401b03821161030157611547600c840154612b14565b601f8111611758575b50602090601f83116001146116e857600c9291600091836116dd575b50508160011b916000199060031b1c1916179101555b60085460405163a9059cbb60e01b81526001600160a01b038a81166004830152683635c9adc5dea000006024830152909160209183916044918391600091165af18015610a0c576116be575b50600160a01b60019003881660005260006020526040600020600101946040519889988952600160a01b60019003166020890152604088016101809052610180880161161991612c16565b878103606089015261162a91612c16565b868103608088015261163b91612c16565b600160a087015285810360c087015261165391612c16565b84810360e086015261166491612c16565b83810361010085015261167691612ea8565b6000610120840181905261014084015282810361016084015261169891612c16565b037ffec25baaa8c008ac1e8dfa0eaabf4f83ed3ec6bc1d2a0fb06fe1ed313c88661591a1005b6116d69060203d602011610a05576109f68183612a4c565b50886115ce565b015190508c8061156c565b90600c840160005260206000209160005b601f19851681106117405750918391600193600c95601f19811610611727575b505050811b01910155611582565b015160001960f88460031b161c191690558c8080611719565b919260206001819286850151815501940192016116f9565b61178790600c85016000526020600020601f850160051c81019160208610610acc57601f0160051c0190612dc1565b8b611550565b015190508d806114f9565b906009850160005260206000209160005b601f19851681106117f457509183916001936101809695601f198116106117db575b505050811b016009840155611511565b015160001960f88460031b161c191690558d80806117cb565b919260206001819286850151815501940192016117a9565b61183b90600986016000526020600020601f850160051c81019160208610610acc57601f0160051c0190612dc1565b8c6114db565b015190508c80611496565b9250600885016000526020600020906000935b601f19841685106118a3576001945083601f1981161061188a575b505050811b0160088301556114ae565b015160001960f88460031b161c191690558c808061187a565b8181015183556020948501946001909301929091019061185f565b6118ed90600887016000526020600020601f850160051c81019160208610610acc57601f0160051c0190612dc1565b8d61147f565b015190508c80611438565b9250600785016000526020600020906000935b601f1984168510611955576001945083601f1981161061193c575b505050811b016007830155611450565b015160001960f88460031b161c191690558c808061192c565b81810151835560209485019460019093019290910190611911565b61199f90600787016000526020600020601f850160051c81019160208610610acc57601f0160051c0190612dc1565b8d611421565b015190508c806113ba565b9250600485016000526020600020906000935b601f1984168510611a07576001945083601f198116106119ee575b505050811b0160048301556113d2565b015160001960f88460031b161c191690558c80806119de565b818101518355602094850194600190930192909101906119c3565b611a5190600487016000526020600020601f850160051c81019160208610610acc57601f0160051c0190612dc1565b8d6113a3565b015190508c8061135d565b9250600385016000526020600020906000935b601f1984168510611ab9576001945083601f19811610611aa0575b505050811b016003830155611375565b015160001960f88460031b161c191690558c8080611a90565b81810151835560209485019460019093019290910190611a75565b611b0390600387016000526020600020601f850160051c81019160208610610acc57601f0160051c0190612dc1565b8d611346565b015190508c80611300565b9250600285016000526020600020906000935b601f1984168510611b6b576001945083601f19811610611b52575b505050811b016002830155611318565b015160001960f88460031b161c191690558c8080611b42565b81810151835560209485019460019093019290910190611b27565b611bb590600287016000526020600020601f850160051c81019160208610610acc57601f0160051c0190612dc1565b8d6112e9565b6004610ddb611bcc610dc784612ac3565b5190206040516020810190611bec6020828851610e0b8187858d01612bf3565b51902014611bfc576001016111c7565b60405162461bcd60e51b815260206004820152601960248201527f4c69766553747265616d20616c726561647920657869737473000000000000006044820152606490fd5b3461013a57604036600319011261013a57611c5a6129f6565b600435600052600160205260406000209060018060a01b0316600052602052602060ff604060002054166040519015158152f35b3461013a57604036600319011261013a57611ca76129f6565b600435600052600460205260406000209060018060a01b0316600052602052602060ff604060002054166040519015158152f35b611ce436612a22565b611cf16006548310612c76565b611cfc811515612cc2565b611d0582612c3b565b506001810180549094916001600160a01b0391821615611f3657600854604051636eb1769f60e11b81526001600160a01b03851660048201523060248201526020918416908281604481855afa8015610a0c578790600090611f05575b611d6e92501015612d0e565b6040516323b872dd60e01b81526001600160a01b038616600482015230602482015260448101879052908290829060649082906000905af18015610a0c57611dbe91600091611ee8575b50612d6b565b600854875460405163a9059cbb60e01b81529085166001600160a01b031660048201526024810187905290829082908616816000816044810103925af1908115610a0c57600091611ecb575b5015611e7857507f43f28d6f7c3838abd6cbdf493a5c63550740efc8071f5d0bc5b38769455414db9392916005611e73920196611e48858954612cb5565b80985554169560405193849384604091949392606082019560018060a01b0316825260208201520152565b0390a3005b6084906040519062461bcd60e51b82526004820152602660248201527f4661696c20746f207472616e7366657220746f6b656e20746f20766964656f736044820152651037bbb732b960d11b6064820152fd5b611ee29150823d8411610a05576109f68183612a4c565b88611e0a565b611eff9150833d8511610a05576109f68183612a4c565b89611db8565b50508281813d8311611f2f575b611f1c8183612a4c565b8101031261013a5786611d6e9151611d62565b503d611f12565b60405162461bcd60e51b815260206004820152600f60248201526e159a59195bc81b9bdd08199bdd5b99608a1b6044820152606490fd5b3461013a57600036600319011261013a5733600052602060008152600260406000200160405190818382549182815201908192600052846000209060005b8682821061200a578686611fc182880383612a4c565b604051928392818401908285525180915260408401929160005b828110611fea57505050500390f35b83516001600160a01b031685528695509381019392810192600101611fdb565b83546001600160a01b031685529093019260019283019201611fab565b3461013a57602036600319011261013a5760043560075481101561013a5761204e90612ac3565b50805460018201546001600160a01b03169161206c60028201612b4e565b9061207960038201612b4e565b9061208660048201612b4e565b6005820154600683015460ff16906120a060078501612b4e565b906120ad60088601612b4e565b926120ba60098701612b4e565b94600a87015497600b88015497600c016120d390612b4e565b996040519c8d9c8d6101a092839282526020820152604001528c016120f791612c16565b8b810360608d015261210891612c16565b8a810360808c015261211991612c16565b9160a08a0152151560c089015287810360e089015261213791612c16565b86810361010088015261214991612c16565b85810361012087015261215b91612c16565b9161014085015261016084015282810361018084015261024091612c16565b3461013a57604036600319011261013a576121936129f6565b600435600052600360205260406000209060018060a01b0316600052602052602060ff604060002054166040519015158152f35b3461013a5760208060031936011261013a57600435906121ea6006548310612c76565b8160005260018152604060002033600052815260ff604060002054166122c1578160005260028152604060002033600052815260ff6040600020541661226c5781612259916007936000526001815260406000209033600052526040600020600160ff19825416179055612c3b565b5001805490600182018092116104aa5755005b6084906040519062461bcd60e51b82526004820152602860248201527f416c7265616479206469736c696b6564207468697320766964656f2c2063616e6044820152676e6f74206c696b6560c01b6064820152fd5b6064906040519062461bcd60e51b82526004820152601860248201527f416c7265616479206c696b6564207468697320766964656f00000000000000006044820152fd5b3461013a57604036600319011261013a576001600160401b0360043581811161013a57612336903690600401612a6d565b61233e6129f6565b906040519260ff8483516020968161235a899383858a01612bf3565b81016005815203019020541661260b5760018060a01b0380931692836000526000855261238e600160406000200154612b14565b6125c65760405190858201828110848211176103015760405260008252604051916060830183811085821117610301576040528583528683019085825260408401528560005260008752604060002090828451166001600160601b0360a01b8354161782556001820190518051908682116103015761240d8354612b14565b601f8111612596575b508990601f8311600114612529579180600294926040969460009261251e575b50508160011b916000199060031b1c19161790555b01920151805193841161030157600160401b84116103015786908354858555808610612501575b500191600052856000209060005b8481106124ed57867f48cac28ad4dc618e15f4c2dd5e97751182f166de97b25618318b2112aa951a2f878a604051818184516124bf8183858901612bf3565b81016005815203019020600160ff198254161790556124e8604051928284938452830190612c16565b0390a2005b835182168382015592870192600101612480565b612518908560005286846000209182019101612dc1565b88612472565b015190508c80612436565b90601f19831691846000528b6000209260005b8d828210612580575050926001928592604098966002989610612567575b505050811b01905561244b565b015160001960f88460031b161c191690558c808061255a565b600185968293968601518155019501930161253c565b6125c090846000528b600020601f850160051c8101918d8610610acc57601f0160051c0190612dc1565b8a612416565b60405162461bcd60e51b815260048101869052601a60248201527f4164647265737320616c726561647920726567697374657265640000000000006044820152606490fd5b60405162461bcd60e51b815260048101859052601960248201527f557365726e616d6520697320616c72656164792074616b656e000000000000006044820152606490fd5b61265936612a22565b6007548210156128925761266e811515612cc2565b61267782612ac3565b506001810180549094916001600160a01b039182161561285a57600854604051636eb1769f60e11b81526001600160a01b03851660048201523060248201526020918416908281604481855afa8015610a0c578790600090612829575b6126e092501015612d0e565b6040516323b872dd60e01b81526001600160a01b038616600482015230602482015260448101879052908290829060649082906000905af18015610a0c5761272f91600091611ee85750612d6b565b600854875460405163a9059cbb60e01b81529085166001600160a01b031660048201526024810187905290829082908616816000816044810103925af1908115610a0c5760009161280c575b50156127b957507f496b18425185db1e67cd9a80cf3ac423445fc0586c4e11362a1168fa5a6fe2739392916005611e73920196611e48858954612cb5565b6084906040519062461bcd60e51b82526004820152602660248201527f4661696c20746f207472616e7366657220746f6b656e20746f2073747265616d6044820152651037bbb732b960d11b6064820152fd5b6128239150823d8411610a05576109f68183612a4c565b8861277b565b50508281813d8311612853575b6128408183612a4c565b8101031261013a57866126e091516126d4565b503d612836565b60405162461bcd60e51b815260206004820152601060248201526f14dd1c99585b481b9bdd08199bdd5b9960821b6044820152606490fd5b60405162461bcd60e51b8152602060048201526011602482015270125b9d985b1a590814dd1c99585b481251607a1b6044820152606490fd5b3461013a5760208060031936011261013a57600435906128ee6006548310612c76565b8160005260028152604060002033600052815260ff604060002054166129b2578160005260018152604060002033600052815260ff6040600020541661295d5781612259916008936000526002815260406000209033600052526040600020600160ff19825416179055612c3b565b6084906040519062461bcd60e51b82526004820152602860248201527f416c7265616479206c696b6564207468697320766964656f2c2063616e6e6f74604482015267206469736c696b6560c01b6064820152fd5b6064906040519062461bcd60e51b82526004820152601b60248201527f416c7265616479206469736c696b6564207468697320766964656f00000000006044820152fd5b602435906001600160a01b038216820361013a57565b600435906001600160a01b038216820361013a57565b606090600319011261013a576004356001600160a01b038116810361013a57906024359060443590565b90601f801991011681019081106001600160401b0382111761030157604052565b81601f8201121561013a578035906001600160401b0382116103015760405192612aa1601f8401601f191660200185612a4c565b8284526020838301011161013a57816000926020809301838601378301015290565b600754811015612afe57600d906007600052027fa66cc928b5edb82af9bd49922954155ab7b0942694bea4ce44661d9a8736c6880190600090565b634e487b7160e01b600052603260045260246000fd5b90600182811c92168015612b44575b6020831014612b2e57565b634e487b7160e01b600052602260045260246000fd5b91607f1691612b23565b90604051918260008254612b6181612b14565b90818452602094600191600181169081600014612bd15750600114612b92575b505050612b9092500383612a4c565b565b600090815285812095935091905b818310612bb9575050612b909350820101388080612b81565b85548884018501529485019487945091830191612ba0565b92505050612b9094925060ff191682840152151560051b820101388080612b81565b60005b838110612c065750506000910152565b8181015183820152602001612bf6565b90602091612c2f81518092818552858086019101612bf3565b601f01601f1916010190565b600654811015612afe57600a906006600052027ff652222313e28459528d920b65115c16c04f3efc82aaedc97be59f3f377c0d3f0190600090565b15612c7d57565b60405162461bcd60e51b815260206004820152601060248201526f125b9d985b1a59081d9a59195bc8125160821b6044820152606490fd5b919082018092116104aa57565b15612cc957565b60405162461bcd60e51b815260206004820152601d60248201527f416d6f756e74206d7573742062652067726561746572207468616e20300000006044820152606490fd5b15612d1557565b60405162461bcd60e51b8152602060048201526016602482015275496e73756666696369656e7420616c6c6f77616e636560501b6044820152606490fd5b9081602091031261013a5751801515810361013a5790565b15612d7257565b60405162461bcd60e51b815260206004820152602160248201527f4661696c20746f207472616e7366657220746f6b656e20696e206164647265736044820152607360f81b6064820152608490fd5b818110612dcc575050565b60008155600101612dc1565b15612ddf57565b60405162461bcd60e51b815260206004820152601760248201527f55736572206d75737420626520726567697374657265640000000000000000006044820152606490fd5b600092918154612e3381612b14565b92600191808316908115612e8d5750600114612e50575b50505050565b9091929394506000526020906020600020906000915b858310612e7c5750505050019038808080612e4a565b805485840152918301918101612e66565b60ff1916845250505081151590910201915038808080612e4a565b805460009392612eb782612b14565b91828252602093600191600181169081600014612f1f5750600114612ede575b5050505050565b90939495506000929192528360002092846000945b838610612f0b57505050500101903880808080612ed7565b805485870183015294019385908201612ef3565b60ff19168685015250505090151560051b010191503880808080612ed7565b8054821015612afe576000526020600020019060009056fea264697066735822122073c2e7d181097038211a70a3c961d0c05f267380bef37604ffe0f782216105c564736f6c6343000818003360803462000397576040906001600160401b0390808301828111828210176200029757835260088152602090672b34b22a37b5b2b760c11b82820152835192848401848110828211176200029757855260038085526213959560ea1b84860152825182811162000297578154906001948583811c931680156200038c575b8784101462000376578190601f9384811162000320575b508790848311600114620002b957600092620002ad575b505060001982851b1c191690851b1782555b8551928311620002975760049586548581811c911680156200028c575b8782101462000277578281116200022c575b5085918411600114620001c157938394918492600095620001b5575b50501b92600019911b1c19161782555b33156200019e576002546b033b2e3c9fd0803ce8000000928382018092116200018957506000917fddf252ad1be2c89b69c2b068fc378daa952ba7f163c4a11628f55a4df523b3ef9160025533835282815284832084815401905584519384523393a3516106a390816200039d8239f35b601190634e487b7160e01b6000525260246000fd5b506000602492519163ec442f0560e01b8352820152fd5b01519350388062000108565b9190601f198416928760005284876000209460005b8989838310620002145750505010620001f9575b50505050811b01825562000118565b01519060f884600019921b161c1916905538808080620001ea565b868601518955909701969485019488935001620001d6565b87600052866000208380870160051c8201928988106200026d575b0160051c019086905b82811062000260575050620000ec565b6000815501869062000250565b9250819262000247565b602288634e487b7160e01b6000525260246000fd5b90607f1690620000da565b634e487b7160e01b600052604160045260246000fd5b015190503880620000ab565b90879350601f1983169186600052896000209260005b8b828210620003095750508411620002f0575b505050811b018255620000bd565b015160001983871b60f8161c19169055388080620002e2565b8385015186558b97909501949384019301620002cf565b90915084600052876000208480850160051c8201928a86106200036c575b918991869594930160051c01915b8281106200035c57505062000094565b600081558594508991016200034c565b925081926200033e565b634e487b7160e01b600052602260045260246000fd5b92607f16926200007d565b600080fdfe608060408181526004918236101561001657600080fd5b600092833560e01c91826306fdde031461043b57508163095ea7b31461038d57816318160ddd1461036e57816323b872dd14610277578163313ce5671461025b57816370a082311461022457816395d89b411461010357508063a9059cbb146100d35763dd62ed3e1461008857600080fd5b346100cf57806003193601126100cf57806020926100a461055e565b6100ac610579565b6001600160a01b0391821683526001865283832091168252845220549051908152f35b5080fd5b50346100cf57806003193601126100cf576020906100fc6100f261055e565b602435903361058f565b5160018152f35b8383346100cf57816003193601126100cf5780519082845460018160011c906001831692831561021a575b6020938484108114610207578388529081156101eb5750600114610196575b505050829003601f01601f191682019267ffffffffffffffff841183851017610183575082918261017f925282610515565b0390f35b634e487b7160e01b815260418552602490fd5b8787529192508591837f8a35acfbc15ff81a39ae7d344fd709f28e8600b4aa8c65c6b64bfe7fe36bd19b5b8385106101d7575050505083010185808061014d565b8054888601830152930192849082016101c1565b60ff1916878501525050151560051b840101905085808061014d565b634e487b7160e01b895260228a52602489fd5b91607f169161012e565b5050346100cf5760203660031901126100cf5760209181906001600160a01b0361024c61055e565b16815280845220549051908152f35b5050346100cf57816003193601126100cf576020905160128152f35b9050823461036b57606036600319011261036b5761029361055e565b61029b610579565b916044359360018060a01b0383168083526001602052868320338452602052868320549160001983036102d7575b6020886100fc89898961058f565b86831061033f578115610328573315610311575082526001602090815286832033845281529186902090859003905582906100fc876102c9565b8751634a1406b160e11b8152908101849052602490fd5b875163e602df0560e01b8152908101849052602490fd5b8751637dc7a0d960e11b8152339181019182526020820193909352604081018790528291506060010390fd5b80fd5b5050346100cf57816003193601126100cf576020906002549051908152f35b9050346104375781600319360112610437576103a761055e565b602435903315610420576001600160a01b031691821561040957508083602095338152600187528181208582528752205582519081527f8c5be1e5ebec7d5bd14f71427d1e84f3dd0314c0f7b2291e5b200ac8c7c3b925843392a35160018152f35b8351634a1406b160e11b8152908101859052602490fd5b835163e602df0560e01b8152808401869052602490fd5b8280fd5b849084346104375782600319360112610437578260035460018160011c906001831692831561050b575b6020938484108114610207578388529081156101eb57506001146104b557505050829003601f01601f191682019267ffffffffffffffff841183851017610183575082918261017f925282610515565b600387529192508591837fc2575a0e9e593c00f959f8c92f12db2869c3395a3b0502d05e2516446f71f85b5b8385106104f7575050505083010185808061014d565b8054888601830152930192849082016104e1565b91607f1691610465565b6020808252825181830181905290939260005b82811061054a57505060409293506000838284010152601f8019910116010190565b818101860151848201604001528501610528565b600435906001600160a01b038216820361057457565b600080fd5b602435906001600160a01b038216820361057457565b916001600160a01b03808416928315610654571692831561063b5760009083825281602052604082205490838210610609575091604082827fddf252ad1be2c89b69c2b068fc378daa952ba7f163c4a11628f55a4df523b3ef958760209652828652038282205586815220818154019055604051908152a3565b60405163391434e360e21b81526001600160a01b03919091166004820152602481019190915260448101839052606490fd5b60405163ec442f0560e01b815260006004820152602490fd5b604051634b637e8f60e11b815260006004820152602490fdfea26469706673582212204415868097c0910c00ecd3de1c8899320177d75bb60a405daa0d211c85faeeab64736f6c63430008180033",
  "linkReferences": {},
  "deployedLinkReferences": {}
}